{
	"contracts/Exchange.sol": {
		"Exchange": {
			"abi": [
				{
					"inputs": [
						{
							"internalType": "address",
							"name": "_erc20Address",
							"type": "address"
						}
					],
					"stateMutability": "nonpayable",
					"type": "constructor"
				},
				{
					"anonymous": false,
					"inputs": [
						{
							"indexed": false,
							"internalType": "address",
							"name": "provider",
							"type": "address"
						},
						{
							"indexed": false,
							"internalType": "uint256",
							"name": "amountERC20TokenDeposited",
							"type": "uint256"
						},
						{
							"indexed": false,
							"internalType": "uint256",
							"name": "amountEthDeposited",
							"type": "uint256"
						},
						{
							"indexed": false,
							"internalType": "uint256",
							"name": "liquidityPositionsIssued",
							"type": "uint256"
						}
					],
					"name": "LiquidityProvided",
					"type": "event"
				},
				{
					"anonymous": false,
					"inputs": [
						{
							"indexed": false,
							"internalType": "uint256",
							"name": "amountERC20TokenWithdrew",
							"type": "uint256"
						},
						{
							"indexed": false,
							"internalType": "uint256",
							"name": "amountEthWithdrew",
							"type": "uint256"
						},
						{
							"indexed": false,
							"internalType": "uint256",
							"name": "liquidityPositionsBurned",
							"type": "uint256"
						}
					],
					"name": "LiquidityWithdrew",
					"type": "event"
				},
				{
					"anonymous": false,
					"inputs": [
						{
							"indexed": false,
							"internalType": "uint256",
							"name": "amountERC20TokenWithdrew",
							"type": "uint256"
						},
						{
							"indexed": false,
							"internalType": "uint256",
							"name": "amountEthDeposited",
							"type": "uint256"
						}
					],
					"name": "SwapForERC20Token",
					"type": "event"
				},
				{
					"anonymous": false,
					"inputs": [
						{
							"indexed": false,
							"internalType": "uint256",
							"name": "amountERC20TokenDeposited",
							"type": "uint256"
						},
						{
							"indexed": false,
							"internalType": "uint256",
							"name": "amountEthWithdrew",
							"type": "uint256"
						}
					],
					"name": "SwapForEth",
					"type": "event"
				},
				{
					"inputs": [],
					"name": "K",
					"outputs": [
						{
							"internalType": "uint256",
							"name": "",
							"type": "uint256"
						}
					],
					"stateMutability": "view",
					"type": "function"
				},
				{
					"inputs": [],
					"name": "erc20Token",
					"outputs": [
						{
							"internalType": "contract ERC20",
							"name": "",
							"type": "address"
						}
					],
					"stateMutability": "view",
					"type": "function"
				},
				{
					"inputs": [
						{
							"internalType": "uint256",
							"name": "_amountEth",
							"type": "uint256"
						}
					],
					"name": "estimateERC20TokenToProvide",
					"outputs": [
						{
							"internalType": "uint256",
							"name": "amountERC20Token",
							"type": "uint256"
						}
					],
					"stateMutability": "view",
					"type": "function"
				},
				{
					"inputs": [
						{
							"internalType": "uint256",
							"name": "_amountERC20Token",
							"type": "uint256"
						}
					],
					"name": "estimateEthToProvide",
					"outputs": [
						{
							"internalType": "uint256",
							"name": "amountEth",
							"type": "uint256"
						}
					],
					"stateMutability": "view",
					"type": "function"
				},
				{
					"inputs": [
						{
							"internalType": "uint256",
							"name": "_amountEth",
							"type": "uint256"
						}
					],
					"name": "estimateSwapForERC20Token",
					"outputs": [
						{
							"internalType": "uint256",
							"name": "ERC20TokenToSend",
							"type": "uint256"
						}
					],
					"stateMutability": "view",
					"type": "function"
				},
				{
					"inputs": [
						{
							"internalType": "uint256",
							"name": "_amountERC20Token",
							"type": "uint256"
						}
					],
					"name": "estimateSwapForEth",
					"outputs": [
						{
							"internalType": "uint256",
							"name": "ethToSend",
							"type": "uint256"
						}
					],
					"stateMutability": "view",
					"type": "function"
				},
				{
					"inputs": [],
					"name": "getMyLiquidityPositions",
					"outputs": [
						{
							"internalType": "uint256",
							"name": "",
							"type": "uint256"
						}
					],
					"stateMutability": "view",
					"type": "function"
				},
				{
					"inputs": [
						{
							"internalType": "address",
							"name": "",
							"type": "address"
						}
					],
					"name": "liquidityPositions",
					"outputs": [
						{
							"internalType": "uint256",
							"name": "",
							"type": "uint256"
						}
					],
					"stateMutability": "view",
					"type": "function"
				},
				{
					"inputs": [
						{
							"internalType": "uint256",
							"name": "_amountERC20Token",
							"type": "uint256"
						}
					],
					"name": "provideLiquidity",
					"outputs": [
						{
							"internalType": "uint256",
							"name": "liquidity",
							"type": "uint256"
						}
					],
					"stateMutability": "payable",
					"type": "function"
				},
				{
					"inputs": [],
					"name": "swapForERC20Token",
					"outputs": [
						{
							"internalType": "uint256",
							"name": "ERC20TokenToSend",
							"type": "uint256"
						}
					],
					"stateMutability": "payable",
					"type": "function"
				},
				{
					"inputs": [
						{
							"internalType": "uint256",
							"name": "_amountERC20Token",
							"type": "uint256"
						}
					],
					"name": "swapForEth",
					"outputs": [
						{
							"internalType": "uint256",
							"name": "ethToSend",
							"type": "uint256"
						}
					],
					"stateMutability": "nonpayable",
					"type": "function"
				},
				{
					"inputs": [],
					"name": "totalLiquidityPositions",
					"outputs": [
						{
							"internalType": "uint256",
							"name": "",
							"type": "uint256"
						}
					],
					"stateMutability": "view",
					"type": "function"
				},
				{
					"inputs": [
						{
							"internalType": "uint256",
							"name": "_liquidityPositionsToBurn",
							"type": "uint256"
						}
					],
					"name": "withdrawLiquidity",
					"outputs": [],
					"stateMutability": "nonpayable",
					"type": "function"
				}
			],
			"devdoc": {
				"kind": "dev",
				"methods": {},
				"version": 1
			},
			"evm": {
				"assembly": "    /* \"contracts/Exchange.sol\":121:8885  contract Exchange {... */\n  mstore(0x40, 0x80)\n    /* \"contracts/Exchange.sol\":365:450  constructor(address _erc20Address) {... */\n  callvalue\n  dup1\n  iszero\n  tag_1\n  jumpi\n  0x00\n  dup1\n  revert\ntag_1:\n  pop\n  mload(0x40)\n  sub(codesize, bytecodeSize)\n  dup1\n  bytecodeSize\n  dup4\n  codecopy\n  dup2\n  dup2\n  add\n  0x40\n  mstore\n  dup2\n  add\n  swap1\n  tag_2\n  swap2\n  swap1\n  tag_3\n  jump\t// in\ntag_2:\n    /* \"contracts/Exchange.sol\":429:442  _erc20Address */\n  dup1\n    /* \"contracts/Exchange.sol\":410:420  erc20Token */\n  0x00\n  dup1\n    /* \"contracts/Exchange.sol\":410:443  erc20Token = ERC20(_erc20Address) */\n  0x0100\n  exp\n  dup2\n  sload\n  dup2\n  0xffffffffffffffffffffffffffffffffffffffff\n  mul\n  not\n  and\n  swap1\n  dup4\n  0xffffffffffffffffffffffffffffffffffffffff\n  and\n  mul\n  or\n  swap1\n  sstore\n  pop\n    /* \"contracts/Exchange.sol\":365:450  constructor(address _erc20Address) {... */\n  pop\n    /* \"contracts/Exchange.sol\":121:8885  contract Exchange {... */\n  jump(tag_6)\n    /* \"#utility.yul\":88:205   */\ntag_8:\n    /* \"#utility.yul\":197:198   */\n  0x00\n    /* \"#utility.yul\":194:195   */\n  dup1\n    /* \"#utility.yul\":187:199   */\n  revert\n    /* \"#utility.yul\":334:460   */\ntag_10:\n    /* \"#utility.yul\":371:378   */\n  0x00\n    /* \"#utility.yul\":411:453   */\n  0xffffffffffffffffffffffffffffffffffffffff\n    /* \"#utility.yul\":404:409   */\n  dup3\n    /* \"#utility.yul\":400:454   */\n  and\n    /* \"#utility.yul\":389:454   */\n  swap1\n  pop\n    /* \"#utility.yul\":334:460   */\n  swap2\n  swap1\n  pop\n  jump\t// out\n    /* \"#utility.yul\":466:562   */\ntag_11:\n    /* \"#utility.yul\":503:510   */\n  0x00\n    /* \"#utility.yul\":532:556   */\n  tag_20\n    /* \"#utility.yul\":550:555   */\n  dup3\n    /* \"#utility.yul\":532:556   */\n  tag_10\n  jump\t// in\ntag_20:\n    /* \"#utility.yul\":521:556   */\n  swap1\n  pop\n    /* \"#utility.yul\":466:562   */\n  swap2\n  swap1\n  pop\n  jump\t// out\n    /* \"#utility.yul\":568:690   */\ntag_12:\n    /* \"#utility.yul\":641:665   */\n  tag_22\n    /* \"#utility.yul\":659:664   */\n  dup2\n    /* \"#utility.yul\":641:665   */\n  tag_11\n  jump\t// in\ntag_22:\n    /* \"#utility.yul\":634:639   */\n  dup2\n    /* \"#utility.yul\":631:666   */\n  eq\n    /* \"#utility.yul\":621:684   */\n  tag_23\n  jumpi\n    /* \"#utility.yul\":680:681   */\n  0x00\n    /* \"#utility.yul\":677:678   */\n  dup1\n    /* \"#utility.yul\":670:682   */\n  revert\n    /* \"#utility.yul\":621:684   */\ntag_23:\n    /* \"#utility.yul\":568:690   */\n  pop\n  jump\t// out\n    /* \"#utility.yul\":696:839   */\ntag_13:\n    /* \"#utility.yul\":753:758   */\n  0x00\n    /* \"#utility.yul\":784:790   */\n  dup2\n    /* \"#utility.yul\":778:791   */\n  mload\n    /* \"#utility.yul\":769:791   */\n  swap1\n  pop\n    /* \"#utility.yul\":800:833   */\n  tag_25\n    /* \"#utility.yul\":827:832   */\n  dup2\n    /* \"#utility.yul\":800:833   */\n  tag_12\n  jump\t// in\ntag_25:\n    /* \"#utility.yul\":696:839   */\n  swap3\n  swap2\n  pop\n  pop\n  jump\t// out\n    /* \"#utility.yul\":845:1196   */\ntag_3:\n    /* \"#utility.yul\":915:921   */\n  0x00\n    /* \"#utility.yul\":964:966   */\n  0x20\n    /* \"#utility.yul\":952:961   */\n  dup3\n    /* \"#utility.yul\":943:950   */\n  dup5\n    /* \"#utility.yul\":939:962   */\n  sub\n    /* \"#utility.yul\":935:967   */\n  slt\n    /* \"#utility.yul\":932:1051   */\n  iszero\n  tag_27\n  jumpi\n    /* \"#utility.yul\":970:1049   */\n  tag_28\n  tag_8\n  jump\t// in\ntag_28:\n    /* \"#utility.yul\":932:1051   */\ntag_27:\n    /* \"#utility.yul\":1090:1091   */\n  0x00\n    /* \"#utility.yul\":1115:1179   */\n  tag_29\n    /* \"#utility.yul\":1171:1178   */\n  dup5\n    /* \"#utility.yul\":1162:1168   */\n  dup3\n    /* \"#utility.yul\":1151:1160   */\n  dup6\n    /* \"#utility.yul\":1147:1169   */\n  add\n    /* \"#utility.yul\":1115:1179   */\n  tag_13\n  jump\t// in\ntag_29:\n    /* \"#utility.yul\":1105:1179   */\n  swap2\n  pop\n    /* \"#utility.yul\":1061:1189   */\n  pop\n    /* \"#utility.yul\":845:1196   */\n  swap3\n  swap2\n  pop\n  pop\n  jump\t// out\n    /* \"contracts/Exchange.sol\":121:8885  contract Exchange {... */\ntag_6:\n  dataSize(sub_0)\n  dup1\n  dataOffset(sub_0)\n  0x00\n  codecopy\n  0x00\n  return\nstop\n\nsub_0: assembly {\n        /* \"contracts/Exchange.sol\":121:8885  contract Exchange {... */\n      mstore(0x40, 0x80)\n      jumpi(tag_1, lt(calldatasize, 0x04))\n      shr(0xe0, calldataload(0x00))\n      dup1\n      0x8a13eea7\n      gt\n      tag_15\n      jumpi\n      dup1\n      0xc8ab8325\n      gt\n      tag_16\n      jumpi\n      dup1\n      0xc8ab8325\n      eq\n      tag_11\n      jumpi\n      dup1\n      0xe0ba2000\n      eq\n      tag_12\n      jumpi\n      dup1\n      0xeb521a4c\n      eq\n      tag_13\n      jumpi\n      dup1\n      0xed7bf868\n      eq\n      tag_14\n      jumpi\n      jump(tag_1)\n    tag_16:\n      dup1\n      0x8a13eea7\n      eq\n      tag_8\n      jumpi\n      dup1\n      0x903875f7\n      eq\n      tag_9\n      jumpi\n      dup1\n      0xa932492f\n      eq\n      tag_10\n      jumpi\n      jump(tag_1)\n    tag_15:\n      dup1\n      0x0a861f2a\n      eq\n      tag_2\n      jumpi\n      dup1\n      0x1cde6226\n      eq\n      tag_3\n      jumpi\n      dup1\n      0x240f3dea\n      eq\n      tag_4\n      jumpi\n      dup1\n      0x29cbab3e\n      eq\n      tag_5\n      jumpi\n      dup1\n      0x6fd0ea92\n      eq\n      tag_6\n      jumpi\n      dup1\n      0x79ed3562\n      eq\n      tag_7\n      jumpi\n    tag_1:\n      0x00\n      dup1\n      revert\n        /* \"contracts/Exchange.sol\":3548:4931  function withdrawLiquidity(uint _liquidityPositionsToBurn) public {... */\n    tag_2:\n      callvalue\n      dup1\n      iszero\n      tag_17\n      jumpi\n      0x00\n      dup1\n      revert\n    tag_17:\n      pop\n      tag_18\n      0x04\n      dup1\n      calldatasize\n      sub\n      dup2\n      add\n      swap1\n      tag_19\n      swap2\n      swap1\n      tag_20\n      jump\t// in\n    tag_19:\n      tag_21\n      jump\t// in\n    tag_18:\n      stop\n        /* \"contracts/Exchange.sol\":174:209  uint public totalLiquidityPositions */\n    tag_3:\n      callvalue\n      dup1\n      iszero\n      tag_22\n      jumpi\n      0x00\n      dup1\n      revert\n    tag_22:\n      pop\n      tag_23\n      tag_24\n      jump\t// in\n    tag_23:\n      mload(0x40)\n      tag_25\n      swap2\n      swap1\n      tag_26\n      jump\t// in\n    tag_25:\n      mload(0x40)\n      dup1\n      swap2\n      sub\n      swap1\n      return\n        /* \"contracts/Exchange.sol\":2150:2828  function estimateEthToProvide(uint _amountERC20Token) public view returns (uint amountEth) {... */\n    tag_4:\n      callvalue\n      dup1\n      iszero\n      tag_27\n      jumpi\n      0x00\n      dup1\n      revert\n    tag_27:\n      pop\n      tag_28\n      0x04\n      dup1\n      calldatasize\n      sub\n      dup2\n      add\n      swap1\n      tag_29\n      swap2\n      swap1\n      tag_20\n      jump\t// in\n    tag_29:\n      tag_30\n      jump\t// in\n    tag_28:\n      mload(0x40)\n      tag_31\n      swap2\n      swap1\n      tag_26\n      jump\t// in\n    tag_31:\n      mload(0x40)\n      dup1\n      swap2\n      sub\n      swap1\n      return\n        /* \"contracts/Exchange.sol\":7153:7926  function swapForERC20Token() public payable returns (uint ERC20TokenToSend) {... */\n    tag_5:\n      tag_32\n      tag_33\n      jump\t// in\n    tag_32:\n      mload(0x40)\n      tag_34\n      swap2\n      swap1\n      tag_26\n      jump\t// in\n    tag_34:\n      mload(0x40)\n      dup1\n      swap2\n      sub\n      swap1\n      return\n        /* \"contracts/Exchange.sol\":254:304  mapping(address => uint) public liquidityPositions */\n    tag_6:\n      callvalue\n      dup1\n      iszero\n      tag_35\n      jumpi\n      0x00\n      dup1\n      revert\n    tag_35:\n      pop\n      tag_36\n      0x04\n      dup1\n      calldatasize\n      sub\n      dup2\n      add\n      swap1\n      tag_37\n      swap2\n      swap1\n      tag_38\n      jump\t// in\n    tag_37:\n      tag_39\n      jump\t// in\n    tag_36:\n      mload(0x40)\n      tag_40\n      swap2\n      swap1\n      tag_26\n      jump\t// in\n    tag_40:\n      mload(0x40)\n      dup1\n      swap2\n      sub\n      swap1\n      return\n        /* \"contracts/Exchange.sol\":7932:8455  function estimateSwapForERC20Token(uint _amountEth) public view returns (uint ERC20TokenToSend) {... */\n    tag_7:\n      callvalue\n      dup1\n      iszero\n      tag_41\n      jumpi\n      0x00\n      dup1\n      revert\n    tag_41:\n      pop\n      tag_42\n      0x04\n      dup1\n      calldatasize\n      sub\n      dup2\n      add\n      swap1\n      tag_43\n      swap2\n      swap1\n      tag_20\n      jump\t// in\n    tag_43:\n      tag_44\n      jump\t// in\n    tag_42:\n      mload(0x40)\n      tag_45\n      swap2\n      swap1\n      tag_26\n      jump\t// in\n    tag_45:\n      mload(0x40)\n      dup1\n      swap2\n      sub\n      swap1\n      return\n        /* \"contracts/Exchange.sol\":145:168  ERC20 public erc20Token */\n    tag_8:\n      callvalue\n      dup1\n      iszero\n      tag_46\n      jumpi\n      0x00\n      dup1\n      revert\n    tag_46:\n      pop\n      tag_47\n      tag_48\n      jump\t// in\n    tag_47:\n      mload(0x40)\n      tag_49\n      swap2\n      swap1\n      tag_50\n      jump\t// in\n    tag_49:\n      mload(0x40)\n      dup1\n      swap2\n      sub\n      swap1\n      return\n        /* \"contracts/Exchange.sol\":6199:7147  function estimateSwapForEth(uint _amountERC20Token) public view returns (uint ethToSend) {... */\n    tag_9:\n      callvalue\n      dup1\n      iszero\n      tag_51\n      jumpi\n      0x00\n      dup1\n      revert\n    tag_51:\n      pop\n      tag_52\n      0x04\n      dup1\n      calldatasize\n      sub\n      dup2\n      add\n      swap1\n      tag_53\n      swap2\n      swap1\n      tag_20\n      jump\t// in\n    tag_53:\n      tag_54\n      jump\t// in\n    tag_52:\n      mload(0x40)\n      tag_55\n      swap2\n      swap1\n      tag_26\n      jump\t// in\n    tag_55:\n      mload(0x40)\n      dup1\n      swap2\n      sub\n      swap1\n      return\n        /* \"contracts/Exchange.sol\":215:228  uint public K */\n    tag_10:\n      callvalue\n      dup1\n      iszero\n      tag_56\n      jumpi\n      0x00\n      dup1\n      revert\n    tag_56:\n      pop\n      tag_57\n      tag_58\n      jump\t// in\n    tag_57:\n      mload(0x40)\n      tag_59\n      swap2\n      swap1\n      tag_26\n      jump\t// in\n    tag_59:\n      mload(0x40)\n      dup1\n      swap2\n      sub\n      swap1\n      return\n        /* \"contracts/Exchange.sol\":4937:6193  function swapForEth(uint _amountERC20Token) public returns (uint ethToSend) {... */\n    tag_11:\n      callvalue\n      dup1\n      iszero\n      tag_60\n      jumpi\n      0x00\n      dup1\n      revert\n    tag_60:\n      pop\n      tag_61\n      0x04\n      dup1\n      calldatasize\n      sub\n      dup2\n      add\n      swap1\n      tag_62\n      swap2\n      swap1\n      tag_20\n      jump\t// in\n    tag_62:\n      tag_63\n      jump\t// in\n    tag_61:\n      mload(0x40)\n      tag_64\n      swap2\n      swap1\n      tag_26\n      jump\t// in\n    tag_64:\n      mload(0x40)\n      dup1\n      swap2\n      sub\n      swap1\n      return\n        /* \"contracts/Exchange.sol\":3424:3542  function getMyLiquidityPositions() external view returns (uint) {... */\n    tag_12:\n      callvalue\n      dup1\n      iszero\n      tag_65\n      jumpi\n      0x00\n      dup1\n      revert\n    tag_65:\n      pop\n      tag_66\n      tag_67\n      jump\t// in\n    tag_66:\n      mload(0x40)\n      tag_68\n      swap2\n      swap1\n      tag_26\n      jump\t// in\n    tag_68:\n      mload(0x40)\n      dup1\n      swap2\n      sub\n      swap1\n      return\n        /* \"contracts/Exchange.sol\":456:2144  function provideLiquidity(uint _amountERC20Token) public payable returns (uint liquidity) {... */\n    tag_13:\n      tag_69\n      0x04\n      dup1\n      calldatasize\n      sub\n      dup2\n      add\n      swap1\n      tag_70\n      swap2\n      swap1\n      tag_20\n      jump\t// in\n    tag_70:\n      tag_71\n      jump\t// in\n    tag_69:\n      mload(0x40)\n      tag_72\n      swap2\n      swap1\n      tag_26\n      jump\t// in\n    tag_72:\n      mload(0x40)\n      dup1\n      swap2\n      sub\n      swap1\n      return\n        /* \"contracts/Exchange.sol\":2834:3417  function estimateERC20TokenToProvide(uint _amountEth) public view returns (uint amountERC20Token) {... */\n    tag_14:\n      callvalue\n      dup1\n      iszero\n      tag_73\n      jumpi\n      0x00\n      dup1\n      revert\n    tag_73:\n      pop\n      tag_74\n      0x04\n      dup1\n      calldatasize\n      sub\n      dup2\n      add\n      swap1\n      tag_75\n      swap2\n      swap1\n      tag_20\n      jump\t// in\n    tag_75:\n      tag_76\n      jump\t// in\n    tag_74:\n      mload(0x40)\n      tag_77\n      swap2\n      swap1\n      tag_26\n      jump\t// in\n    tag_77:\n      mload(0x40)\n      dup1\n      swap2\n      sub\n      swap1\n      return\n        /* \"contracts/Exchange.sol\":3548:4931  function withdrawLiquidity(uint _liquidityPositionsToBurn) public {... */\n    tag_21:\n        /* \"contracts/Exchange.sol\":3660:3661  0 */\n      0x00\n        /* \"contracts/Exchange.sol\":3632:3657  _liquidityPositionsToBurn */\n      dup2\n        /* \"contracts/Exchange.sol\":3632:3661  _liquidityPositionsToBurn > 0 */\n      gt\n        /* \"contracts/Exchange.sol\":3624:3702  require(_liquidityPositionsToBurn > 0, \"Cannot burn zero liquidity positions\") */\n      tag_79\n      jumpi\n      mload(0x40)\n      0x08c379a000000000000000000000000000000000000000000000000000000000\n      dup2\n      mstore\n      0x04\n      add\n      tag_80\n      swap1\n      tag_81\n      jump\t// in\n    tag_80:\n      mload(0x40)\n      dup1\n      swap2\n      sub\n      swap1\n      revert\n    tag_79:\n        /* \"contracts/Exchange.sol\":3754:3779  _liquidityPositionsToBurn */\n      dup1\n        /* \"contracts/Exchange.sol\":3720:3738  liquidityPositions */\n      0x03\n        /* \"contracts/Exchange.sol\":3720:3750  liquidityPositions[msg.sender] */\n      0x00\n        /* \"contracts/Exchange.sol\":3739:3749  msg.sender */\n      caller\n        /* \"contracts/Exchange.sol\":3720:3750  liquidityPositions[msg.sender] */\n      0xffffffffffffffffffffffffffffffffffffffff\n      and\n      0xffffffffffffffffffffffffffffffffffffffff\n      and\n      dup2\n      mstore\n      0x20\n      add\n      swap1\n      dup2\n      mstore\n      0x20\n      add\n      0x00\n      keccak256\n      sload\n        /* \"contracts/Exchange.sol\":3720:3779  liquidityPositions[msg.sender] >= _liquidityPositionsToBurn */\n      lt\n      iszero\n        /* \"contracts/Exchange.sol\":3712:3822  require(liquidityPositions[msg.sender] >= _liquidityPositionsToBurn, \"Not enough liquidity positions to burn\") */\n      tag_82\n      jumpi\n      mload(0x40)\n      0x08c379a000000000000000000000000000000000000000000000000000000000\n      dup2\n      mstore\n      0x04\n      add\n      tag_83\n      swap1\n      tag_84\n      jump\t// in\n    tag_83:\n      mload(0x40)\n      dup1\n      swap2\n      sub\n      swap1\n      revert\n    tag_82:\n        /* \"contracts/Exchange.sol\":3833:3856  uint contractEthBalance */\n      0x00\n        /* \"contracts/Exchange.sol\":3859:3880  address(this).balance */\n      selfbalance\n        /* \"contracts/Exchange.sol\":3833:3880  uint contractEthBalance = address(this).balance */\n      swap1\n      pop\n        /* \"contracts/Exchange.sol\":3890:3920  uint contractERC20TokenBalance */\n      0x00\n        /* \"contracts/Exchange.sol\":3923:3933  erc20Token */\n      dup1\n      0x00\n      swap1\n      sload\n      swap1\n      0x0100\n      exp\n      swap1\n      div\n      0xffffffffffffffffffffffffffffffffffffffff\n      and\n        /* \"contracts/Exchange.sol\":3923:3943  erc20Token.balanceOf */\n      0xffffffffffffffffffffffffffffffffffffffff\n      and\n      0x70a08231\n        /* \"contracts/Exchange.sol\":3952:3956  this */\n      address\n        /* \"contracts/Exchange.sol\":3923:3958  erc20Token.balanceOf(address(this)) */\n      mload(0x40)\n      dup3\n      0xffffffff\n      and\n      0xe0\n      shl\n      dup2\n      mstore\n      0x04\n      add\n      tag_85\n      swap2\n      swap1\n      tag_86\n      jump\t// in\n    tag_85:\n      0x20\n      mload(0x40)\n      dup1\n      dup4\n      sub\n      dup2\n      dup7\n      gas\n      staticcall\n      iszero\n      dup1\n      iszero\n      tag_88\n      jumpi\n      returndatasize\n      0x00\n      dup1\n      returndatacopy\n      revert(0x00, returndatasize)\n    tag_88:\n      pop\n      pop\n      pop\n      pop\n      mload(0x40)\n      returndatasize\n      not(0x1f)\n      0x1f\n      dup3\n      add\n      and\n      dup3\n      add\n      dup1\n      0x40\n      mstore\n      pop\n      dup2\n      add\n      swap1\n      tag_89\n      swap2\n      swap1\n      tag_90\n      jump\t// in\n    tag_89:\n        /* \"contracts/Exchange.sol\":3890:3958  uint contractERC20TokenBalance = erc20Token.balanceOf(address(this)) */\n      swap1\n      pop\n        /* \"contracts/Exchange.sol\":3969:3989  uint amountEthToSend */\n      0x00\n        /* \"contracts/Exchange.sol\":4041:4064  totalLiquidityPositions */\n      sload(0x01)\n        /* \"contracts/Exchange.sol\":4020:4038  contractEthBalance */\n      dup4\n        /* \"contracts/Exchange.sol\":3992:4017  _liquidityPositionsToBurn */\n      dup6\n        /* \"contracts/Exchange.sol\":3992:4038  _liquidityPositionsToBurn * contractEthBalance */\n      tag_91\n      swap2\n      swap1\n      tag_92\n      jump\t// in\n    tag_91:\n        /* \"contracts/Exchange.sol\":3992:4064  _liquidityPositionsToBurn * contractEthBalance / totalLiquidityPositions */\n      tag_93\n      swap2\n      swap1\n      tag_94\n      jump\t// in\n    tag_93:\n        /* \"contracts/Exchange.sol\":3969:4064  uint amountEthToSend = _liquidityPositionsToBurn * contractEthBalance / totalLiquidityPositions */\n      swap1\n      pop\n        /* \"contracts/Exchange.sol\":4074:4096  uint amountERC20ToSend */\n      0x00\n        /* \"contracts/Exchange.sol\":4155:4178  totalLiquidityPositions */\n      sload(0x01)\n        /* \"contracts/Exchange.sol\":4127:4152  contractERC20TokenBalance */\n      dup4\n        /* \"contracts/Exchange.sol\":4099:4124  _liquidityPositionsToBurn */\n      dup7\n        /* \"contracts/Exchange.sol\":4099:4152  _liquidityPositionsToBurn * contractERC20TokenBalance */\n      tag_95\n      swap2\n      swap1\n      tag_92\n      jump\t// in\n    tag_95:\n        /* \"contracts/Exchange.sol\":4099:4178  _liquidityPositionsToBurn * contractERC20TokenBalance / totalLiquidityPositions */\n      tag_96\n      swap2\n      swap1\n      tag_94\n      jump\t// in\n    tag_96:\n        /* \"contracts/Exchange.sol\":4074:4178  uint amountERC20ToSend = _liquidityPositionsToBurn * contractERC20TokenBalance / totalLiquidityPositions */\n      swap1\n      pop\n        /* \"contracts/Exchange.sol\":4223:4248  _liquidityPositionsToBurn */\n      dup5\n        /* \"contracts/Exchange.sol\":4189:4207  liquidityPositions */\n      0x03\n        /* \"contracts/Exchange.sol\":4189:4219  liquidityPositions[msg.sender] */\n      0x00\n        /* \"contracts/Exchange.sol\":4208:4218  msg.sender */\n      caller\n        /* \"contracts/Exchange.sol\":4189:4219  liquidityPositions[msg.sender] */\n      0xffffffffffffffffffffffffffffffffffffffff\n      and\n      0xffffffffffffffffffffffffffffffffffffffff\n      and\n      dup2\n      mstore\n      0x20\n      add\n      swap1\n      dup2\n      mstore\n      0x20\n      add\n      0x00\n      keccak256\n      0x00\n        /* \"contracts/Exchange.sol\":4189:4248  liquidityPositions[msg.sender] -= _liquidityPositionsToBurn */\n      dup3\n      dup3\n      sload\n      tag_97\n      swap2\n      swap1\n      tag_98\n      jump\t// in\n    tag_97:\n      swap3\n      pop\n      pop\n      dup2\n      swap1\n      sstore\n      pop\n        /* \"contracts/Exchange.sol\":4285:4310  _liquidityPositionsToBurn */\n      dup5\n        /* \"contracts/Exchange.sol\":4258:4281  totalLiquidityPositions */\n      0x01\n      0x00\n        /* \"contracts/Exchange.sol\":4258:4310  totalLiquidityPositions -= _liquidityPositionsToBurn */\n      dup3\n      dup3\n      sload\n      tag_99\n      swap2\n      swap1\n      tag_98\n      jump\t// in\n    tag_99:\n      swap3\n      pop\n      pop\n      dup2\n      swap1\n      sstore\n      pop\n        /* \"contracts/Exchange.sol\":4383:4393  msg.sender */\n      caller\n        /* \"contracts/Exchange.sol\":4375:4403  payable(msg.sender).transfer */\n      0xffffffffffffffffffffffffffffffffffffffff\n      and\n        /* \"contracts/Exchange.sol\":4375:4420  payable(msg.sender).transfer(amountEthToSend) */\n      0x08fc\n        /* \"contracts/Exchange.sol\":4404:4419  amountEthToSend */\n      dup4\n        /* \"contracts/Exchange.sol\":4375:4420  payable(msg.sender).transfer(amountEthToSend) */\n      swap1\n      dup2\n      iszero\n      mul\n      swap1\n      mload(0x40)\n      0x00\n      mload(0x40)\n      dup1\n      dup4\n      sub\n      dup2\n      dup6\n      dup9\n      dup9\n      call\n      swap4\n      pop\n      pop\n      pop\n      pop\n      iszero\n      dup1\n      iszero\n      tag_101\n      jumpi\n      returndatasize\n      0x00\n      dup1\n      returndatacopy\n      revert(0x00, returndatasize)\n    tag_101:\n      pop\n        /* \"contracts/Exchange.sol\":4477:4487  erc20Token */\n      0x00\n      dup1\n      sload\n      swap1\n      0x0100\n      exp\n      swap1\n      div\n      0xffffffffffffffffffffffffffffffffffffffff\n      and\n        /* \"contracts/Exchange.sol\":4477:4496  erc20Token.transfer */\n      0xffffffffffffffffffffffffffffffffffffffff\n      and\n      0xa9059cbb\n        /* \"contracts/Exchange.sol\":4497:4507  msg.sender */\n      caller\n        /* \"contracts/Exchange.sol\":4509:4526  amountERC20ToSend */\n      dup4\n        /* \"contracts/Exchange.sol\":4477:4527  erc20Token.transfer(msg.sender, amountERC20ToSend) */\n      mload(0x40)\n      dup4\n      0xffffffff\n      and\n      0xe0\n      shl\n      dup2\n      mstore\n      0x04\n      add\n      tag_102\n      swap3\n      swap2\n      swap1\n      tag_103\n      jump\t// in\n    tag_102:\n      0x20\n      mload(0x40)\n      dup1\n      dup4\n      sub\n      dup2\n      0x00\n      dup8\n      gas\n      call\n      iszero\n      dup1\n      iszero\n      tag_105\n      jumpi\n      returndatasize\n      0x00\n      dup1\n      returndatacopy\n      revert(0x00, returndatasize)\n    tag_105:\n      pop\n      pop\n      pop\n      pop\n      mload(0x40)\n      returndatasize\n      not(0x1f)\n      0x1f\n      dup3\n      add\n      and\n      dup3\n      add\n      dup1\n      0x40\n      mstore\n      pop\n      dup2\n      add\n      swap1\n      tag_106\n      swap2\n      swap1\n      tag_107\n      jump\t// in\n    tag_106:\n        /* \"contracts/Exchange.sol\":4469:4559  require(erc20Token.transfer(msg.sender, amountERC20ToSend), \"Failed to send ERC20 tokens\") */\n      tag_108\n      jumpi\n      mload(0x40)\n      0x08c379a000000000000000000000000000000000000000000000000000000000\n      dup2\n      mstore\n      0x04\n      add\n      tag_109\n      swap1\n      tag_110\n      jump\t// in\n    tag_109:\n      mload(0x40)\n      dup1\n      swap2\n      sub\n      swap1\n      revert\n    tag_108:\n        /* \"contracts/Exchange.sol\":4701:4718  amountERC20ToSend */\n      dup1\n        /* \"contracts/Exchange.sol\":4673:4698  contractERC20TokenBalance */\n      dup4\n        /* \"contracts/Exchange.sol\":4673:4718  contractERC20TokenBalance - amountERC20ToSend */\n      tag_111\n      swap2\n      swap1\n      tag_98\n      jump\t// in\n    tag_111:\n        /* \"contracts/Exchange.sol\":4653:4668  amountEthToSend */\n      dup3\n        /* \"contracts/Exchange.sol\":4632:4650  contractEthBalance */\n      dup6\n        /* \"contracts/Exchange.sol\":4632:4668  contractEthBalance - amountEthToSend */\n      tag_112\n      swap2\n      swap1\n      tag_98\n      jump\t// in\n    tag_112:\n        /* \"contracts/Exchange.sol\":4631:4719  (contractEthBalance - amountEthToSend) * (contractERC20TokenBalance - amountERC20ToSend) */\n      tag_113\n      swap2\n      swap1\n      tag_92\n      jump\t// in\n    tag_113:\n        /* \"contracts/Exchange.sol\":4627:4628  K */\n      0x02\n        /* \"contracts/Exchange.sol\":4627:4719  K = (contractEthBalance - amountEthToSend) * (contractERC20TokenBalance - amountERC20ToSend) */\n      dup2\n      swap1\n      sstore\n      pop\n        /* \"contracts/Exchange.sol\":4844:4924  LiquidityWithdrew(amountERC20ToSend, amountEthToSend, _liquidityPositionsToBurn) */\n      0xb14f451e613015c13a17c78777f1d87fcb448d7330d67299a09b8f2db38aab10\n        /* \"contracts/Exchange.sol\":4862:4879  amountERC20ToSend */\n      dup2\n        /* \"contracts/Exchange.sol\":4881:4896  amountEthToSend */\n      dup4\n        /* \"contracts/Exchange.sol\":4898:4923  _liquidityPositionsToBurn */\n      dup8\n        /* \"contracts/Exchange.sol\":4844:4924  LiquidityWithdrew(amountERC20ToSend, amountEthToSend, _liquidityPositionsToBurn) */\n      mload(0x40)\n      tag_114\n      swap4\n      swap3\n      swap2\n      swap1\n      tag_115\n      jump\t// in\n    tag_114:\n      mload(0x40)\n      dup1\n      swap2\n      sub\n      swap1\n      log1\n        /* \"contracts/Exchange.sol\":3614:4931  {... */\n      pop\n      pop\n      pop\n      pop\n        /* \"contracts/Exchange.sol\":3548:4931  function withdrawLiquidity(uint _liquidityPositionsToBurn) public {... */\n      pop\n      jump\t// out\n        /* \"contracts/Exchange.sol\":174:209  uint public totalLiquidityPositions */\n    tag_24:\n      sload(0x01)\n      dup2\n      jump\t// out\n        /* \"contracts/Exchange.sol\":2150:2828  function estimateEthToProvide(uint _amountERC20Token) public view returns (uint amountEth) {... */\n    tag_30:\n        /* \"contracts/Exchange.sol\":2225:2239  uint amountEth */\n      0x00\n        /* \"contracts/Exchange.sol\":2279:2280  0 */\n      dup1\n        /* \"contracts/Exchange.sol\":2259:2276  _amountERC20Token */\n      dup3\n        /* \"contracts/Exchange.sol\":2259:2280  _amountERC20Token > 0 */\n      gt\n        /* \"contracts/Exchange.sol\":2251:2320  require(_amountERC20Token > 0, \"ERC20 token must be greater than 0.\") */\n      tag_117\n      jumpi\n      mload(0x40)\n      0x08c379a000000000000000000000000000000000000000000000000000000000\n      dup2\n      mstore\n      0x04\n      add\n      tag_118\n      swap1\n      tag_119\n      jump\t// in\n    tag_118:\n      mload(0x40)\n      dup1\n      swap2\n      sub\n      swap1\n      revert\n    tag_117:\n        /* \"contracts/Exchange.sol\":2330:2353  uint contractEthBalance */\n      0x00\n        /* \"contracts/Exchange.sol\":2356:2377  address(this).balance */\n      selfbalance\n        /* \"contracts/Exchange.sol\":2330:2377  uint contractEthBalance = address(this).balance */\n      swap1\n      pop\n        /* \"contracts/Exchange.sol\":2387:2417  uint contractERC20TokenBalance */\n      0x00\n        /* \"contracts/Exchange.sol\":2420:2430  erc20Token */\n      dup1\n      0x00\n      swap1\n      sload\n      swap1\n      0x0100\n      exp\n      swap1\n      div\n      0xffffffffffffffffffffffffffffffffffffffff\n      and\n        /* \"contracts/Exchange.sol\":2420:2440  erc20Token.balanceOf */\n      0xffffffffffffffffffffffffffffffffffffffff\n      and\n      0x70a08231\n        /* \"contracts/Exchange.sol\":2449:2453  this */\n      address\n        /* \"contracts/Exchange.sol\":2420:2455  erc20Token.balanceOf(address(this)) */\n      mload(0x40)\n      dup3\n      0xffffffff\n      and\n      0xe0\n      shl\n      dup2\n      mstore\n      0x04\n      add\n      tag_120\n      swap2\n      swap1\n      tag_86\n      jump\t// in\n    tag_120:\n      0x20\n      mload(0x40)\n      dup1\n      dup4\n      sub\n      dup2\n      dup7\n      gas\n      staticcall\n      iszero\n      dup1\n      iszero\n      tag_122\n      jumpi\n      returndatasize\n      0x00\n      dup1\n      returndatacopy\n      revert(0x00, returndatasize)\n    tag_122:\n      pop\n      pop\n      pop\n      pop\n      mload(0x40)\n      returndatasize\n      not(0x1f)\n      0x1f\n      dup3\n      add\n      and\n      dup3\n      add\n      dup1\n      0x40\n      mstore\n      pop\n      dup2\n      add\n      swap1\n      tag_123\n      swap2\n      swap1\n      tag_90\n      jump\t// in\n    tag_123:\n        /* \"contracts/Exchange.sol\":2387:2455  uint contractERC20TokenBalance = erc20Token.balanceOf(address(this)) */\n      swap1\n      pop\n        /* \"contracts/Exchange.sol\":2592:2593  0 */\n      0x00\n        /* \"contracts/Exchange.sol\":2563:2588  contractERC20TokenBalance */\n      dup2\n        /* \"contracts/Exchange.sol\":2563:2593  contractERC20TokenBalance == 0 */\n      sub\n        /* \"contracts/Exchange.sol\":2559:2628  if (contractERC20TokenBalance == 0) {... */\n      tag_124\n      jumpi\n        /* \"contracts/Exchange.sol\":2616:2617  0 */\n      0x00\n        /* \"contracts/Exchange.sol\":2609:2617  return 0 */\n      swap3\n      pop\n      pop\n      pop\n      jump(tag_116)\n        /* \"contracts/Exchange.sol\":2559:2628  if (contractERC20TokenBalance == 0) {... */\n    tag_124:\n        /* \"contracts/Exchange.sol\":2770:2795  contractERC20TokenBalance */\n      dup1\n        /* \"contracts/Exchange.sol\":2750:2767  _amountERC20Token */\n      dup5\n        /* \"contracts/Exchange.sol\":2729:2747  contractEthBalance */\n      dup4\n        /* \"contracts/Exchange.sol\":2729:2767  contractEthBalance * _amountERC20Token */\n      tag_125\n      swap2\n      swap1\n      tag_92\n      jump\t// in\n    tag_125:\n        /* \"contracts/Exchange.sol\":2729:2795  contractEthBalance * _amountERC20Token / contractERC20TokenBalance */\n      tag_126\n      swap2\n      swap1\n      tag_94\n      jump\t// in\n    tag_126:\n        /* \"contracts/Exchange.sol\":2717:2795  amountEth = contractEthBalance * _amountERC20Token / contractERC20TokenBalance */\n      swap3\n      pop\n        /* \"contracts/Exchange.sol\":2805:2821  return amountEth */\n      pop\n      pop\n        /* \"contracts/Exchange.sol\":2150:2828  function estimateEthToProvide(uint _amountERC20Token) public view returns (uint amountEth) {... */\n    tag_116:\n      swap2\n      swap1\n      pop\n      jump\t// out\n        /* \"contracts/Exchange.sol\":7153:7926  function swapForERC20Token() public payable returns (uint ERC20TokenToSend) {... */\n    tag_33:\n        /* \"contracts/Exchange.sol\":7206:7227  uint ERC20TokenToSend */\n      0x00\n        /* \"contracts/Exchange.sol\":7259:7260  0 */\n      dup1\n        /* \"contracts/Exchange.sol\":7247:7256  msg.value */\n      callvalue\n        /* \"contracts/Exchange.sol\":7247:7260  msg.value > 0 */\n      gt\n        /* \"contracts/Exchange.sol\":7239:7294  require(msg.value > 0, \"Must deposit more than 0 ETH.\") */\n      tag_128\n      jumpi\n      mload(0x40)\n      0x08c379a000000000000000000000000000000000000000000000000000000000\n      dup2\n      mstore\n      0x04\n      add\n      tag_129\n      swap1\n      tag_130\n      jump\t// in\n    tag_129:\n      mload(0x40)\n      dup1\n      swap2\n      sub\n      swap1\n      revert\n    tag_128:\n        /* \"contracts/Exchange.sol\":7304:7333  uint contractEthBalanceBefore */\n      0x00\n        /* \"contracts/Exchange.sol\":7360:7369  msg.value */\n      callvalue\n        /* \"contracts/Exchange.sol\":7336:7357  address(this).balance */\n      selfbalance\n        /* \"contracts/Exchange.sol\":7336:7369  address(this).balance - msg.value */\n      tag_131\n      swap2\n      swap1\n      tag_98\n      jump\t// in\n    tag_131:\n        /* \"contracts/Exchange.sol\":7304:7369  uint contractEthBalanceBefore = address(this).balance - msg.value */\n      swap1\n      pop\n        /* \"contracts/Exchange.sol\":7379:7409  uint contractERC20TokenBalance */\n      0x00\n        /* \"contracts/Exchange.sol\":7412:7422  erc20Token */\n      dup1\n      0x00\n      swap1\n      sload\n      swap1\n      0x0100\n      exp\n      swap1\n      div\n      0xffffffffffffffffffffffffffffffffffffffff\n      and\n        /* \"contracts/Exchange.sol\":7412:7432  erc20Token.balanceOf */\n      0xffffffffffffffffffffffffffffffffffffffff\n      and\n      0x70a08231\n        /* \"contracts/Exchange.sol\":7441:7445  this */\n      address\n        /* \"contracts/Exchange.sol\":7412:7447  erc20Token.balanceOf(address(this)) */\n      mload(0x40)\n      dup3\n      0xffffffff\n      and\n      0xe0\n      shl\n      dup2\n      mstore\n      0x04\n      add\n      tag_132\n      swap2\n      swap1\n      tag_86\n      jump\t// in\n    tag_132:\n      0x20\n      mload(0x40)\n      dup1\n      dup4\n      sub\n      dup2\n      dup7\n      gas\n      staticcall\n      iszero\n      dup1\n      iszero\n      tag_134\n      jumpi\n      returndatasize\n      0x00\n      dup1\n      returndatacopy\n      revert(0x00, returndatasize)\n    tag_134:\n      pop\n      pop\n      pop\n      pop\n      mload(0x40)\n      returndatasize\n      not(0x1f)\n      0x1f\n      dup3\n      add\n      and\n      dup3\n      add\n      dup1\n      0x40\n      mstore\n      pop\n      dup2\n      add\n      swap1\n      tag_135\n      swap2\n      swap1\n      tag_90\n      jump\t// in\n    tag_135:\n        /* \"contracts/Exchange.sol\":7379:7447  uint contractERC20TokenBalance = erc20Token.balanceOf(address(this)) */\n      swap1\n      pop\n        /* \"contracts/Exchange.sol\":7457:7496  uint contractERC20TokenBalanceAfterSwap */\n      0x00\n        /* \"contracts/Exchange.sol\":7531:7540  msg.value */\n      callvalue\n        /* \"contracts/Exchange.sol\":7504:7528  contractEthBalanceBefore */\n      dup4\n        /* \"contracts/Exchange.sol\":7504:7540  contractEthBalanceBefore + msg.value */\n      tag_136\n      swap2\n      swap1\n      tag_137\n      jump\t// in\n    tag_136:\n        /* \"contracts/Exchange.sol\":7499:7500  K */\n      sload(0x02)\n        /* \"contracts/Exchange.sol\":7499:7541  K / (contractEthBalanceBefore + msg.value) */\n      tag_138\n      swap2\n      swap1\n      tag_94\n      jump\t// in\n    tag_138:\n        /* \"contracts/Exchange.sol\":7457:7541  uint contractERC20TokenBalanceAfterSwap = K / (contractEthBalanceBefore + msg.value) */\n      swap1\n      pop\n        /* \"contracts/Exchange.sol\":7598:7632  contractERC20TokenBalanceAfterSwap */\n      dup1\n        /* \"contracts/Exchange.sol\":7570:7595  contractERC20TokenBalance */\n      dup3\n        /* \"contracts/Exchange.sol\":7570:7632  contractERC20TokenBalance - contractERC20TokenBalanceAfterSwap */\n      tag_139\n      swap2\n      swap1\n      tag_98\n      jump\t// in\n    tag_139:\n        /* \"contracts/Exchange.sol\":7551:7632  ERC20TokenToSend = contractERC20TokenBalance - contractERC20TokenBalanceAfterSwap */\n      swap4\n      pop\n        /* \"contracts/Exchange.sol\":7716:7726  erc20Token */\n      0x00\n      dup1\n      sload\n      swap1\n      0x0100\n      exp\n      swap1\n      div\n      0xffffffffffffffffffffffffffffffffffffffff\n      and\n        /* \"contracts/Exchange.sol\":7716:7735  erc20Token.transfer */\n      0xffffffffffffffffffffffffffffffffffffffff\n      and\n      0xa9059cbb\n        /* \"contracts/Exchange.sol\":7736:7746  msg.sender */\n      caller\n        /* \"contracts/Exchange.sol\":7748:7764  ERC20TokenToSend */\n      dup7\n        /* \"contracts/Exchange.sol\":7716:7765  erc20Token.transfer(msg.sender, ERC20TokenToSend) */\n      mload(0x40)\n      dup4\n      0xffffffff\n      and\n      0xe0\n      shl\n      dup2\n      mstore\n      0x04\n      add\n      tag_140\n      swap3\n      swap2\n      swap1\n      tag_103\n      jump\t// in\n    tag_140:\n      0x20\n      mload(0x40)\n      dup1\n      dup4\n      sub\n      dup2\n      0x00\n      dup8\n      gas\n      call\n      iszero\n      dup1\n      iszero\n      tag_142\n      jumpi\n      returndatasize\n      0x00\n      dup1\n      returndatacopy\n      revert(0x00, returndatasize)\n    tag_142:\n      pop\n      pop\n      pop\n      pop\n      mload(0x40)\n      returndatasize\n      not(0x1f)\n      0x1f\n      dup3\n      add\n      and\n      dup3\n      add\n      dup1\n      0x40\n      mstore\n      pop\n      dup2\n      add\n      swap1\n      tag_143\n      swap2\n      swap1\n      tag_107\n      jump\t// in\n    tag_143:\n        /* \"contracts/Exchange.sol\":7708:7797  require(erc20Token.transfer(msg.sender, ERC20TokenToSend), \"Failed to send ERC20 tokens\") */\n      tag_144\n      jumpi\n      mload(0x40)\n      0x08c379a000000000000000000000000000000000000000000000000000000000\n      dup2\n      mstore\n      0x04\n      add\n      tag_145\n      swap1\n      tag_110\n      jump\t// in\n    tag_145:\n      mload(0x40)\n      dup1\n      swap2\n      sub\n      swap1\n      revert\n    tag_144:\n        /* \"contracts/Exchange.sol\":7839:7885  SwapForERC20Token(ERC20TokenToSend, msg.value) */\n      0xcdfc57b3d0cdc24b23cea1f480aabea287321f5bee23ad76c2b52fa7982f5ea5\n        /* \"contracts/Exchange.sol\":7857:7873  ERC20TokenToSend */\n      dup5\n        /* \"contracts/Exchange.sol\":7875:7884  msg.value */\n      callvalue\n        /* \"contracts/Exchange.sol\":7839:7885  SwapForERC20Token(ERC20TokenToSend, msg.value) */\n      mload(0x40)\n      tag_146\n      swap3\n      swap2\n      swap1\n      tag_147\n      jump\t// in\n    tag_146:\n      mload(0x40)\n      dup1\n      swap2\n      sub\n      swap1\n      log1\n        /* \"contracts/Exchange.sol\":7896:7919  return ERC20TokenToSend */\n      pop\n      pop\n      pop\n        /* \"contracts/Exchange.sol\":7153:7926  function swapForERC20Token() public payable returns (uint ERC20TokenToSend) {... */\n      swap1\n      jump\t// out\n        /* \"contracts/Exchange.sol\":254:304  mapping(address => uint) public liquidityPositions */\n    tag_39:\n      mstore(0x20, 0x03)\n      dup1\n      0x00\n      mstore\n      keccak256(0x00, 0x40)\n      0x00\n      swap2\n      pop\n      swap1\n      pop\n      sload\n      dup2\n      jump\t// out\n        /* \"contracts/Exchange.sol\":7932:8455  function estimateSwapForERC20Token(uint _amountEth) public view returns (uint ERC20TokenToSend) {... */\n    tag_44:\n        /* \"contracts/Exchange.sol\":8005:8026  uint ERC20TokenToSend */\n      0x00\n        /* \"contracts/Exchange.sol\":8059:8060  0 */\n      dup1\n        /* \"contracts/Exchange.sol\":8046:8056  _amountEth */\n      dup3\n        /* \"contracts/Exchange.sol\":8046:8060  _amountEth > 0 */\n      gt\n        /* \"contracts/Exchange.sol\":8038:8099  require(_amountEth > 0, \"ETH amount must be greater than 0.\") */\n      tag_149\n      jumpi\n      mload(0x40)\n      0x08c379a000000000000000000000000000000000000000000000000000000000\n      dup2\n      mstore\n      0x04\n      add\n      tag_150\n      swap1\n      tag_151\n      jump\t// in\n    tag_150:\n      mload(0x40)\n      dup1\n      swap2\n      sub\n      swap1\n      revert\n    tag_149:\n        /* \"contracts/Exchange.sol\":8109:8132  uint contractEthBalance */\n      0x00\n        /* \"contracts/Exchange.sol\":8135:8156  address(this).balance */\n      selfbalance\n        /* \"contracts/Exchange.sol\":8109:8156  uint contractEthBalance = address(this).balance */\n      swap1\n      pop\n        /* \"contracts/Exchange.sol\":8166:8196  uint contractERC20TokenBalance */\n      0x00\n        /* \"contracts/Exchange.sol\":8199:8209  erc20Token */\n      dup1\n      0x00\n      swap1\n      sload\n      swap1\n      0x0100\n      exp\n      swap1\n      div\n      0xffffffffffffffffffffffffffffffffffffffff\n      and\n        /* \"contracts/Exchange.sol\":8199:8219  erc20Token.balanceOf */\n      0xffffffffffffffffffffffffffffffffffffffff\n      and\n      0x70a08231\n        /* \"contracts/Exchange.sol\":8228:8232  this */\n      address\n        /* \"contracts/Exchange.sol\":8199:8234  erc20Token.balanceOf(address(this)) */\n      mload(0x40)\n      dup3\n      0xffffffff\n      and\n      0xe0\n      shl\n      dup2\n      mstore\n      0x04\n      add\n      tag_152\n      swap2\n      swap1\n      tag_86\n      jump\t// in\n    tag_152:\n      0x20\n      mload(0x40)\n      dup1\n      dup4\n      sub\n      dup2\n      dup7\n      gas\n      staticcall\n      iszero\n      dup1\n      iszero\n      tag_154\n      jumpi\n      returndatasize\n      0x00\n      dup1\n      returndatacopy\n      revert(0x00, returndatasize)\n    tag_154:\n      pop\n      pop\n      pop\n      pop\n      mload(0x40)\n      returndatasize\n      not(0x1f)\n      0x1f\n      dup3\n      add\n      and\n      dup3\n      add\n      dup1\n      0x40\n      mstore\n      pop\n      dup2\n      add\n      swap1\n      tag_155\n      swap2\n      swap1\n      tag_90\n      jump\t// in\n    tag_155:\n        /* \"contracts/Exchange.sol\":8166:8234  uint contractERC20TokenBalance = erc20Token.balanceOf(address(this)) */\n      swap1\n      pop\n        /* \"contracts/Exchange.sol\":8244:8283  uint contractERC20TokenBalanceAfterSwap */\n      0x00\n        /* \"contracts/Exchange.sol\":8312:8322  _amountEth */\n      dup5\n        /* \"contracts/Exchange.sol\":8291:8309  contractEthBalance */\n      dup4\n        /* \"contracts/Exchange.sol\":8291:8322  contractEthBalance + _amountEth */\n      tag_156\n      swap2\n      swap1\n      tag_137\n      jump\t// in\n    tag_156:\n        /* \"contracts/Exchange.sol\":8286:8287  K */\n      sload(0x02)\n        /* \"contracts/Exchange.sol\":8286:8323  K / (contractEthBalance + _amountEth) */\n      tag_157\n      swap2\n      swap1\n      tag_94\n      jump\t// in\n    tag_157:\n        /* \"contracts/Exchange.sol\":8244:8323  uint contractERC20TokenBalanceAfterSwap = K / (contractEthBalance + _amountEth) */\n      swap1\n      pop\n        /* \"contracts/Exchange.sol\":8380:8414  contractERC20TokenBalanceAfterSwap */\n      dup1\n        /* \"contracts/Exchange.sol\":8352:8377  contractERC20TokenBalance */\n      dup3\n        /* \"contracts/Exchange.sol\":8352:8414  contractERC20TokenBalance - contractERC20TokenBalanceAfterSwap */\n      tag_158\n      swap2\n      swap1\n      tag_98\n      jump\t// in\n    tag_158:\n        /* \"contracts/Exchange.sol\":8333:8414  ERC20TokenToSend = contractERC20TokenBalance - contractERC20TokenBalanceAfterSwap */\n      swap4\n      pop\n        /* \"contracts/Exchange.sol\":8425:8448  return ERC20TokenToSend */\n      pop\n      pop\n      pop\n        /* \"contracts/Exchange.sol\":7932:8455  function estimateSwapForERC20Token(uint _amountEth) public view returns (uint ERC20TokenToSend) {... */\n      swap2\n      swap1\n      pop\n      jump\t// out\n        /* \"contracts/Exchange.sol\":145:168  ERC20 public erc20Token */\n    tag_48:\n      0x00\n      dup1\n      sload\n      swap1\n      0x0100\n      exp\n      swap1\n      div\n      0xffffffffffffffffffffffffffffffffffffffff\n      and\n      dup2\n      jump\t// out\n        /* \"contracts/Exchange.sol\":6199:7147  function estimateSwapForEth(uint _amountERC20Token) public view returns (uint ethToSend) {... */\n    tag_54:\n        /* \"contracts/Exchange.sol\":6272:6286  uint ethToSend */\n      0x00\n        /* \"contracts/Exchange.sol\":6326:6327  0 */\n      dup1\n        /* \"contracts/Exchange.sol\":6306:6323  _amountERC20Token */\n      dup3\n        /* \"contracts/Exchange.sol\":6306:6327  _amountERC20Token > 0 */\n      gt\n        /* \"contracts/Exchange.sol\":6298:6367  require(_amountERC20Token > 0, \"Must input more than 0 ERC20 Token.\") */\n      tag_160\n      jumpi\n      mload(0x40)\n      0x08c379a000000000000000000000000000000000000000000000000000000000\n      dup2\n      mstore\n      0x04\n      add\n      tag_161\n      swap1\n      tag_162\n      jump\t// in\n    tag_161:\n      mload(0x40)\n      dup1\n      swap2\n      sub\n      swap1\n      revert\n    tag_160:\n        /* \"contracts/Exchange.sol\":6386:6409  uint contractEthBalance */\n      0x00\n        /* \"contracts/Exchange.sol\":6412:6433  address(this).balance */\n      selfbalance\n        /* \"contracts/Exchange.sol\":6386:6433  uint contractEthBalance = address(this).balance */\n      swap1\n      pop\n        /* \"contracts/Exchange.sol\":6443:6473  uint contractERC20TokenBalance */\n      0x00\n        /* \"contracts/Exchange.sol\":6476:6486  erc20Token */\n      dup1\n      0x00\n      swap1\n      sload\n      swap1\n      0x0100\n      exp\n      swap1\n      div\n      0xffffffffffffffffffffffffffffffffffffffff\n      and\n        /* \"contracts/Exchange.sol\":6476:6496  erc20Token.balanceOf */\n      0xffffffffffffffffffffffffffffffffffffffff\n      and\n      0x70a08231\n        /* \"contracts/Exchange.sol\":6505:6509  this */\n      address\n        /* \"contracts/Exchange.sol\":6476:6511  erc20Token.balanceOf(address(this)) */\n      mload(0x40)\n      dup3\n      0xffffffff\n      and\n      0xe0\n      shl\n      dup2\n      mstore\n      0x04\n      add\n      tag_163\n      swap2\n      swap1\n      tag_86\n      jump\t// in\n    tag_163:\n      0x20\n      mload(0x40)\n      dup1\n      dup4\n      sub\n      dup2\n      dup7\n      gas\n      staticcall\n      iszero\n      dup1\n      iszero\n      tag_165\n      jumpi\n      returndatasize\n      0x00\n      dup1\n      returndatacopy\n      revert(0x00, returndatasize)\n    tag_165:\n      pop\n      pop\n      pop\n      pop\n      mload(0x40)\n      returndatasize\n      not(0x1f)\n      0x1f\n      dup3\n      add\n      and\n      dup3\n      add\n      dup1\n      0x40\n      mstore\n      pop\n      dup2\n      add\n      swap1\n      tag_166\n      swap2\n      swap1\n      tag_90\n      jump\t// in\n    tag_166:\n        /* \"contracts/Exchange.sol\":6443:6511  uint contractERC20TokenBalance = erc20Token.balanceOf(address(this)) */\n      swap1\n      pop\n        /* \"contracts/Exchange.sol\":6557:6558  0 */\n      0x00\n        /* \"contracts/Exchange.sol\":6529:6554  contractERC20TokenBalance */\n      dup2\n        /* \"contracts/Exchange.sol\":6529:6558  contractERC20TokenBalance > 0 */\n      gt\n        /* \"contracts/Exchange.sol\":6521:6586  require(contractERC20TokenBalance > 0, \"Insufficient liquidity.\") */\n      tag_167\n      jumpi\n      mload(0x40)\n      0x08c379a000000000000000000000000000000000000000000000000000000000\n      dup2\n      mstore\n      0x04\n      add\n      tag_168\n      swap1\n      tag_169\n      jump\t// in\n    tag_168:\n      mload(0x40)\n      dup1\n      swap2\n      sub\n      swap1\n      revert\n    tag_167:\n        /* \"contracts/Exchange.sol\":6681:6720  uint contractERC20TokenBalanceAfterSwap */\n      0x00\n        /* \"contracts/Exchange.sol\":6751:6768  _amountERC20Token */\n      dup5\n        /* \"contracts/Exchange.sol\":6723:6748  contractERC20TokenBalance */\n      dup3\n        /* \"contracts/Exchange.sol\":6723:6768  contractERC20TokenBalance + _amountERC20Token */\n      tag_170\n      swap2\n      swap1\n      tag_137\n      jump\t// in\n    tag_170:\n        /* \"contracts/Exchange.sol\":6681:6768  uint contractERC20TokenBalanceAfterSwap = contractERC20TokenBalance + _amountERC20Token */\n      swap1\n      pop\n        /* \"contracts/Exchange.sol\":6778:6810  uint contractEthBalanceAfterSwap */\n      0x00\n        /* \"contracts/Exchange.sol\":6817:6851  contractERC20TokenBalanceAfterSwap */\n      dup2\n        /* \"contracts/Exchange.sol\":6813:6814  K */\n      sload(0x02)\n        /* \"contracts/Exchange.sol\":6813:6851  K / contractERC20TokenBalanceAfterSwap */\n      tag_171\n      swap2\n      swap1\n      tag_94\n      jump\t// in\n    tag_171:\n        /* \"contracts/Exchange.sol\":6778:6851  uint contractEthBalanceAfterSwap = K / contractERC20TokenBalanceAfterSwap */\n      swap1\n      pop\n        /* \"contracts/Exchange.sol\":6894:6921  contractEthBalanceAfterSwap */\n      dup1\n        /* \"contracts/Exchange.sol\":6873:6891  contractEthBalance */\n      dup5\n        /* \"contracts/Exchange.sol\":6873:6921  contractEthBalance - contractEthBalanceAfterSwap */\n      tag_172\n      swap2\n      swap1\n      tag_98\n      jump\t// in\n    tag_172:\n        /* \"contracts/Exchange.sol\":6861:6921  ethToSend = contractEthBalance - contractEthBalanceAfterSwap */\n      swap5\n      pop\n        /* \"contracts/Exchange.sol\":7051:7052  0 */\n      0x00\n        /* \"contracts/Exchange.sol\":7039:7048  ethToSend */\n      dup6\n        /* \"contracts/Exchange.sol\":7039:7052  ethToSend > 0 */\n      gt\n        /* \"contracts/Exchange.sol\":7039:7087  ethToSend > 0 && ethToSend <= contractEthBalance */\n      dup1\n      iszero\n      tag_173\n      jumpi\n      pop\n        /* \"contracts/Exchange.sol\":7069:7087  contractEthBalance */\n      dup4\n        /* \"contracts/Exchange.sol\":7056:7065  ethToSend */\n      dup6\n        /* \"contracts/Exchange.sol\":7056:7087  ethToSend <= contractEthBalance */\n      gt\n      iszero\n        /* \"contracts/Exchange.sol\":7039:7087  ethToSend > 0 && ethToSend <= contractEthBalance */\n    tag_173:\n        /* \"contracts/Exchange.sol\":7031:7113  require(ethToSend > 0 && ethToSend <= contractEthBalance, \"Invalid swap estimate\") */\n      tag_174\n      jumpi\n      mload(0x40)\n      0x08c379a000000000000000000000000000000000000000000000000000000000\n      dup2\n      mstore\n      0x04\n      add\n      tag_175\n      swap1\n      tag_176\n      jump\t// in\n    tag_175:\n      mload(0x40)\n      dup1\n      swap2\n      sub\n      swap1\n      revert\n    tag_174:\n        /* \"contracts/Exchange.sol\":7124:7140  return ethToSend */\n      pop\n      pop\n      pop\n      pop\n        /* \"contracts/Exchange.sol\":6199:7147  function estimateSwapForEth(uint _amountERC20Token) public view returns (uint ethToSend) {... */\n      swap2\n      swap1\n      pop\n      jump\t// out\n        /* \"contracts/Exchange.sol\":215:228  uint public K */\n    tag_58:\n      sload(0x02)\n      dup2\n      jump\t// out\n        /* \"contracts/Exchange.sol\":4937:6193  function swapForEth(uint _amountERC20Token) public returns (uint ethToSend) {... */\n    tag_63:\n        /* \"contracts/Exchange.sol\":4997:5011  uint ethToSend */\n      0x00\n        /* \"contracts/Exchange.sol\":5023:5046  uint contractEthBalance */\n      dup1\n        /* \"contracts/Exchange.sol\":5049:5070  address(this).balance */\n      selfbalance\n        /* \"contracts/Exchange.sol\":5023:5070  uint contractEthBalance = address(this).balance */\n      swap1\n      pop\n        /* \"contracts/Exchange.sol\":5080:5110  uint contractERC20TokenBalance */\n      0x00\n        /* \"contracts/Exchange.sol\":5113:5123  erc20Token */\n      dup1\n      0x00\n      swap1\n      sload\n      swap1\n      0x0100\n      exp\n      swap1\n      div\n      0xffffffffffffffffffffffffffffffffffffffff\n      and\n        /* \"contracts/Exchange.sol\":5113:5133  erc20Token.balanceOf */\n      0xffffffffffffffffffffffffffffffffffffffff\n      and\n      0x70a08231\n        /* \"contracts/Exchange.sol\":5142:5146  this */\n      address\n        /* \"contracts/Exchange.sol\":5113:5148  erc20Token.balanceOf(address(this)) */\n      mload(0x40)\n      dup3\n      0xffffffff\n      and\n      0xe0\n      shl\n      dup2\n      mstore\n      0x04\n      add\n      tag_178\n      swap2\n      swap1\n      tag_86\n      jump\t// in\n    tag_178:\n      0x20\n      mload(0x40)\n      dup1\n      dup4\n      sub\n      dup2\n      dup7\n      gas\n      staticcall\n      iszero\n      dup1\n      iszero\n      tag_180\n      jumpi\n      returndatasize\n      0x00\n      dup1\n      returndatacopy\n      revert(0x00, returndatasize)\n    tag_180:\n      pop\n      pop\n      pop\n      pop\n      mload(0x40)\n      returndatasize\n      not(0x1f)\n      0x1f\n      dup3\n      add\n      and\n      dup3\n      add\n      dup1\n      0x40\n      mstore\n      pop\n      dup2\n      add\n      swap1\n      tag_181\n      swap2\n      swap1\n      tag_90\n      jump\t// in\n    tag_181:\n        /* \"contracts/Exchange.sol\":5080:5148  uint contractERC20TokenBalance = erc20Token.balanceOf(address(this)) */\n      swap1\n      pop\n        /* \"contracts/Exchange.sol\":5187:5188  0 */\n      0x00\n        /* \"contracts/Exchange.sol\":5167:5184  _amountERC20Token */\n      dup5\n        /* \"contracts/Exchange.sol\":5167:5188  _amountERC20Token > 0 */\n      gt\n        /* \"contracts/Exchange.sol\":5159:5228  require(_amountERC20Token > 0, \"Must input more than 0 ERC20 Token.\") */\n      tag_182\n      jumpi\n      mload(0x40)\n      0x08c379a000000000000000000000000000000000000000000000000000000000\n      dup2\n      mstore\n      0x04\n      add\n      tag_183\n      swap1\n      tag_162\n      jump\t// in\n    tag_183:\n      mload(0x40)\n      dup1\n      swap2\n      sub\n      swap1\n      revert\n    tag_182:\n        /* \"contracts/Exchange.sol\":5274:5275  0 */\n      0x00\n        /* \"contracts/Exchange.sol\":5246:5271  contractERC20TokenBalance */\n      dup2\n        /* \"contracts/Exchange.sol\":5246:5275  contractERC20TokenBalance > 0 */\n      gt\n        /* \"contracts/Exchange.sol\":5238:5303  require(contractERC20TokenBalance > 0, \"Insufficient liquidity.\") */\n      tag_184\n      jumpi\n      mload(0x40)\n      0x08c379a000000000000000000000000000000000000000000000000000000000\n      dup2\n      mstore\n      0x04\n      add\n      tag_185\n      swap1\n      tag_169\n      jump\t// in\n    tag_185:\n      mload(0x40)\n      dup1\n      swap2\n      sub\n      swap1\n      revert\n    tag_184:\n        /* \"contracts/Exchange.sol\":5393:5403  erc20Token */\n      0x00\n      dup1\n      sload\n      swap1\n      0x0100\n      exp\n      swap1\n      div\n      0xffffffffffffffffffffffffffffffffffffffff\n      and\n        /* \"contracts/Exchange.sol\":5393:5416  erc20Token.transferFrom */\n      0xffffffffffffffffffffffffffffffffffffffff\n      and\n      0x23b872dd\n        /* \"contracts/Exchange.sol\":5417:5427  msg.sender */\n      caller\n        /* \"contracts/Exchange.sol\":5437:5441  this */\n      address\n        /* \"contracts/Exchange.sol\":5444:5461  _amountERC20Token */\n      dup8\n        /* \"contracts/Exchange.sol\":5393:5462  erc20Token.transferFrom(msg.sender, address(this), _amountERC20Token) */\n      mload(0x40)\n      dup5\n      0xffffffff\n      and\n      0xe0\n      shl\n      dup2\n      mstore\n      0x04\n      add\n      tag_186\n      swap4\n      swap3\n      swap2\n      swap1\n      tag_187\n      jump\t// in\n    tag_186:\n      0x20\n      mload(0x40)\n      dup1\n      dup4\n      sub\n      dup2\n      0x00\n      dup8\n      gas\n      call\n      iszero\n      dup1\n      iszero\n      tag_189\n      jumpi\n      returndatasize\n      0x00\n      dup1\n      returndatacopy\n      revert(0x00, returndatasize)\n    tag_189:\n      pop\n      pop\n      pop\n      pop\n      mload(0x40)\n      returndatasize\n      not(0x1f)\n      0x1f\n      dup3\n      add\n      and\n      dup3\n      add\n      dup1\n      0x40\n      mstore\n      pop\n      dup2\n      add\n      swap1\n      tag_190\n      swap2\n      swap1\n      tag_107\n      jump\t// in\n    tag_190:\n        /* \"contracts/Exchange.sol\":5385:5488  require(erc20Token.transferFrom(msg.sender, address(this), _amountERC20Token), \"ERC20 transfer failed\") */\n      tag_191\n      jumpi\n      mload(0x40)\n      0x08c379a000000000000000000000000000000000000000000000000000000000\n      dup2\n      mstore\n      0x04\n      add\n      tag_192\n      swap1\n      tag_193\n      jump\t// in\n    tag_192:\n      mload(0x40)\n      dup1\n      swap2\n      sub\n      swap1\n      revert\n    tag_191:\n        /* \"contracts/Exchange.sol\":5583:5622  uint contractERC20TokenBalanceAfterSwap */\n      0x00\n        /* \"contracts/Exchange.sol\":5653:5670  _amountERC20Token */\n      dup5\n        /* \"contracts/Exchange.sol\":5625:5650  contractERC20TokenBalance */\n      dup3\n        /* \"contracts/Exchange.sol\":5625:5670  contractERC20TokenBalance + _amountERC20Token */\n      tag_194\n      swap2\n      swap1\n      tag_137\n      jump\t// in\n    tag_194:\n        /* \"contracts/Exchange.sol\":5583:5670  uint contractERC20TokenBalanceAfterSwap = contractERC20TokenBalance + _amountERC20Token */\n      swap1\n      pop\n        /* \"contracts/Exchange.sol\":5680:5712  uint contractEthBalanceAfterSwap */\n      0x00\n        /* \"contracts/Exchange.sol\":5719:5753  contractERC20TokenBalanceAfterSwap */\n      dup2\n        /* \"contracts/Exchange.sol\":5715:5716  K */\n      sload(0x02)\n        /* \"contracts/Exchange.sol\":5715:5753  K / contractERC20TokenBalanceAfterSwap */\n      tag_195\n      swap2\n      swap1\n      tag_94\n      jump\t// in\n    tag_195:\n        /* \"contracts/Exchange.sol\":5680:5753  uint contractEthBalanceAfterSwap = K / contractERC20TokenBalanceAfterSwap */\n      swap1\n      pop\n        /* \"contracts/Exchange.sol\":5796:5823  contractEthBalanceAfterSwap */\n      dup1\n        /* \"contracts/Exchange.sol\":5775:5793  contractEthBalance */\n      dup5\n        /* \"contracts/Exchange.sol\":5775:5823  contractEthBalance - contractEthBalanceAfterSwap */\n      tag_196\n      swap2\n      swap1\n      tag_98\n      jump\t// in\n    tag_196:\n        /* \"contracts/Exchange.sol\":5763:5823  ethToSend = contractEthBalance - contractEthBalanceAfterSwap */\n      swap5\n      pop\n        /* \"contracts/Exchange.sol\":5934:5935  0 */\n      0x00\n        /* \"contracts/Exchange.sol\":5922:5931  ethToSend */\n      dup6\n        /* \"contracts/Exchange.sol\":5922:5935  ethToSend > 0 */\n      gt\n        /* \"contracts/Exchange.sol\":5922:5970  ethToSend > 0 && ethToSend <= contractEthBalance */\n      dup1\n      iszero\n      tag_197\n      jumpi\n      pop\n        /* \"contracts/Exchange.sol\":5952:5970  contractEthBalance */\n      dup4\n        /* \"contracts/Exchange.sol\":5939:5948  ethToSend */\n      dup6\n        /* \"contracts/Exchange.sol\":5939:5970  ethToSend <= contractEthBalance */\n      gt\n      iszero\n        /* \"contracts/Exchange.sol\":5922:5970  ethToSend > 0 && ethToSend <= contractEthBalance */\n    tag_197:\n        /* \"contracts/Exchange.sol\":5914:5995  require(ethToSend > 0 && ethToSend <= contractEthBalance, \"Invalid swap request\") */\n      tag_198\n      jumpi\n      mload(0x40)\n      0x08c379a000000000000000000000000000000000000000000000000000000000\n      dup2\n      mstore\n      0x04\n      add\n      tag_199\n      swap1\n      tag_200\n      jump\t// in\n    tag_199:\n      mload(0x40)\n      dup1\n      swap2\n      sub\n      swap1\n      revert\n    tag_198:\n        /* \"contracts/Exchange.sol\":6046:6056  msg.sender */\n      caller\n        /* \"contracts/Exchange.sol\":6038:6066  payable(msg.sender).transfer */\n      0xffffffffffffffffffffffffffffffffffffffff\n      and\n        /* \"contracts/Exchange.sol\":6038:6077  payable(msg.sender).transfer(ethToSend) */\n      0x08fc\n        /* \"contracts/Exchange.sol\":6067:6076  ethToSend */\n      dup7\n        /* \"contracts/Exchange.sol\":6038:6077  payable(msg.sender).transfer(ethToSend) */\n      swap1\n      dup2\n      iszero\n      mul\n      swap1\n      mload(0x40)\n      0x00\n      mload(0x40)\n      dup1\n      dup4\n      sub\n      dup2\n      dup6\n      dup9\n      dup9\n      call\n      swap4\n      pop\n      pop\n      pop\n      pop\n      iszero\n      dup1\n      iszero\n      tag_202\n      jumpi\n      returndatasize\n      0x00\n      dup1\n      returndatacopy\n      revert(0x00, returndatasize)\n    tag_202:\n      pop\n        /* \"contracts/Exchange.sol\":6119:6159  SwapForEth(_amountERC20Token, ethToSend) */\n      0x3297a389bb586920e62a196af529d5f42651b17a1013d6bfe77f22372a0b2112\n        /* \"contracts/Exchange.sol\":6130:6147  _amountERC20Token */\n      dup7\n        /* \"contracts/Exchange.sol\":6149:6158  ethToSend */\n      dup7\n        /* \"contracts/Exchange.sol\":6119:6159  SwapForEth(_amountERC20Token, ethToSend) */\n      mload(0x40)\n      tag_203\n      swap3\n      swap2\n      swap1\n      tag_147\n      jump\t// in\n    tag_203:\n      mload(0x40)\n      dup1\n      swap2\n      sub\n      swap1\n      log1\n        /* \"contracts/Exchange.sol\":6170:6186  return ethToSend */\n      pop\n      pop\n      pop\n      pop\n        /* \"contracts/Exchange.sol\":4937:6193  function swapForEth(uint _amountERC20Token) public returns (uint ethToSend) {... */\n      swap2\n      swap1\n      pop\n      jump\t// out\n        /* \"contracts/Exchange.sol\":3424:3542  function getMyLiquidityPositions() external view returns (uint) {... */\n    tag_67:\n        /* \"contracts/Exchange.sol\":3482:3486  uint */\n      0x00\n        /* \"contracts/Exchange.sol\":3505:3523  liquidityPositions */\n      0x03\n        /* \"contracts/Exchange.sol\":3505:3535  liquidityPositions[msg.sender] */\n      0x00\n        /* \"contracts/Exchange.sol\":3524:3534  msg.sender */\n      caller\n        /* \"contracts/Exchange.sol\":3505:3535  liquidityPositions[msg.sender] */\n      0xffffffffffffffffffffffffffffffffffffffff\n      and\n      0xffffffffffffffffffffffffffffffffffffffff\n      and\n      dup2\n      mstore\n      0x20\n      add\n      swap1\n      dup2\n      mstore\n      0x20\n      add\n      0x00\n      keccak256\n      sload\n        /* \"contracts/Exchange.sol\":3498:3535  return liquidityPositions[msg.sender] */\n      swap1\n      pop\n        /* \"contracts/Exchange.sol\":3424:3542  function getMyLiquidityPositions() external view returns (uint) {... */\n      swap1\n      jump\t// out\n        /* \"contracts/Exchange.sol\":456:2144  function provideLiquidity(uint _amountERC20Token) public payable returns (uint liquidity) {... */\n    tag_71:\n        /* \"contracts/Exchange.sol\":530:544  uint liquidity */\n      0x00\n        /* \"contracts/Exchange.sol\":576:577  0 */\n      dup1\n        /* \"contracts/Exchange.sol\":564:573  msg.value */\n      callvalue\n        /* \"contracts/Exchange.sol\":564:577  msg.value > 0 */\n      gt\n        /* \"contracts/Exchange.sol\":556:609  require(msg.value > 0, \"Must input more than 0 ETH.\") */\n      tag_206\n      jumpi\n      mload(0x40)\n      0x08c379a000000000000000000000000000000000000000000000000000000000\n      dup2\n      mstore\n      0x04\n      add\n      tag_207\n      swap1\n      tag_208\n      jump\t// in\n    tag_207:\n      mload(0x40)\n      dup1\n      swap2\n      sub\n      swap1\n      revert\n    tag_206:\n        /* \"contracts/Exchange.sol\":647:648  0 */\n      0x00\n        /* \"contracts/Exchange.sol\":627:644  _amountERC20Token */\n      dup3\n        /* \"contracts/Exchange.sol\":627:648  _amountERC20Token > 0 */\n      gt\n        /* \"contracts/Exchange.sol\":619:688  require(_amountERC20Token > 0, \"Must input more than 0 ERC20 Token.\") */\n      tag_209\n      jumpi\n      mload(0x40)\n      0x08c379a000000000000000000000000000000000000000000000000000000000\n      dup2\n      mstore\n      0x04\n      add\n      tag_210\n      swap1\n      tag_162\n      jump\t// in\n    tag_210:\n      mload(0x40)\n      dup1\n      swap2\n      sub\n      swap1\n      revert\n    tag_209:\n        /* \"contracts/Exchange.sol\":698:719  uint ethBalanceBefore */\n      0x00\n        /* \"contracts/Exchange.sol\":746:755  msg.value */\n      callvalue\n        /* \"contracts/Exchange.sol\":722:743  address(this).balance */\n      selfbalance\n        /* \"contracts/Exchange.sol\":722:755  address(this).balance - msg.value */\n      tag_211\n      swap2\n      swap1\n      tag_98\n      jump\t// in\n    tag_211:\n        /* \"contracts/Exchange.sol\":698:755  uint ethBalanceBefore = address(this).balance - msg.value */\n      swap1\n      pop\n        /* \"contracts/Exchange.sol\":765:788  uint erc20BalanceBefore */\n      0x00\n        /* \"contracts/Exchange.sol\":791:801  erc20Token */\n      dup1\n      0x00\n      swap1\n      sload\n      swap1\n      0x0100\n      exp\n      swap1\n      div\n      0xffffffffffffffffffffffffffffffffffffffff\n      and\n        /* \"contracts/Exchange.sol\":791:811  erc20Token.balanceOf */\n      0xffffffffffffffffffffffffffffffffffffffff\n      and\n      0x70a08231\n        /* \"contracts/Exchange.sol\":820:824  this */\n      address\n        /* \"contracts/Exchange.sol\":791:826  erc20Token.balanceOf(address(this)) */\n      mload(0x40)\n      dup3\n      0xffffffff\n      and\n      0xe0\n      shl\n      dup2\n      mstore\n      0x04\n      add\n      tag_212\n      swap2\n      swap1\n      tag_86\n      jump\t// in\n    tag_212:\n      0x20\n      mload(0x40)\n      dup1\n      dup4\n      sub\n      dup2\n      dup7\n      gas\n      staticcall\n      iszero\n      dup1\n      iszero\n      tag_214\n      jumpi\n      returndatasize\n      0x00\n      dup1\n      returndatacopy\n      revert(0x00, returndatasize)\n    tag_214:\n      pop\n      pop\n      pop\n      pop\n      mload(0x40)\n      returndatasize\n      not(0x1f)\n      0x1f\n      dup3\n      add\n      and\n      dup3\n      add\n      dup1\n      0x40\n      mstore\n      pop\n      dup2\n      add\n      swap1\n      tag_215\n      swap2\n      swap1\n      tag_90\n      jump\t// in\n    tag_215:\n        /* \"contracts/Exchange.sol\":765:826  uint erc20BalanceBefore = erc20Token.balanceOf(address(this)) */\n      swap1\n      pop\n        /* \"contracts/Exchange.sol\":900:909  bool sent */\n      0x00\n        /* \"contracts/Exchange.sol\":912:922  erc20Token */\n      dup1\n      0x00\n      swap1\n      sload\n      swap1\n      0x0100\n      exp\n      swap1\n      div\n      0xffffffffffffffffffffffffffffffffffffffff\n      and\n        /* \"contracts/Exchange.sol\":912:935  erc20Token.transferFrom */\n      0xffffffffffffffffffffffffffffffffffffffff\n      and\n      0x23b872dd\n        /* \"contracts/Exchange.sol\":936:946  msg.sender */\n      caller\n        /* \"contracts/Exchange.sol\":956:960  this */\n      address\n        /* \"contracts/Exchange.sol\":963:980  _amountERC20Token */\n      dup9\n        /* \"contracts/Exchange.sol\":912:981  erc20Token.transferFrom(msg.sender, address(this), _amountERC20Token) */\n      mload(0x40)\n      dup5\n      0xffffffff\n      and\n      0xe0\n      shl\n      dup2\n      mstore\n      0x04\n      add\n      tag_216\n      swap4\n      swap3\n      swap2\n      swap1\n      tag_187\n      jump\t// in\n    tag_216:\n      0x20\n      mload(0x40)\n      dup1\n      dup4\n      sub\n      dup2\n      0x00\n      dup8\n      gas\n      call\n      iszero\n      dup1\n      iszero\n      tag_218\n      jumpi\n      returndatasize\n      0x00\n      dup1\n      returndatacopy\n      revert(0x00, returndatasize)\n    tag_218:\n      pop\n      pop\n      pop\n      pop\n      mload(0x40)\n      returndatasize\n      not(0x1f)\n      0x1f\n      dup3\n      add\n      and\n      dup3\n      add\n      dup1\n      0x40\n      mstore\n      pop\n      dup2\n      add\n      swap1\n      tag_219\n      swap2\n      swap1\n      tag_107\n      jump\t// in\n    tag_219:\n        /* \"contracts/Exchange.sol\":900:981  bool sent = erc20Token.transferFrom(msg.sender, address(this), _amountERC20Token) */\n      swap1\n      pop\n        /* \"contracts/Exchange.sol\":999:1003  sent */\n      dup1\n        /* \"contracts/Exchange.sol\":991:1029  require(sent, \"ERC20 transfer failed\") */\n      tag_220\n      jumpi\n      mload(0x40)\n      0x08c379a000000000000000000000000000000000000000000000000000000000\n      dup2\n      mstore\n      0x04\n      add\n      tag_221\n      swap1\n      tag_193\n      jump\t// in\n    tag_221:\n      mload(0x40)\n      dup1\n      swap2\n      sub\n      swap1\n      revert\n    tag_220:\n        /* \"contracts/Exchange.sol\":1071:1072  0 */\n      0x00\n        /* \"contracts/Exchange.sol\":1044:1067  totalLiquidityPositions */\n      sload(0x01)\n        /* \"contracts/Exchange.sol\":1044:1072  totalLiquidityPositions == 0 */\n      sub\n        /* \"contracts/Exchange.sol\":1040:1731  if (totalLiquidityPositions == 0) {... */\n      tag_222\n      jumpi\n        /* \"contracts/Exchange.sol\":1100:1103  100 */\n      0x64\n        /* \"contracts/Exchange.sol\":1088:1103  liquidity = 100 */\n      swap4\n      pop\n        /* \"contracts/Exchange.sol\":1040:1731  if (totalLiquidityPositions == 0) {... */\n      jump(tag_223)\n    tag_222:\n        /* \"contracts/Exchange.sol\":1184:1199  uint ethReserve */\n      0x00\n        /* \"contracts/Exchange.sol\":1202:1218  ethBalanceBefore */\n      dup4\n        /* \"contracts/Exchange.sol\":1184:1218  uint ethReserve = ethBalanceBefore */\n      swap1\n      pop\n        /* \"contracts/Exchange.sol\":1232:1249  uint tokenReserve */\n      0x00\n        /* \"contracts/Exchange.sol\":1252:1270  erc20BalanceBefore */\n      dup4\n        /* \"contracts/Exchange.sol\":1232:1270  uint tokenReserve = erc20BalanceBefore */\n      swap1\n      pop\n        /* \"contracts/Exchange.sol\":1284:1298  uint ethAmount */\n      0x00\n        /* \"contracts/Exchange.sol\":1301:1310  msg.value */\n      callvalue\n        /* \"contracts/Exchange.sol\":1284:1310  uint ethAmount = msg.value */\n      swap1\n      pop\n        /* \"contracts/Exchange.sol\":1324:1340  uint tokenAmount */\n      0x00\n        /* \"contracts/Exchange.sol\":1343:1360  _amountERC20Token */\n      dup9\n        /* \"contracts/Exchange.sol\":1324:1360  uint tokenAmount = _amountERC20Token */\n      swap1\n      pop\n        /* \"contracts/Exchange.sol\":1502:1514  tokenReserve */\n      dup3\n        /* \"contracts/Exchange.sol\":1490:1499  ethAmount */\n      dup3\n        /* \"contracts/Exchange.sol\":1490:1514  ethAmount * tokenReserve */\n      tag_224\n      swap2\n      swap1\n      tag_92\n      jump\t// in\n    tag_224:\n        /* \"contracts/Exchange.sol\":1475:1486  tokenAmount */\n      dup2\n        /* \"contracts/Exchange.sol\":1462:1472  ethReserve */\n      dup6\n        /* \"contracts/Exchange.sol\":1462:1486  ethReserve * tokenAmount */\n      tag_225\n      swap2\n      swap1\n      tag_92\n      jump\t// in\n    tag_225:\n        /* \"contracts/Exchange.sol\":1462:1514  ethReserve * tokenAmount == ethAmount * tokenReserve */\n      eq\n        /* \"contracts/Exchange.sol\":1454:1548  require(ethReserve * tokenAmount == ethAmount * tokenReserve, \"Must maintain ETH/ERC20 ratio\") */\n      tag_226\n      jumpi\n      mload(0x40)\n      0x08c379a000000000000000000000000000000000000000000000000000000000\n      dup2\n      mstore\n      0x04\n      add\n      tag_227\n      swap1\n      tag_228\n      jump\t// in\n    tag_227:\n      mload(0x40)\n      dup1\n      swap2\n      sub\n      swap1\n      revert\n    tag_226:\n        /* \"contracts/Exchange.sol\":1710:1720  ethReserve */\n      dup4\n        /* \"contracts/Exchange.sol\":1698:1707  ethAmount */\n      dup3\n        /* \"contracts/Exchange.sol\":1672:1695  totalLiquidityPositions */\n      sload(0x01)\n        /* \"contracts/Exchange.sol\":1672:1707  totalLiquidityPositions * ethAmount */\n      tag_229\n      swap2\n      swap1\n      tag_92\n      jump\t// in\n    tag_229:\n        /* \"contracts/Exchange.sol\":1672:1720  totalLiquidityPositions * ethAmount / ethReserve */\n      tag_230\n      swap2\n      swap1\n      tag_94\n      jump\t// in\n    tag_230:\n        /* \"contracts/Exchange.sol\":1660:1720  liquidity = totalLiquidityPositions * ethAmount / ethReserve */\n      swap8\n      pop\n        /* \"contracts/Exchange.sol\":1170:1731  {... */\n      pop\n      pop\n      pop\n      pop\n        /* \"contracts/Exchange.sol\":1040:1731  if (totalLiquidityPositions == 0) {... */\n    tag_223:\n        /* \"contracts/Exchange.sol\":1774:1783  liquidity */\n      dup4\n        /* \"contracts/Exchange.sol\":1740:1758  liquidityPositions */\n      0x03\n        /* \"contracts/Exchange.sol\":1740:1770  liquidityPositions[msg.sender] */\n      0x00\n        /* \"contracts/Exchange.sol\":1759:1769  msg.sender */\n      caller\n        /* \"contracts/Exchange.sol\":1740:1770  liquidityPositions[msg.sender] */\n      0xffffffffffffffffffffffffffffffffffffffff\n      and\n      0xffffffffffffffffffffffffffffffffffffffff\n      and\n      dup2\n      mstore\n      0x20\n      add\n      swap1\n      dup2\n      mstore\n      0x20\n      add\n      0x00\n      keccak256\n      0x00\n        /* \"contracts/Exchange.sol\":1740:1783  liquidityPositions[msg.sender] += liquidity */\n      dup3\n      dup3\n      sload\n      tag_231\n      swap2\n      swap1\n      tag_137\n      jump\t// in\n    tag_231:\n      swap3\n      pop\n      pop\n      dup2\n      swap1\n      sstore\n      pop\n        /* \"contracts/Exchange.sol\":1820:1829  liquidity */\n      dup4\n        /* \"contracts/Exchange.sol\":1793:1816  totalLiquidityPositions */\n      0x01\n      0x00\n        /* \"contracts/Exchange.sol\":1793:1829  totalLiquidityPositions += liquidity */\n      dup3\n      dup3\n      sload\n      tag_232\n      swap2\n      swap1\n      tag_137\n      jump\t// in\n    tag_232:\n      swap3\n      pop\n      pop\n      dup2\n      swap1\n      sstore\n      pop\n        /* \"contracts/Exchange.sol\":1971:1988  _amountERC20Token */\n      dup5\n        /* \"contracts/Exchange.sol\":1950:1968  erc20BalanceBefore */\n      dup3\n        /* \"contracts/Exchange.sol\":1950:1988  erc20BalanceBefore + _amountERC20Token */\n      tag_233\n      swap2\n      swap1\n      tag_137\n      jump\t// in\n    tag_233:\n        /* \"contracts/Exchange.sol\":1936:1945  msg.value */\n      callvalue\n        /* \"contracts/Exchange.sol\":1917:1933  ethBalanceBefore */\n      dup5\n        /* \"contracts/Exchange.sol\":1917:1945  ethBalanceBefore + msg.value */\n      tag_234\n      swap2\n      swap1\n      tag_137\n      jump\t// in\n    tag_234:\n        /* \"contracts/Exchange.sol\":1916:1989  (ethBalanceBefore + msg.value) * (erc20BalanceBefore + _amountERC20Token) */\n      tag_235\n      swap2\n      swap1\n      tag_92\n      jump\t// in\n    tag_235:\n        /* \"contracts/Exchange.sol\":1912:1913  K */\n      0x02\n        /* \"contracts/Exchange.sol\":1912:1989  K = (ethBalanceBefore + msg.value) * (erc20BalanceBefore + _amountERC20Token) */\n      dup2\n      swap1\n      sstore\n      pop\n        /* \"contracts/Exchange.sol\":2005:2075  LiquidityProvided(msg.sender, _amountERC20Token, msg.value, liquidity) */\n      0x3bca7014f4c0ccc8016338c79f4c00e82068dbadaf4f01ca5449040fdd39f500\n        /* \"contracts/Exchange.sol\":2023:2033  msg.sender */\n      caller\n        /* \"contracts/Exchange.sol\":2035:2052  _amountERC20Token */\n      dup7\n        /* \"contracts/Exchange.sol\":2054:2063  msg.value */\n      callvalue\n        /* \"contracts/Exchange.sol\":2065:2074  liquidity */\n      dup8\n        /* \"contracts/Exchange.sol\":2005:2075  LiquidityProvided(msg.sender, _amountERC20Token, msg.value, liquidity) */\n      mload(0x40)\n      tag_236\n      swap5\n      swap4\n      swap3\n      swap2\n      swap1\n      tag_237\n      jump\t// in\n    tag_236:\n      mload(0x40)\n      dup1\n      swap2\n      sub\n      swap1\n      log1\n        /* \"contracts/Exchange.sol\":2121:2137  return liquidity */\n      pop\n      pop\n      pop\n        /* \"contracts/Exchange.sol\":456:2144  function provideLiquidity(uint _amountERC20Token) public payable returns (uint liquidity) {... */\n      swap2\n      swap1\n      pop\n      jump\t// out\n        /* \"contracts/Exchange.sol\":2834:3417  function estimateERC20TokenToProvide(uint _amountEth) public view returns (uint amountERC20Token) {... */\n    tag_76:\n        /* \"contracts/Exchange.sol\":2909:2930  uint amountERC20Token */\n      0x00\n        /* \"contracts/Exchange.sol\":2963:2964  0 */\n      dup1\n        /* \"contracts/Exchange.sol\":2950:2960  _amountEth */\n      dup3\n        /* \"contracts/Exchange.sol\":2950:2964  _amountEth > 0 */\n      gt\n        /* \"contracts/Exchange.sol\":2942:2996  require(_amountEth > 0, \"ETH must be greater than 0.\") */\n      tag_239\n      jumpi\n      mload(0x40)\n      0x08c379a000000000000000000000000000000000000000000000000000000000\n      dup2\n      mstore\n      0x04\n      add\n      tag_240\n      swap1\n      tag_241\n      jump\t// in\n    tag_240:\n      mload(0x40)\n      dup1\n      swap2\n      sub\n      swap1\n      revert\n    tag_239:\n        /* \"contracts/Exchange.sol\":3006:3029  uint contractEthBalance */\n      0x00\n        /* \"contracts/Exchange.sol\":3032:3053  address(this).balance */\n      selfbalance\n        /* \"contracts/Exchange.sol\":3006:3053  uint contractEthBalance = address(this).balance */\n      swap1\n      pop\n        /* \"contracts/Exchange.sol\":3063:3093  uint contractERC20TokenBalance */\n      0x00\n        /* \"contracts/Exchange.sol\":3096:3106  erc20Token */\n      dup1\n      0x00\n      swap1\n      sload\n      swap1\n      0x0100\n      exp\n      swap1\n      div\n      0xffffffffffffffffffffffffffffffffffffffff\n      and\n        /* \"contracts/Exchange.sol\":3096:3116  erc20Token.balanceOf */\n      0xffffffffffffffffffffffffffffffffffffffff\n      and\n      0x70a08231\n        /* \"contracts/Exchange.sol\":3125:3129  this */\n      address\n        /* \"contracts/Exchange.sol\":3096:3131  erc20Token.balanceOf(address(this)) */\n      mload(0x40)\n      dup3\n      0xffffffff\n      and\n      0xe0\n      shl\n      dup2\n      mstore\n      0x04\n      add\n      tag_242\n      swap2\n      swap1\n      tag_86\n      jump\t// in\n    tag_242:\n      0x20\n      mload(0x40)\n      dup1\n      dup4\n      sub\n      dup2\n      dup7\n      gas\n      staticcall\n      iszero\n      dup1\n      iszero\n      tag_244\n      jumpi\n      returndatasize\n      0x00\n      dup1\n      returndatacopy\n      revert(0x00, returndatasize)\n    tag_244:\n      pop\n      pop\n      pop\n      pop\n      mload(0x40)\n      returndatasize\n      not(0x1f)\n      0x1f\n      dup3\n      add\n      and\n      dup3\n      add\n      dup1\n      0x40\n      mstore\n      pop\n      dup2\n      add\n      swap1\n      tag_245\n      swap2\n      swap1\n      tag_90\n      jump\t// in\n    tag_245:\n        /* \"contracts/Exchange.sol\":3063:3131  uint contractERC20TokenBalance = erc20Token.balanceOf(address(this)) */\n      swap1\n      pop\n        /* \"contracts/Exchange.sol\":3167:3168  0 */\n      0x00\n        /* \"contracts/Exchange.sol\":3145:3163  contractEthBalance */\n      dup3\n        /* \"contracts/Exchange.sol\":3145:3168  contractEthBalance == 0 */\n      sub\n        /* \"contracts/Exchange.sol\":3141:3203  if (contractEthBalance == 0) {... */\n      tag_246\n      jumpi\n        /* \"contracts/Exchange.sol\":3191:3192  0 */\n      0x00\n        /* \"contracts/Exchange.sol\":3184:3192  return 0 */\n      swap3\n      pop\n      pop\n      pop\n      jump(tag_238)\n        /* \"contracts/Exchange.sol\":3141:3203  if (contractEthBalance == 0) {... */\n    tag_246:\n        /* \"contracts/Exchange.sol\":3359:3377  contractEthBalance */\n      dup2\n        /* \"contracts/Exchange.sol\":3346:3356  _amountEth */\n      dup5\n        /* \"contracts/Exchange.sol\":3318:3343  contractERC20TokenBalance */\n      dup3\n        /* \"contracts/Exchange.sol\":3318:3356  contractERC20TokenBalance * _amountEth */\n      tag_247\n      swap2\n      swap1\n      tag_92\n      jump\t// in\n    tag_247:\n        /* \"contracts/Exchange.sol\":3318:3377  contractERC20TokenBalance * _amountEth / contractEthBalance */\n      tag_248\n      swap2\n      swap1\n      tag_94\n      jump\t// in\n    tag_248:\n        /* \"contracts/Exchange.sol\":3299:3377  amountERC20Token = contractERC20TokenBalance * _amountEth / contractEthBalance */\n      swap3\n      pop\n        /* \"contracts/Exchange.sol\":3387:3410  return amountERC20Token */\n      pop\n      pop\n        /* \"contracts/Exchange.sol\":2834:3417  function estimateERC20TokenToProvide(uint _amountEth) public view returns (uint amountERC20Token) {... */\n    tag_238:\n      swap2\n      swap1\n      pop\n      jump\t// out\n        /* \"#utility.yul\":88:205   */\n    tag_250:\n        /* \"#utility.yul\":197:198   */\n      0x00\n        /* \"#utility.yul\":194:195   */\n      dup1\n        /* \"#utility.yul\":187:199   */\n      revert\n        /* \"#utility.yul\":334:411   */\n    tag_252:\n        /* \"#utility.yul\":371:378   */\n      0x00\n        /* \"#utility.yul\":400:405   */\n      dup2\n        /* \"#utility.yul\":389:405   */\n      swap1\n      pop\n        /* \"#utility.yul\":334:411   */\n      swap2\n      swap1\n      pop\n      jump\t// out\n        /* \"#utility.yul\":417:539   */\n    tag_253:\n        /* \"#utility.yul\":490:514   */\n      tag_307\n        /* \"#utility.yul\":508:513   */\n      dup2\n        /* \"#utility.yul\":490:514   */\n      tag_252\n      jump\t// in\n    tag_307:\n        /* \"#utility.yul\":483:488   */\n      dup2\n        /* \"#utility.yul\":480:515   */\n      eq\n        /* \"#utility.yul\":470:533   */\n      tag_308\n      jumpi\n        /* \"#utility.yul\":529:530   */\n      0x00\n        /* \"#utility.yul\":526:527   */\n      dup1\n        /* \"#utility.yul\":519:531   */\n      revert\n        /* \"#utility.yul\":470:533   */\n    tag_308:\n        /* \"#utility.yul\":417:539   */\n      pop\n      jump\t// out\n        /* \"#utility.yul\":545:684   */\n    tag_254:\n        /* \"#utility.yul\":591:596   */\n      0x00\n        /* \"#utility.yul\":629:635   */\n      dup2\n        /* \"#utility.yul\":616:636   */\n      calldataload\n        /* \"#utility.yul\":607:636   */\n      swap1\n      pop\n        /* \"#utility.yul\":645:678   */\n      tag_310\n        /* \"#utility.yul\":672:677   */\n      dup2\n        /* \"#utility.yul\":645:678   */\n      tag_253\n      jump\t// in\n    tag_310:\n        /* \"#utility.yul\":545:684   */\n      swap3\n      swap2\n      pop\n      pop\n      jump\t// out\n        /* \"#utility.yul\":690:1019   */\n    tag_20:\n        /* \"#utility.yul\":749:755   */\n      0x00\n        /* \"#utility.yul\":798:800   */\n      0x20\n        /* \"#utility.yul\":786:795   */\n      dup3\n        /* \"#utility.yul\":777:784   */\n      dup5\n        /* \"#utility.yul\":773:796   */\n      sub\n        /* \"#utility.yul\":769:801   */\n      slt\n        /* \"#utility.yul\":766:885   */\n      iszero\n      tag_312\n      jumpi\n        /* \"#utility.yul\":804:883   */\n      tag_313\n      tag_250\n      jump\t// in\n    tag_313:\n        /* \"#utility.yul\":766:885   */\n    tag_312:\n        /* \"#utility.yul\":924:925   */\n      0x00\n        /* \"#utility.yul\":949:1002   */\n      tag_314\n        /* \"#utility.yul\":994:1001   */\n      dup5\n        /* \"#utility.yul\":985:991   */\n      dup3\n        /* \"#utility.yul\":974:983   */\n      dup6\n        /* \"#utility.yul\":970:992   */\n      add\n        /* \"#utility.yul\":949:1002   */\n      tag_254\n      jump\t// in\n    tag_314:\n        /* \"#utility.yul\":939:1002   */\n      swap2\n      pop\n        /* \"#utility.yul\":895:1012   */\n      pop\n        /* \"#utility.yul\":690:1019   */\n      swap3\n      swap2\n      pop\n      pop\n      jump\t// out\n        /* \"#utility.yul\":1025:1143   */\n    tag_255:\n        /* \"#utility.yul\":1112:1136   */\n      tag_316\n        /* \"#utility.yul\":1130:1135   */\n      dup2\n        /* \"#utility.yul\":1112:1136   */\n      tag_252\n      jump\t// in\n    tag_316:\n        /* \"#utility.yul\":1107:1110   */\n      dup3\n        /* \"#utility.yul\":1100:1137   */\n      mstore\n        /* \"#utility.yul\":1025:1143   */\n      pop\n      pop\n      jump\t// out\n        /* \"#utility.yul\":1149:1371   */\n    tag_26:\n        /* \"#utility.yul\":1242:1246   */\n      0x00\n        /* \"#utility.yul\":1280:1282   */\n      0x20\n        /* \"#utility.yul\":1269:1278   */\n      dup3\n        /* \"#utility.yul\":1265:1283   */\n      add\n        /* \"#utility.yul\":1257:1283   */\n      swap1\n      pop\n        /* \"#utility.yul\":1293:1364   */\n      tag_318\n        /* \"#utility.yul\":1361:1362   */\n      0x00\n        /* \"#utility.yul\":1350:1359   */\n      dup4\n        /* \"#utility.yul\":1346:1363   */\n      add\n        /* \"#utility.yul\":1337:1343   */\n      dup5\n        /* \"#utility.yul\":1293:1364   */\n      tag_255\n      jump\t// in\n    tag_318:\n        /* \"#utility.yul\":1149:1371   */\n      swap3\n      swap2\n      pop\n      pop\n      jump\t// out\n        /* \"#utility.yul\":1377:1503   */\n    tag_256:\n        /* \"#utility.yul\":1414:1421   */\n      0x00\n        /* \"#utility.yul\":1454:1496   */\n      0xffffffffffffffffffffffffffffffffffffffff\n        /* \"#utility.yul\":1447:1452   */\n      dup3\n        /* \"#utility.yul\":1443:1497   */\n      and\n        /* \"#utility.yul\":1432:1497   */\n      swap1\n      pop\n        /* \"#utility.yul\":1377:1503   */\n      swap2\n      swap1\n      pop\n      jump\t// out\n        /* \"#utility.yul\":1509:1605   */\n    tag_257:\n        /* \"#utility.yul\":1546:1553   */\n      0x00\n        /* \"#utility.yul\":1575:1599   */\n      tag_321\n        /* \"#utility.yul\":1593:1598   */\n      dup3\n        /* \"#utility.yul\":1575:1599   */\n      tag_256\n      jump\t// in\n    tag_321:\n        /* \"#utility.yul\":1564:1599   */\n      swap1\n      pop\n        /* \"#utility.yul\":1509:1605   */\n      swap2\n      swap1\n      pop\n      jump\t// out\n        /* \"#utility.yul\":1611:1733   */\n    tag_258:\n        /* \"#utility.yul\":1684:1708   */\n      tag_323\n        /* \"#utility.yul\":1702:1707   */\n      dup2\n        /* \"#utility.yul\":1684:1708   */\n      tag_257\n      jump\t// in\n    tag_323:\n        /* \"#utility.yul\":1677:1682   */\n      dup2\n        /* \"#utility.yul\":1674:1709   */\n      eq\n        /* \"#utility.yul\":1664:1727   */\n      tag_324\n      jumpi\n        /* \"#utility.yul\":1723:1724   */\n      0x00\n        /* \"#utility.yul\":1720:1721   */\n      dup1\n        /* \"#utility.yul\":1713:1725   */\n      revert\n        /* \"#utility.yul\":1664:1727   */\n    tag_324:\n        /* \"#utility.yul\":1611:1733   */\n      pop\n      jump\t// out\n        /* \"#utility.yul\":1739:1878   */\n    tag_259:\n        /* \"#utility.yul\":1785:1790   */\n      0x00\n        /* \"#utility.yul\":1823:1829   */\n      dup2\n        /* \"#utility.yul\":1810:1830   */\n      calldataload\n        /* \"#utility.yul\":1801:1830   */\n      swap1\n      pop\n        /* \"#utility.yul\":1839:1872   */\n      tag_326\n        /* \"#utility.yul\":1866:1871   */\n      dup2\n        /* \"#utility.yul\":1839:1872   */\n      tag_258\n      jump\t// in\n    tag_326:\n        /* \"#utility.yul\":1739:1878   */\n      swap3\n      swap2\n      pop\n      pop\n      jump\t// out\n        /* \"#utility.yul\":1884:2213   */\n    tag_38:\n        /* \"#utility.yul\":1943:1949   */\n      0x00\n        /* \"#utility.yul\":1992:1994   */\n      0x20\n        /* \"#utility.yul\":1980:1989   */\n      dup3\n        /* \"#utility.yul\":1971:1978   */\n      dup5\n        /* \"#utility.yul\":1967:1990   */\n      sub\n        /* \"#utility.yul\":1963:1995   */\n      slt\n        /* \"#utility.yul\":1960:2079   */\n      iszero\n      tag_328\n      jumpi\n        /* \"#utility.yul\":1998:2077   */\n      tag_329\n      tag_250\n      jump\t// in\n    tag_329:\n        /* \"#utility.yul\":1960:2079   */\n    tag_328:\n        /* \"#utility.yul\":2118:2119   */\n      0x00\n        /* \"#utility.yul\":2143:2196   */\n      tag_330\n        /* \"#utility.yul\":2188:2195   */\n      dup5\n        /* \"#utility.yul\":2179:2185   */\n      dup3\n        /* \"#utility.yul\":2168:2177   */\n      dup6\n        /* \"#utility.yul\":2164:2186   */\n      add\n        /* \"#utility.yul\":2143:2196   */\n      tag_259\n      jump\t// in\n    tag_330:\n        /* \"#utility.yul\":2133:2196   */\n      swap2\n      pop\n        /* \"#utility.yul\":2089:2206   */\n      pop\n        /* \"#utility.yul\":1884:2213   */\n      swap3\n      swap2\n      pop\n      pop\n      jump\t// out\n        /* \"#utility.yul\":2219:2279   */\n    tag_260:\n        /* \"#utility.yul\":2247:2250   */\n      0x00\n        /* \"#utility.yul\":2268:2273   */\n      dup2\n        /* \"#utility.yul\":2261:2273   */\n      swap1\n      pop\n        /* \"#utility.yul\":2219:2279   */\n      swap2\n      swap1\n      pop\n      jump\t// out\n        /* \"#utility.yul\":2285:2427   */\n    tag_261:\n        /* \"#utility.yul\":2335:2344   */\n      0x00\n        /* \"#utility.yul\":2368:2421   */\n      tag_333\n        /* \"#utility.yul\":2386:2420   */\n      tag_334\n        /* \"#utility.yul\":2395:2419   */\n      tag_335\n        /* \"#utility.yul\":2413:2418   */\n      dup5\n        /* \"#utility.yul\":2395:2419   */\n      tag_256\n      jump\t// in\n    tag_335:\n        /* \"#utility.yul\":2386:2420   */\n      tag_260\n      jump\t// in\n    tag_334:\n        /* \"#utility.yul\":2368:2421   */\n      tag_256\n      jump\t// in\n    tag_333:\n        /* \"#utility.yul\":2355:2421   */\n      swap1\n      pop\n        /* \"#utility.yul\":2285:2427   */\n      swap2\n      swap1\n      pop\n      jump\t// out\n        /* \"#utility.yul\":2433:2559   */\n    tag_262:\n        /* \"#utility.yul\":2483:2492   */\n      0x00\n        /* \"#utility.yul\":2516:2553   */\n      tag_337\n        /* \"#utility.yul\":2547:2552   */\n      dup3\n        /* \"#utility.yul\":2516:2553   */\n      tag_261\n      jump\t// in\n    tag_337:\n        /* \"#utility.yul\":2503:2553   */\n      swap1\n      pop\n        /* \"#utility.yul\":2433:2559   */\n      swap2\n      swap1\n      pop\n      jump\t// out\n        /* \"#utility.yul\":2565:2704   */\n    tag_263:\n        /* \"#utility.yul\":2628:2637   */\n      0x00\n        /* \"#utility.yul\":2661:2698   */\n      tag_339\n        /* \"#utility.yul\":2692:2697   */\n      dup3\n        /* \"#utility.yul\":2661:2698   */\n      tag_262\n      jump\t// in\n    tag_339:\n        /* \"#utility.yul\":2648:2698   */\n      swap1\n      pop\n        /* \"#utility.yul\":2565:2704   */\n      swap2\n      swap1\n      pop\n      jump\t// out\n        /* \"#utility.yul\":2710:2867   */\n    tag_264:\n        /* \"#utility.yul\":2810:2860   */\n      tag_341\n        /* \"#utility.yul\":2854:2859   */\n      dup2\n        /* \"#utility.yul\":2810:2860   */\n      tag_263\n      jump\t// in\n    tag_341:\n        /* \"#utility.yul\":2805:2808   */\n      dup3\n        /* \"#utility.yul\":2798:2861   */\n      mstore\n        /* \"#utility.yul\":2710:2867   */\n      pop\n      pop\n      jump\t// out\n        /* \"#utility.yul\":2873:3121   */\n    tag_50:\n        /* \"#utility.yul\":2979:2983   */\n      0x00\n        /* \"#utility.yul\":3017:3019   */\n      0x20\n        /* \"#utility.yul\":3006:3015   */\n      dup3\n        /* \"#utility.yul\":3002:3020   */\n      add\n        /* \"#utility.yul\":2994:3020   */\n      swap1\n      pop\n        /* \"#utility.yul\":3030:3114   */\n      tag_343\n        /* \"#utility.yul\":3111:3112   */\n      0x00\n        /* \"#utility.yul\":3100:3109   */\n      dup4\n        /* \"#utility.yul\":3096:3113   */\n      add\n        /* \"#utility.yul\":3087:3093   */\n      dup5\n        /* \"#utility.yul\":3030:3114   */\n      tag_264\n      jump\t// in\n    tag_343:\n        /* \"#utility.yul\":2873:3121   */\n      swap3\n      swap2\n      pop\n      pop\n      jump\t// out\n        /* \"#utility.yul\":3127:3296   */\n    tag_265:\n        /* \"#utility.yul\":3211:3222   */\n      0x00\n        /* \"#utility.yul\":3245:3251   */\n      dup3\n        /* \"#utility.yul\":3240:3243   */\n      dup3\n        /* \"#utility.yul\":3233:3252   */\n      mstore\n        /* \"#utility.yul\":3285:3289   */\n      0x20\n        /* \"#utility.yul\":3280:3283   */\n      dup3\n        /* \"#utility.yul\":3276:3290   */\n      add\n        /* \"#utility.yul\":3261:3290   */\n      swap1\n      pop\n        /* \"#utility.yul\":3127:3296   */\n      swap3\n      swap2\n      pop\n      pop\n      jump\t// out\n        /* \"#utility.yul\":3302:3525   */\n    tag_266:\n        /* \"#utility.yul\":3442:3476   */\n      0x43616e6e6f74206275726e207a65726f206c697175696469747920706f736974\n        /* \"#utility.yul\":3438:3439   */\n      0x00\n        /* \"#utility.yul\":3430:3436   */\n      dup3\n        /* \"#utility.yul\":3426:3440   */\n      add\n        /* \"#utility.yul\":3419:3477   */\n      mstore\n        /* \"#utility.yul\":3511:3517   */\n      0x696f6e7300000000000000000000000000000000000000000000000000000000\n        /* \"#utility.yul\":3506:3508   */\n      0x20\n        /* \"#utility.yul\":3498:3504   */\n      dup3\n        /* \"#utility.yul\":3494:3509   */\n      add\n        /* \"#utility.yul\":3487:3518   */\n      mstore\n        /* \"#utility.yul\":3302:3525   */\n      pop\n      jump\t// out\n        /* \"#utility.yul\":3531:3897   */\n    tag_267:\n        /* \"#utility.yul\":3673:3676   */\n      0x00\n        /* \"#utility.yul\":3694:3761   */\n      tag_347\n        /* \"#utility.yul\":3758:3760   */\n      0x24\n        /* \"#utility.yul\":3753:3756   */\n      dup4\n        /* \"#utility.yul\":3694:3761   */\n      tag_265\n      jump\t// in\n    tag_347:\n        /* \"#utility.yul\":3687:3761   */\n      swap2\n      pop\n        /* \"#utility.yul\":3770:3863   */\n      tag_348\n        /* \"#utility.yul\":3859:3862   */\n      dup3\n        /* \"#utility.yul\":3770:3863   */\n      tag_266\n      jump\t// in\n    tag_348:\n        /* \"#utility.yul\":3888:3890   */\n      0x40\n        /* \"#utility.yul\":3883:3886   */\n      dup3\n        /* \"#utility.yul\":3879:3891   */\n      add\n        /* \"#utility.yul\":3872:3891   */\n      swap1\n      pop\n        /* \"#utility.yul\":3531:3897   */\n      swap2\n      swap1\n      pop\n      jump\t// out\n        /* \"#utility.yul\":3903:4322   */\n    tag_81:\n        /* \"#utility.yul\":4069:4073   */\n      0x00\n        /* \"#utility.yul\":4107:4109   */\n      0x20\n        /* \"#utility.yul\":4096:4105   */\n      dup3\n        /* \"#utility.yul\":4092:4110   */\n      add\n        /* \"#utility.yul\":4084:4110   */\n      swap1\n      pop\n        /* \"#utility.yul\":4156:4165   */\n      dup2\n        /* \"#utility.yul\":4150:4154   */\n      dup2\n        /* \"#utility.yul\":4146:4166   */\n      sub\n        /* \"#utility.yul\":4142:4143   */\n      0x00\n        /* \"#utility.yul\":4131:4140   */\n      dup4\n        /* \"#utility.yul\":4127:4144   */\n      add\n        /* \"#utility.yul\":4120:4167   */\n      mstore\n        /* \"#utility.yul\":4184:4315   */\n      tag_350\n        /* \"#utility.yul\":4310:4314   */\n      dup2\n        /* \"#utility.yul\":4184:4315   */\n      tag_267\n      jump\t// in\n    tag_350:\n        /* \"#utility.yul\":4176:4315   */\n      swap1\n      pop\n        /* \"#utility.yul\":3903:4322   */\n      swap2\n      swap1\n      pop\n      jump\t// out\n        /* \"#utility.yul\":4328:4553   */\n    tag_268:\n        /* \"#utility.yul\":4468:4502   */\n      0x4e6f7420656e6f756768206c697175696469747920706f736974696f6e732074\n        /* \"#utility.yul\":4464:4465   */\n      0x00\n        /* \"#utility.yul\":4456:4462   */\n      dup3\n        /* \"#utility.yul\":4452:4466   */\n      add\n        /* \"#utility.yul\":4445:4503   */\n      mstore\n        /* \"#utility.yul\":4537:4545   */\n      0x6f206275726e0000000000000000000000000000000000000000000000000000\n        /* \"#utility.yul\":4532:4534   */\n      0x20\n        /* \"#utility.yul\":4524:4530   */\n      dup3\n        /* \"#utility.yul\":4520:4535   */\n      add\n        /* \"#utility.yul\":4513:4546   */\n      mstore\n        /* \"#utility.yul\":4328:4553   */\n      pop\n      jump\t// out\n        /* \"#utility.yul\":4559:4925   */\n    tag_269:\n        /* \"#utility.yul\":4701:4704   */\n      0x00\n        /* \"#utility.yul\":4722:4789   */\n      tag_353\n        /* \"#utility.yul\":4786:4788   */\n      0x26\n        /* \"#utility.yul\":4781:4784   */\n      dup4\n        /* \"#utility.yul\":4722:4789   */\n      tag_265\n      jump\t// in\n    tag_353:\n        /* \"#utility.yul\":4715:4789   */\n      swap2\n      pop\n        /* \"#utility.yul\":4798:4891   */\n      tag_354\n        /* \"#utility.yul\":4887:4890   */\n      dup3\n        /* \"#utility.yul\":4798:4891   */\n      tag_268\n      jump\t// in\n    tag_354:\n        /* \"#utility.yul\":4916:4918   */\n      0x40\n        /* \"#utility.yul\":4911:4914   */\n      dup3\n        /* \"#utility.yul\":4907:4919   */\n      add\n        /* \"#utility.yul\":4900:4919   */\n      swap1\n      pop\n        /* \"#utility.yul\":4559:4925   */\n      swap2\n      swap1\n      pop\n      jump\t// out\n        /* \"#utility.yul\":4931:5350   */\n    tag_84:\n        /* \"#utility.yul\":5097:5101   */\n      0x00\n        /* \"#utility.yul\":5135:5137   */\n      0x20\n        /* \"#utility.yul\":5124:5133   */\n      dup3\n        /* \"#utility.yul\":5120:5138   */\n      add\n        /* \"#utility.yul\":5112:5138   */\n      swap1\n      pop\n        /* \"#utility.yul\":5184:5193   */\n      dup2\n        /* \"#utility.yul\":5178:5182   */\n      dup2\n        /* \"#utility.yul\":5174:5194   */\n      sub\n        /* \"#utility.yul\":5170:5171   */\n      0x00\n        /* \"#utility.yul\":5159:5168   */\n      dup4\n        /* \"#utility.yul\":5155:5172   */\n      add\n        /* \"#utility.yul\":5148:5195   */\n      mstore\n        /* \"#utility.yul\":5212:5343   */\n      tag_356\n        /* \"#utility.yul\":5338:5342   */\n      dup2\n        /* \"#utility.yul\":5212:5343   */\n      tag_269\n      jump\t// in\n    tag_356:\n        /* \"#utility.yul\":5204:5343   */\n      swap1\n      pop\n        /* \"#utility.yul\":4931:5350   */\n      swap2\n      swap1\n      pop\n      jump\t// out\n        /* \"#utility.yul\":5356:5474   */\n    tag_270:\n        /* \"#utility.yul\":5443:5467   */\n      tag_358\n        /* \"#utility.yul\":5461:5466   */\n      dup2\n        /* \"#utility.yul\":5443:5467   */\n      tag_257\n      jump\t// in\n    tag_358:\n        /* \"#utility.yul\":5438:5441   */\n      dup3\n        /* \"#utility.yul\":5431:5468   */\n      mstore\n        /* \"#utility.yul\":5356:5474   */\n      pop\n      pop\n      jump\t// out\n        /* \"#utility.yul\":5480:5702   */\n    tag_86:\n        /* \"#utility.yul\":5573:5577   */\n      0x00\n        /* \"#utility.yul\":5611:5613   */\n      0x20\n        /* \"#utility.yul\":5600:5609   */\n      dup3\n        /* \"#utility.yul\":5596:5614   */\n      add\n        /* \"#utility.yul\":5588:5614   */\n      swap1\n      pop\n        /* \"#utility.yul\":5624:5695   */\n      tag_360\n        /* \"#utility.yul\":5692:5693   */\n      0x00\n        /* \"#utility.yul\":5681:5690   */\n      dup4\n        /* \"#utility.yul\":5677:5694   */\n      add\n        /* \"#utility.yul\":5668:5674   */\n      dup5\n        /* \"#utility.yul\":5624:5695   */\n      tag_270\n      jump\t// in\n    tag_360:\n        /* \"#utility.yul\":5480:5702   */\n      swap3\n      swap2\n      pop\n      pop\n      jump\t// out\n        /* \"#utility.yul\":5708:5851   */\n    tag_271:\n        /* \"#utility.yul\":5765:5770   */\n      0x00\n        /* \"#utility.yul\":5796:5802   */\n      dup2\n        /* \"#utility.yul\":5790:5803   */\n      mload\n        /* \"#utility.yul\":5781:5803   */\n      swap1\n      pop\n        /* \"#utility.yul\":5812:5845   */\n      tag_362\n        /* \"#utility.yul\":5839:5844   */\n      dup2\n        /* \"#utility.yul\":5812:5845   */\n      tag_253\n      jump\t// in\n    tag_362:\n        /* \"#utility.yul\":5708:5851   */\n      swap3\n      swap2\n      pop\n      pop\n      jump\t// out\n        /* \"#utility.yul\":5857:6208   */\n    tag_90:\n        /* \"#utility.yul\":5927:5933   */\n      0x00\n        /* \"#utility.yul\":5976:5978   */\n      0x20\n        /* \"#utility.yul\":5964:5973   */\n      dup3\n        /* \"#utility.yul\":5955:5962   */\n      dup5\n        /* \"#utility.yul\":5951:5974   */\n      sub\n        /* \"#utility.yul\":5947:5979   */\n      slt\n        /* \"#utility.yul\":5944:6063   */\n      iszero\n      tag_364\n      jumpi\n        /* \"#utility.yul\":5982:6061   */\n      tag_365\n      tag_250\n      jump\t// in\n    tag_365:\n        /* \"#utility.yul\":5944:6063   */\n    tag_364:\n        /* \"#utility.yul\":6102:6103   */\n      0x00\n        /* \"#utility.yul\":6127:6191   */\n      tag_366\n        /* \"#utility.yul\":6183:6190   */\n      dup5\n        /* \"#utility.yul\":6174:6180   */\n      dup3\n        /* \"#utility.yul\":6163:6172   */\n      dup6\n        /* \"#utility.yul\":6159:6181   */\n      add\n        /* \"#utility.yul\":6127:6191   */\n      tag_271\n      jump\t// in\n    tag_366:\n        /* \"#utility.yul\":6117:6191   */\n      swap2\n      pop\n        /* \"#utility.yul\":6073:6201   */\n      pop\n        /* \"#utility.yul\":5857:6208   */\n      swap3\n      swap2\n      pop\n      pop\n      jump\t// out\n        /* \"#utility.yul\":6214:6394   */\n    tag_272:\n        /* \"#utility.yul\":6262:6339   */\n      0x4e487b7100000000000000000000000000000000000000000000000000000000\n        /* \"#utility.yul\":6259:6260   */\n      0x00\n        /* \"#utility.yul\":6252:6340   */\n      mstore\n        /* \"#utility.yul\":6359:6363   */\n      0x11\n        /* \"#utility.yul\":6356:6357   */\n      0x04\n        /* \"#utility.yul\":6349:6364   */\n      mstore\n        /* \"#utility.yul\":6383:6387   */\n      0x24\n        /* \"#utility.yul\":6380:6381   */\n      0x00\n        /* \"#utility.yul\":6373:6388   */\n      revert\n        /* \"#utility.yul\":6400:6810   */\n    tag_92:\n        /* \"#utility.yul\":6440:6447   */\n      0x00\n        /* \"#utility.yul\":6463:6483   */\n      tag_369\n        /* \"#utility.yul\":6481:6482   */\n      dup3\n        /* \"#utility.yul\":6463:6483   */\n      tag_252\n      jump\t// in\n    tag_369:\n        /* \"#utility.yul\":6458:6483   */\n      swap2\n      pop\n        /* \"#utility.yul\":6497:6517   */\n      tag_370\n        /* \"#utility.yul\":6515:6516   */\n      dup4\n        /* \"#utility.yul\":6497:6517   */\n      tag_252\n      jump\t// in\n    tag_370:\n        /* \"#utility.yul\":6492:6517   */\n      swap3\n      pop\n        /* \"#utility.yul\":6552:6553   */\n      dup3\n        /* \"#utility.yul\":6549:6550   */\n      dup3\n        /* \"#utility.yul\":6545:6554   */\n      mul\n        /* \"#utility.yul\":6574:6604   */\n      tag_371\n        /* \"#utility.yul\":6592:6603   */\n      dup2\n        /* \"#utility.yul\":6574:6604   */\n      tag_252\n      jump\t// in\n    tag_371:\n        /* \"#utility.yul\":6563:6604   */\n      swap2\n      pop\n        /* \"#utility.yul\":6753:6754   */\n      dup3\n        /* \"#utility.yul\":6744:6751   */\n      dup3\n        /* \"#utility.yul\":6740:6755   */\n      div\n        /* \"#utility.yul\":6737:6738   */\n      dup5\n        /* \"#utility.yul\":6734:6756   */\n      eq\n        /* \"#utility.yul\":6714:6715   */\n      dup4\n        /* \"#utility.yul\":6707:6716   */\n      iszero\n        /* \"#utility.yul\":6687:6770   */\n      or\n        /* \"#utility.yul\":6664:6803   */\n      tag_372\n      jumpi\n        /* \"#utility.yul\":6783:6801   */\n      tag_373\n      tag_272\n      jump\t// in\n    tag_373:\n        /* \"#utility.yul\":6664:6803   */\n    tag_372:\n        /* \"#utility.yul\":6448:6810   */\n      pop\n        /* \"#utility.yul\":6400:6810   */\n      swap3\n      swap2\n      pop\n      pop\n      jump\t// out\n        /* \"#utility.yul\":6816:6996   */\n    tag_273:\n        /* \"#utility.yul\":6864:6941   */\n      0x4e487b7100000000000000000000000000000000000000000000000000000000\n        /* \"#utility.yul\":6861:6862   */\n      0x00\n        /* \"#utility.yul\":6854:6942   */\n      mstore\n        /* \"#utility.yul\":6961:6965   */\n      0x12\n        /* \"#utility.yul\":6958:6959   */\n      0x04\n        /* \"#utility.yul\":6951:6966   */\n      mstore\n        /* \"#utility.yul\":6985:6989   */\n      0x24\n        /* \"#utility.yul\":6982:6983   */\n      0x00\n        /* \"#utility.yul\":6975:6990   */\n      revert\n        /* \"#utility.yul\":7002:7187   */\n    tag_94:\n        /* \"#utility.yul\":7042:7043   */\n      0x00\n        /* \"#utility.yul\":7059:7079   */\n      tag_376\n        /* \"#utility.yul\":7077:7078   */\n      dup3\n        /* \"#utility.yul\":7059:7079   */\n      tag_252\n      jump\t// in\n    tag_376:\n        /* \"#utility.yul\":7054:7079   */\n      swap2\n      pop\n        /* \"#utility.yul\":7093:7113   */\n      tag_377\n        /* \"#utility.yul\":7111:7112   */\n      dup4\n        /* \"#utility.yul\":7093:7113   */\n      tag_252\n      jump\t// in\n    tag_377:\n        /* \"#utility.yul\":7088:7113   */\n      swap3\n      pop\n        /* \"#utility.yul\":7132:7133   */\n      dup3\n        /* \"#utility.yul\":7122:7157   */\n      tag_378\n      jumpi\n        /* \"#utility.yul\":7137:7155   */\n      tag_379\n      tag_273\n      jump\t// in\n    tag_379:\n        /* \"#utility.yul\":7122:7157   */\n    tag_378:\n        /* \"#utility.yul\":7179:7180   */\n      dup3\n        /* \"#utility.yul\":7176:7177   */\n      dup3\n        /* \"#utility.yul\":7172:7181   */\n      div\n        /* \"#utility.yul\":7167:7181   */\n      swap1\n      pop\n        /* \"#utility.yul\":7002:7187   */\n      swap3\n      swap2\n      pop\n      pop\n      jump\t// out\n        /* \"#utility.yul\":7193:7387   */\n    tag_98:\n        /* \"#utility.yul\":7233:7237   */\n      0x00\n        /* \"#utility.yul\":7253:7273   */\n      tag_381\n        /* \"#utility.yul\":7271:7272   */\n      dup3\n        /* \"#utility.yul\":7253:7273   */\n      tag_252\n      jump\t// in\n    tag_381:\n        /* \"#utility.yul\":7248:7273   */\n      swap2\n      pop\n        /* \"#utility.yul\":7287:7307   */\n      tag_382\n        /* \"#utility.yul\":7305:7306   */\n      dup4\n        /* \"#utility.yul\":7287:7307   */\n      tag_252\n      jump\t// in\n    tag_382:\n        /* \"#utility.yul\":7282:7307   */\n      swap3\n      pop\n        /* \"#utility.yul\":7331:7332   */\n      dup3\n        /* \"#utility.yul\":7328:7329   */\n      dup3\n        /* \"#utility.yul\":7324:7333   */\n      sub\n        /* \"#utility.yul\":7316:7333   */\n      swap1\n      pop\n        /* \"#utility.yul\":7355:7356   */\n      dup2\n        /* \"#utility.yul\":7349:7353   */\n      dup2\n        /* \"#utility.yul\":7346:7357   */\n      gt\n        /* \"#utility.yul\":7343:7380   */\n      iszero\n      tag_383\n      jumpi\n        /* \"#utility.yul\":7360:7378   */\n      tag_384\n      tag_272\n      jump\t// in\n    tag_384:\n        /* \"#utility.yul\":7343:7380   */\n    tag_383:\n        /* \"#utility.yul\":7193:7387   */\n      swap3\n      swap2\n      pop\n      pop\n      jump\t// out\n        /* \"#utility.yul\":7393:7725   */\n    tag_103:\n        /* \"#utility.yul\":7514:7518   */\n      0x00\n        /* \"#utility.yul\":7552:7554   */\n      0x40\n        /* \"#utility.yul\":7541:7550   */\n      dup3\n        /* \"#utility.yul\":7537:7555   */\n      add\n        /* \"#utility.yul\":7529:7555   */\n      swap1\n      pop\n        /* \"#utility.yul\":7565:7636   */\n      tag_386\n        /* \"#utility.yul\":7633:7634   */\n      0x00\n        /* \"#utility.yul\":7622:7631   */\n      dup4\n        /* \"#utility.yul\":7618:7635   */\n      add\n        /* \"#utility.yul\":7609:7615   */\n      dup6\n        /* \"#utility.yul\":7565:7636   */\n      tag_270\n      jump\t// in\n    tag_386:\n        /* \"#utility.yul\":7646:7718   */\n      tag_387\n        /* \"#utility.yul\":7714:7716   */\n      0x20\n        /* \"#utility.yul\":7703:7712   */\n      dup4\n        /* \"#utility.yul\":7699:7717   */\n      add\n        /* \"#utility.yul\":7690:7696   */\n      dup5\n        /* \"#utility.yul\":7646:7718   */\n      tag_255\n      jump\t// in\n    tag_387:\n        /* \"#utility.yul\":7393:7725   */\n      swap4\n      swap3\n      pop\n      pop\n      pop\n      jump\t// out\n        /* \"#utility.yul\":7731:7821   */\n    tag_274:\n        /* \"#utility.yul\":7765:7772   */\n      0x00\n        /* \"#utility.yul\":7808:7813   */\n      dup2\n        /* \"#utility.yul\":7801:7814   */\n      iszero\n        /* \"#utility.yul\":7794:7815   */\n      iszero\n        /* \"#utility.yul\":7783:7815   */\n      swap1\n      pop\n        /* \"#utility.yul\":7731:7821   */\n      swap2\n      swap1\n      pop\n      jump\t// out\n        /* \"#utility.yul\":7827:7943   */\n    tag_275:\n        /* \"#utility.yul\":7897:7918   */\n      tag_390\n        /* \"#utility.yul\":7912:7917   */\n      dup2\n        /* \"#utility.yul\":7897:7918   */\n      tag_274\n      jump\t// in\n    tag_390:\n        /* \"#utility.yul\":7890:7895   */\n      dup2\n        /* \"#utility.yul\":7887:7919   */\n      eq\n        /* \"#utility.yul\":7877:7937   */\n      tag_391\n      jumpi\n        /* \"#utility.yul\":7933:7934   */\n      0x00\n        /* \"#utility.yul\":7930:7931   */\n      dup1\n        /* \"#utility.yul\":7923:7935   */\n      revert\n        /* \"#utility.yul\":7877:7937   */\n    tag_391:\n        /* \"#utility.yul\":7827:7943   */\n      pop\n      jump\t// out\n        /* \"#utility.yul\":7949:8086   */\n    tag_276:\n        /* \"#utility.yul\":8003:8008   */\n      0x00\n        /* \"#utility.yul\":8034:8040   */\n      dup2\n        /* \"#utility.yul\":8028:8041   */\n      mload\n        /* \"#utility.yul\":8019:8041   */\n      swap1\n      pop\n        /* \"#utility.yul\":8050:8080   */\n      tag_393\n        /* \"#utility.yul\":8074:8079   */\n      dup2\n        /* \"#utility.yul\":8050:8080   */\n      tag_275\n      jump\t// in\n    tag_393:\n        /* \"#utility.yul\":7949:8086   */\n      swap3\n      swap2\n      pop\n      pop\n      jump\t// out\n        /* \"#utility.yul\":8092:8437   */\n    tag_107:\n        /* \"#utility.yul\":8159:8165   */\n      0x00\n        /* \"#utility.yul\":8208:8210   */\n      0x20\n        /* \"#utility.yul\":8196:8205   */\n      dup3\n        /* \"#utility.yul\":8187:8194   */\n      dup5\n        /* \"#utility.yul\":8183:8206   */\n      sub\n        /* \"#utility.yul\":8179:8211   */\n      slt\n        /* \"#utility.yul\":8176:8295   */\n      iszero\n      tag_395\n      jumpi\n        /* \"#utility.yul\":8214:8293   */\n      tag_396\n      tag_250\n      jump\t// in\n    tag_396:\n        /* \"#utility.yul\":8176:8295   */\n    tag_395:\n        /* \"#utility.yul\":8334:8335   */\n      0x00\n        /* \"#utility.yul\":8359:8420   */\n      tag_397\n        /* \"#utility.yul\":8412:8419   */\n      dup5\n        /* \"#utility.yul\":8403:8409   */\n      dup3\n        /* \"#utility.yul\":8392:8401   */\n      dup6\n        /* \"#utility.yul\":8388:8410   */\n      add\n        /* \"#utility.yul\":8359:8420   */\n      tag_276\n      jump\t// in\n    tag_397:\n        /* \"#utility.yul\":8349:8420   */\n      swap2\n      pop\n        /* \"#utility.yul\":8305:8430   */\n      pop\n        /* \"#utility.yul\":8092:8437   */\n      swap3\n      swap2\n      pop\n      pop\n      jump\t// out\n        /* \"#utility.yul\":8443:8620   */\n    tag_277:\n        /* \"#utility.yul\":8583:8612   */\n      0x4661696c656420746f2073656e6420455243323020746f6b656e730000000000\n        /* \"#utility.yul\":8579:8580   */\n      0x00\n        /* \"#utility.yul\":8571:8577   */\n      dup3\n        /* \"#utility.yul\":8567:8581   */\n      add\n        /* \"#utility.yul\":8560:8613   */\n      mstore\n        /* \"#utility.yul\":8443:8620   */\n      pop\n      jump\t// out\n        /* \"#utility.yul\":8626:8992   */\n    tag_278:\n        /* \"#utility.yul\":8768:8771   */\n      0x00\n        /* \"#utility.yul\":8789:8856   */\n      tag_400\n        /* \"#utility.yul\":8853:8855   */\n      0x1b\n        /* \"#utility.yul\":8848:8851   */\n      dup4\n        /* \"#utility.yul\":8789:8856   */\n      tag_265\n      jump\t// in\n    tag_400:\n        /* \"#utility.yul\":8782:8856   */\n      swap2\n      pop\n        /* \"#utility.yul\":8865:8958   */\n      tag_401\n        /* \"#utility.yul\":8954:8957   */\n      dup3\n        /* \"#utility.yul\":8865:8958   */\n      tag_277\n      jump\t// in\n    tag_401:\n        /* \"#utility.yul\":8983:8985   */\n      0x20\n        /* \"#utility.yul\":8978:8981   */\n      dup3\n        /* \"#utility.yul\":8974:8986   */\n      add\n        /* \"#utility.yul\":8967:8986   */\n      swap1\n      pop\n        /* \"#utility.yul\":8626:8992   */\n      swap2\n      swap1\n      pop\n      jump\t// out\n        /* \"#utility.yul\":8998:9417   */\n    tag_110:\n        /* \"#utility.yul\":9164:9168   */\n      0x00\n        /* \"#utility.yul\":9202:9204   */\n      0x20\n        /* \"#utility.yul\":9191:9200   */\n      dup3\n        /* \"#utility.yul\":9187:9205   */\n      add\n        /* \"#utility.yul\":9179:9205   */\n      swap1\n      pop\n        /* \"#utility.yul\":9251:9260   */\n      dup2\n        /* \"#utility.yul\":9245:9249   */\n      dup2\n        /* \"#utility.yul\":9241:9261   */\n      sub\n        /* \"#utility.yul\":9237:9238   */\n      0x00\n        /* \"#utility.yul\":9226:9235   */\n      dup4\n        /* \"#utility.yul\":9222:9239   */\n      add\n        /* \"#utility.yul\":9215:9262   */\n      mstore\n        /* \"#utility.yul\":9279:9410   */\n      tag_403\n        /* \"#utility.yul\":9405:9409   */\n      dup2\n        /* \"#utility.yul\":9279:9410   */\n      tag_278\n      jump\t// in\n    tag_403:\n        /* \"#utility.yul\":9271:9410   */\n      swap1\n      pop\n        /* \"#utility.yul\":8998:9417   */\n      swap2\n      swap1\n      pop\n      jump\t// out\n        /* \"#utility.yul\":9423:9865   */\n    tag_115:\n        /* \"#utility.yul\":9572:9576   */\n      0x00\n        /* \"#utility.yul\":9610:9612   */\n      0x60\n        /* \"#utility.yul\":9599:9608   */\n      dup3\n        /* \"#utility.yul\":9595:9613   */\n      add\n        /* \"#utility.yul\":9587:9613   */\n      swap1\n      pop\n        /* \"#utility.yul\":9623:9694   */\n      tag_405\n        /* \"#utility.yul\":9691:9692   */\n      0x00\n        /* \"#utility.yul\":9680:9689   */\n      dup4\n        /* \"#utility.yul\":9676:9693   */\n      add\n        /* \"#utility.yul\":9667:9673   */\n      dup7\n        /* \"#utility.yul\":9623:9694   */\n      tag_255\n      jump\t// in\n    tag_405:\n        /* \"#utility.yul\":9704:9776   */\n      tag_406\n        /* \"#utility.yul\":9772:9774   */\n      0x20\n        /* \"#utility.yul\":9761:9770   */\n      dup4\n        /* \"#utility.yul\":9757:9775   */\n      add\n        /* \"#utility.yul\":9748:9754   */\n      dup6\n        /* \"#utility.yul\":9704:9776   */\n      tag_255\n      jump\t// in\n    tag_406:\n        /* \"#utility.yul\":9786:9858   */\n      tag_407\n        /* \"#utility.yul\":9854:9856   */\n      0x40\n        /* \"#utility.yul\":9843:9852   */\n      dup4\n        /* \"#utility.yul\":9839:9857   */\n      add\n        /* \"#utility.yul\":9830:9836   */\n      dup5\n        /* \"#utility.yul\":9786:9858   */\n      tag_255\n      jump\t// in\n    tag_407:\n        /* \"#utility.yul\":9423:9865   */\n      swap5\n      swap4\n      pop\n      pop\n      pop\n      pop\n      jump\t// out\n        /* \"#utility.yul\":9871:10093   */\n    tag_279:\n        /* \"#utility.yul\":10011:10045   */\n      0x455243323020746f6b656e206d7573742062652067726561746572207468616e\n        /* \"#utility.yul\":10007:10008   */\n      0x00\n        /* \"#utility.yul\":9999:10005   */\n      dup3\n        /* \"#utility.yul\":9995:10009   */\n      add\n        /* \"#utility.yul\":9988:10046   */\n      mstore\n        /* \"#utility.yul\":10080:10085   */\n      0x20302e0000000000000000000000000000000000000000000000000000000000\n        /* \"#utility.yul\":10075:10077   */\n      0x20\n        /* \"#utility.yul\":10067:10073   */\n      dup3\n        /* \"#utility.yul\":10063:10078   */\n      add\n        /* \"#utility.yul\":10056:10086   */\n      mstore\n        /* \"#utility.yul\":9871:10093   */\n      pop\n      jump\t// out\n        /* \"#utility.yul\":10099:10465   */\n    tag_280:\n        /* \"#utility.yul\":10241:10244   */\n      0x00\n        /* \"#utility.yul\":10262:10329   */\n      tag_410\n        /* \"#utility.yul\":10326:10328   */\n      0x23\n        /* \"#utility.yul\":10321:10324   */\n      dup4\n        /* \"#utility.yul\":10262:10329   */\n      tag_265\n      jump\t// in\n    tag_410:\n        /* \"#utility.yul\":10255:10329   */\n      swap2\n      pop\n        /* \"#utility.yul\":10338:10431   */\n      tag_411\n        /* \"#utility.yul\":10427:10430   */\n      dup3\n        /* \"#utility.yul\":10338:10431   */\n      tag_279\n      jump\t// in\n    tag_411:\n        /* \"#utility.yul\":10456:10458   */\n      0x40\n        /* \"#utility.yul\":10451:10454   */\n      dup3\n        /* \"#utility.yul\":10447:10459   */\n      add\n        /* \"#utility.yul\":10440:10459   */\n      swap1\n      pop\n        /* \"#utility.yul\":10099:10465   */\n      swap2\n      swap1\n      pop\n      jump\t// out\n        /* \"#utility.yul\":10471:10890   */\n    tag_119:\n        /* \"#utility.yul\":10637:10641   */\n      0x00\n        /* \"#utility.yul\":10675:10677   */\n      0x20\n        /* \"#utility.yul\":10664:10673   */\n      dup3\n        /* \"#utility.yul\":10660:10678   */\n      add\n        /* \"#utility.yul\":10652:10678   */\n      swap1\n      pop\n        /* \"#utility.yul\":10724:10733   */\n      dup2\n        /* \"#utility.yul\":10718:10722   */\n      dup2\n        /* \"#utility.yul\":10714:10734   */\n      sub\n        /* \"#utility.yul\":10710:10711   */\n      0x00\n        /* \"#utility.yul\":10699:10708   */\n      dup4\n        /* \"#utility.yul\":10695:10712   */\n      add\n        /* \"#utility.yul\":10688:10735   */\n      mstore\n        /* \"#utility.yul\":10752:10883   */\n      tag_413\n        /* \"#utility.yul\":10878:10882   */\n      dup2\n        /* \"#utility.yul\":10752:10883   */\n      tag_280\n      jump\t// in\n    tag_413:\n        /* \"#utility.yul\":10744:10883   */\n      swap1\n      pop\n        /* \"#utility.yul\":10471:10890   */\n      swap2\n      swap1\n      pop\n      jump\t// out\n        /* \"#utility.yul\":10896:11075   */\n    tag_281:\n        /* \"#utility.yul\":11036:11067   */\n      0x4d757374206465706f736974206d6f7265207468616e2030204554482e000000\n        /* \"#utility.yul\":11032:11033   */\n      0x00\n        /* \"#utility.yul\":11024:11030   */\n      dup3\n        /* \"#utility.yul\":11020:11034   */\n      add\n        /* \"#utility.yul\":11013:11068   */\n      mstore\n        /* \"#utility.yul\":10896:11075   */\n      pop\n      jump\t// out\n        /* \"#utility.yul\":11081:11447   */\n    tag_282:\n        /* \"#utility.yul\":11223:11226   */\n      0x00\n        /* \"#utility.yul\":11244:11311   */\n      tag_416\n        /* \"#utility.yul\":11308:11310   */\n      0x1d\n        /* \"#utility.yul\":11303:11306   */\n      dup4\n        /* \"#utility.yul\":11244:11311   */\n      tag_265\n      jump\t// in\n    tag_416:\n        /* \"#utility.yul\":11237:11311   */\n      swap2\n      pop\n        /* \"#utility.yul\":11320:11413   */\n      tag_417\n        /* \"#utility.yul\":11409:11412   */\n      dup3\n        /* \"#utility.yul\":11320:11413   */\n      tag_281\n      jump\t// in\n    tag_417:\n        /* \"#utility.yul\":11438:11440   */\n      0x20\n        /* \"#utility.yul\":11433:11436   */\n      dup3\n        /* \"#utility.yul\":11429:11441   */\n      add\n        /* \"#utility.yul\":11422:11441   */\n      swap1\n      pop\n        /* \"#utility.yul\":11081:11447   */\n      swap2\n      swap1\n      pop\n      jump\t// out\n        /* \"#utility.yul\":11453:11872   */\n    tag_130:\n        /* \"#utility.yul\":11619:11623   */\n      0x00\n        /* \"#utility.yul\":11657:11659   */\n      0x20\n        /* \"#utility.yul\":11646:11655   */\n      dup3\n        /* \"#utility.yul\":11642:11660   */\n      add\n        /* \"#utility.yul\":11634:11660   */\n      swap1\n      pop\n        /* \"#utility.yul\":11706:11715   */\n      dup2\n        /* \"#utility.yul\":11700:11704   */\n      dup2\n        /* \"#utility.yul\":11696:11716   */\n      sub\n        /* \"#utility.yul\":11692:11693   */\n      0x00\n        /* \"#utility.yul\":11681:11690   */\n      dup4\n        /* \"#utility.yul\":11677:11694   */\n      add\n        /* \"#utility.yul\":11670:11717   */\n      mstore\n        /* \"#utility.yul\":11734:11865   */\n      tag_419\n        /* \"#utility.yul\":11860:11864   */\n      dup2\n        /* \"#utility.yul\":11734:11865   */\n      tag_282\n      jump\t// in\n    tag_419:\n        /* \"#utility.yul\":11726:11865   */\n      swap1\n      pop\n        /* \"#utility.yul\":11453:11872   */\n      swap2\n      swap1\n      pop\n      jump\t// out\n        /* \"#utility.yul\":11878:12069   */\n    tag_137:\n        /* \"#utility.yul\":11918:11921   */\n      0x00\n        /* \"#utility.yul\":11937:11957   */\n      tag_421\n        /* \"#utility.yul\":11955:11956   */\n      dup3\n        /* \"#utility.yul\":11937:11957   */\n      tag_252\n      jump\t// in\n    tag_421:\n        /* \"#utility.yul\":11932:11957   */\n      swap2\n      pop\n        /* \"#utility.yul\":11971:11991   */\n      tag_422\n        /* \"#utility.yul\":11989:11990   */\n      dup4\n        /* \"#utility.yul\":11971:11991   */\n      tag_252\n      jump\t// in\n    tag_422:\n        /* \"#utility.yul\":11966:11991   */\n      swap3\n      pop\n        /* \"#utility.yul\":12014:12015   */\n      dup3\n        /* \"#utility.yul\":12011:12012   */\n      dup3\n        /* \"#utility.yul\":12007:12016   */\n      add\n        /* \"#utility.yul\":12000:12016   */\n      swap1\n      pop\n        /* \"#utility.yul\":12035:12038   */\n      dup1\n        /* \"#utility.yul\":12032:12033   */\n      dup3\n        /* \"#utility.yul\":12029:12039   */\n      gt\n        /* \"#utility.yul\":12026:12062   */\n      iszero\n      tag_423\n      jumpi\n        /* \"#utility.yul\":12042:12060   */\n      tag_424\n      tag_272\n      jump\t// in\n    tag_424:\n        /* \"#utility.yul\":12026:12062   */\n    tag_423:\n        /* \"#utility.yul\":11878:12069   */\n      swap3\n      swap2\n      pop\n      pop\n      jump\t// out\n        /* \"#utility.yul\":12075:12407   */\n    tag_147:\n        /* \"#utility.yul\":12196:12200   */\n      0x00\n        /* \"#utility.yul\":12234:12236   */\n      0x40\n        /* \"#utility.yul\":12223:12232   */\n      dup3\n        /* \"#utility.yul\":12219:12237   */\n      add\n        /* \"#utility.yul\":12211:12237   */\n      swap1\n      pop\n        /* \"#utility.yul\":12247:12318   */\n      tag_426\n        /* \"#utility.yul\":12315:12316   */\n      0x00\n        /* \"#utility.yul\":12304:12313   */\n      dup4\n        /* \"#utility.yul\":12300:12317   */\n      add\n        /* \"#utility.yul\":12291:12297   */\n      dup6\n        /* \"#utility.yul\":12247:12318   */\n      tag_255\n      jump\t// in\n    tag_426:\n        /* \"#utility.yul\":12328:12400   */\n      tag_427\n        /* \"#utility.yul\":12396:12398   */\n      0x20\n        /* \"#utility.yul\":12385:12394   */\n      dup4\n        /* \"#utility.yul\":12381:12399   */\n      add\n        /* \"#utility.yul\":12372:12378   */\n      dup5\n        /* \"#utility.yul\":12328:12400   */\n      tag_255\n      jump\t// in\n    tag_427:\n        /* \"#utility.yul\":12075:12407   */\n      swap4\n      swap3\n      pop\n      pop\n      pop\n      jump\t// out\n        /* \"#utility.yul\":12413:12634   */\n    tag_283:\n        /* \"#utility.yul\":12553:12587   */\n      0x45544820616d6f756e74206d7573742062652067726561746572207468616e20\n        /* \"#utility.yul\":12549:12550   */\n      0x00\n        /* \"#utility.yul\":12541:12547   */\n      dup3\n        /* \"#utility.yul\":12537:12551   */\n      add\n        /* \"#utility.yul\":12530:12588   */\n      mstore\n        /* \"#utility.yul\":12622:12626   */\n      0x302e000000000000000000000000000000000000000000000000000000000000\n        /* \"#utility.yul\":12617:12619   */\n      0x20\n        /* \"#utility.yul\":12609:12615   */\n      dup3\n        /* \"#utility.yul\":12605:12620   */\n      add\n        /* \"#utility.yul\":12598:12627   */\n      mstore\n        /* \"#utility.yul\":12413:12634   */\n      pop\n      jump\t// out\n        /* \"#utility.yul\":12640:13006   */\n    tag_284:\n        /* \"#utility.yul\":12782:12785   */\n      0x00\n        /* \"#utility.yul\":12803:12870   */\n      tag_430\n        /* \"#utility.yul\":12867:12869   */\n      0x22\n        /* \"#utility.yul\":12862:12865   */\n      dup4\n        /* \"#utility.yul\":12803:12870   */\n      tag_265\n      jump\t// in\n    tag_430:\n        /* \"#utility.yul\":12796:12870   */\n      swap2\n      pop\n        /* \"#utility.yul\":12879:12972   */\n      tag_431\n        /* \"#utility.yul\":12968:12971   */\n      dup3\n        /* \"#utility.yul\":12879:12972   */\n      tag_283\n      jump\t// in\n    tag_431:\n        /* \"#utility.yul\":12997:12999   */\n      0x40\n        /* \"#utility.yul\":12992:12995   */\n      dup3\n        /* \"#utility.yul\":12988:13000   */\n      add\n        /* \"#utility.yul\":12981:13000   */\n      swap1\n      pop\n        /* \"#utility.yul\":12640:13006   */\n      swap2\n      swap1\n      pop\n      jump\t// out\n        /* \"#utility.yul\":13012:13431   */\n    tag_151:\n        /* \"#utility.yul\":13178:13182   */\n      0x00\n        /* \"#utility.yul\":13216:13218   */\n      0x20\n        /* \"#utility.yul\":13205:13214   */\n      dup3\n        /* \"#utility.yul\":13201:13219   */\n      add\n        /* \"#utility.yul\":13193:13219   */\n      swap1\n      pop\n        /* \"#utility.yul\":13265:13274   */\n      dup2\n        /* \"#utility.yul\":13259:13263   */\n      dup2\n        /* \"#utility.yul\":13255:13275   */\n      sub\n        /* \"#utility.yul\":13251:13252   */\n      0x00\n        /* \"#utility.yul\":13240:13249   */\n      dup4\n        /* \"#utility.yul\":13236:13253   */\n      add\n        /* \"#utility.yul\":13229:13276   */\n      mstore\n        /* \"#utility.yul\":13293:13424   */\n      tag_433\n        /* \"#utility.yul\":13419:13423   */\n      dup2\n        /* \"#utility.yul\":13293:13424   */\n      tag_284\n      jump\t// in\n    tag_433:\n        /* \"#utility.yul\":13285:13424   */\n      swap1\n      pop\n        /* \"#utility.yul\":13012:13431   */\n      swap2\n      swap1\n      pop\n      jump\t// out\n        /* \"#utility.yul\":13437:13659   */\n    tag_285:\n        /* \"#utility.yul\":13577:13611   */\n      0x4d75737420696e707574206d6f7265207468616e203020455243323020546f6b\n        /* \"#utility.yul\":13573:13574   */\n      0x00\n        /* \"#utility.yul\":13565:13571   */\n      dup3\n        /* \"#utility.yul\":13561:13575   */\n      add\n        /* \"#utility.yul\":13554:13612   */\n      mstore\n        /* \"#utility.yul\":13646:13651   */\n      0x656e2e0000000000000000000000000000000000000000000000000000000000\n        /* \"#utility.yul\":13641:13643   */\n      0x20\n        /* \"#utility.yul\":13633:13639   */\n      dup3\n        /* \"#utility.yul\":13629:13644   */\n      add\n        /* \"#utility.yul\":13622:13652   */\n      mstore\n        /* \"#utility.yul\":13437:13659   */\n      pop\n      jump\t// out\n        /* \"#utility.yul\":13665:14031   */\n    tag_286:\n        /* \"#utility.yul\":13807:13810   */\n      0x00\n        /* \"#utility.yul\":13828:13895   */\n      tag_436\n        /* \"#utility.yul\":13892:13894   */\n      0x23\n        /* \"#utility.yul\":13887:13890   */\n      dup4\n        /* \"#utility.yul\":13828:13895   */\n      tag_265\n      jump\t// in\n    tag_436:\n        /* \"#utility.yul\":13821:13895   */\n      swap2\n      pop\n        /* \"#utility.yul\":13904:13997   */\n      tag_437\n        /* \"#utility.yul\":13993:13996   */\n      dup3\n        /* \"#utility.yul\":13904:13997   */\n      tag_285\n      jump\t// in\n    tag_437:\n        /* \"#utility.yul\":14022:14024   */\n      0x40\n        /* \"#utility.yul\":14017:14020   */\n      dup3\n        /* \"#utility.yul\":14013:14025   */\n      add\n        /* \"#utility.yul\":14006:14025   */\n      swap1\n      pop\n        /* \"#utility.yul\":13665:14031   */\n      swap2\n      swap1\n      pop\n      jump\t// out\n        /* \"#utility.yul\":14037:14456   */\n    tag_162:\n        /* \"#utility.yul\":14203:14207   */\n      0x00\n        /* \"#utility.yul\":14241:14243   */\n      0x20\n        /* \"#utility.yul\":14230:14239   */\n      dup3\n        /* \"#utility.yul\":14226:14244   */\n      add\n        /* \"#utility.yul\":14218:14244   */\n      swap1\n      pop\n        /* \"#utility.yul\":14290:14299   */\n      dup2\n        /* \"#utility.yul\":14284:14288   */\n      dup2\n        /* \"#utility.yul\":14280:14300   */\n      sub\n        /* \"#utility.yul\":14276:14277   */\n      0x00\n        /* \"#utility.yul\":14265:14274   */\n      dup4\n        /* \"#utility.yul\":14261:14278   */\n      add\n        /* \"#utility.yul\":14254:14301   */\n      mstore\n        /* \"#utility.yul\":14318:14449   */\n      tag_439\n        /* \"#utility.yul\":14444:14448   */\n      dup2\n        /* \"#utility.yul\":14318:14449   */\n      tag_286\n      jump\t// in\n    tag_439:\n        /* \"#utility.yul\":14310:14449   */\n      swap1\n      pop\n        /* \"#utility.yul\":14037:14456   */\n      swap2\n      swap1\n      pop\n      jump\t// out\n        /* \"#utility.yul\":14462:14635   */\n    tag_287:\n        /* \"#utility.yul\":14602:14627   */\n      0x496e73756666696369656e74206c69717569646974792e000000000000000000\n        /* \"#utility.yul\":14598:14599   */\n      0x00\n        /* \"#utility.yul\":14590:14596   */\n      dup3\n        /* \"#utility.yul\":14586:14600   */\n      add\n        /* \"#utility.yul\":14579:14628   */\n      mstore\n        /* \"#utility.yul\":14462:14635   */\n      pop\n      jump\t// out\n        /* \"#utility.yul\":14641:15007   */\n    tag_288:\n        /* \"#utility.yul\":14783:14786   */\n      0x00\n        /* \"#utility.yul\":14804:14871   */\n      tag_442\n        /* \"#utility.yul\":14868:14870   */\n      0x17\n        /* \"#utility.yul\":14863:14866   */\n      dup4\n        /* \"#utility.yul\":14804:14871   */\n      tag_265\n      jump\t// in\n    tag_442:\n        /* \"#utility.yul\":14797:14871   */\n      swap2\n      pop\n        /* \"#utility.yul\":14880:14973   */\n      tag_443\n        /* \"#utility.yul\":14969:14972   */\n      dup3\n        /* \"#utility.yul\":14880:14973   */\n      tag_287\n      jump\t// in\n    tag_443:\n        /* \"#utility.yul\":14998:15000   */\n      0x20\n        /* \"#utility.yul\":14993:14996   */\n      dup3\n        /* \"#utility.yul\":14989:15001   */\n      add\n        /* \"#utility.yul\":14982:15001   */\n      swap1\n      pop\n        /* \"#utility.yul\":14641:15007   */\n      swap2\n      swap1\n      pop\n      jump\t// out\n        /* \"#utility.yul\":15013:15432   */\n    tag_169:\n        /* \"#utility.yul\":15179:15183   */\n      0x00\n        /* \"#utility.yul\":15217:15219   */\n      0x20\n        /* \"#utility.yul\":15206:15215   */\n      dup3\n        /* \"#utility.yul\":15202:15220   */\n      add\n        /* \"#utility.yul\":15194:15220   */\n      swap1\n      pop\n        /* \"#utility.yul\":15266:15275   */\n      dup2\n        /* \"#utility.yul\":15260:15264   */\n      dup2\n        /* \"#utility.yul\":15256:15276   */\n      sub\n        /* \"#utility.yul\":15252:15253   */\n      0x00\n        /* \"#utility.yul\":15241:15250   */\n      dup4\n        /* \"#utility.yul\":15237:15254   */\n      add\n        /* \"#utility.yul\":15230:15277   */\n      mstore\n        /* \"#utility.yul\":15294:15425   */\n      tag_445\n        /* \"#utility.yul\":15420:15424   */\n      dup2\n        /* \"#utility.yul\":15294:15425   */\n      tag_288\n      jump\t// in\n    tag_445:\n        /* \"#utility.yul\":15286:15425   */\n      swap1\n      pop\n        /* \"#utility.yul\":15013:15432   */\n      swap2\n      swap1\n      pop\n      jump\t// out\n        /* \"#utility.yul\":15438:15609   */\n    tag_289:\n        /* \"#utility.yul\":15578:15601   */\n      0x496e76616c6964207377617020657374696d6174650000000000000000000000\n        /* \"#utility.yul\":15574:15575   */\n      0x00\n        /* \"#utility.yul\":15566:15572   */\n      dup3\n        /* \"#utility.yul\":15562:15576   */\n      add\n        /* \"#utility.yul\":15555:15602   */\n      mstore\n        /* \"#utility.yul\":15438:15609   */\n      pop\n      jump\t// out\n        /* \"#utility.yul\":15615:15981   */\n    tag_290:\n        /* \"#utility.yul\":15757:15760   */\n      0x00\n        /* \"#utility.yul\":15778:15845   */\n      tag_448\n        /* \"#utility.yul\":15842:15844   */\n      0x15\n        /* \"#utility.yul\":15837:15840   */\n      dup4\n        /* \"#utility.yul\":15778:15845   */\n      tag_265\n      jump\t// in\n    tag_448:\n        /* \"#utility.yul\":15771:15845   */\n      swap2\n      pop\n        /* \"#utility.yul\":15854:15947   */\n      tag_449\n        /* \"#utility.yul\":15943:15946   */\n      dup3\n        /* \"#utility.yul\":15854:15947   */\n      tag_289\n      jump\t// in\n    tag_449:\n        /* \"#utility.yul\":15972:15974   */\n      0x20\n        /* \"#utility.yul\":15967:15970   */\n      dup3\n        /* \"#utility.yul\":15963:15975   */\n      add\n        /* \"#utility.yul\":15956:15975   */\n      swap1\n      pop\n        /* \"#utility.yul\":15615:15981   */\n      swap2\n      swap1\n      pop\n      jump\t// out\n        /* \"#utility.yul\":15987:16406   */\n    tag_176:\n        /* \"#utility.yul\":16153:16157   */\n      0x00\n        /* \"#utility.yul\":16191:16193   */\n      0x20\n        /* \"#utility.yul\":16180:16189   */\n      dup3\n        /* \"#utility.yul\":16176:16194   */\n      add\n        /* \"#utility.yul\":16168:16194   */\n      swap1\n      pop\n        /* \"#utility.yul\":16240:16249   */\n      dup2\n        /* \"#utility.yul\":16234:16238   */\n      dup2\n        /* \"#utility.yul\":16230:16250   */\n      sub\n        /* \"#utility.yul\":16226:16227   */\n      0x00\n        /* \"#utility.yul\":16215:16224   */\n      dup4\n        /* \"#utility.yul\":16211:16228   */\n      add\n        /* \"#utility.yul\":16204:16251   */\n      mstore\n        /* \"#utility.yul\":16268:16399   */\n      tag_451\n        /* \"#utility.yul\":16394:16398   */\n      dup2\n        /* \"#utility.yul\":16268:16399   */\n      tag_290\n      jump\t// in\n    tag_451:\n        /* \"#utility.yul\":16260:16399   */\n      swap1\n      pop\n        /* \"#utility.yul\":15987:16406   */\n      swap2\n      swap1\n      pop\n      jump\t// out\n        /* \"#utility.yul\":16412:16854   */\n    tag_187:\n        /* \"#utility.yul\":16561:16565   */\n      0x00\n        /* \"#utility.yul\":16599:16601   */\n      0x60\n        /* \"#utility.yul\":16588:16597   */\n      dup3\n        /* \"#utility.yul\":16584:16602   */\n      add\n        /* \"#utility.yul\":16576:16602   */\n      swap1\n      pop\n        /* \"#utility.yul\":16612:16683   */\n      tag_453\n        /* \"#utility.yul\":16680:16681   */\n      0x00\n        /* \"#utility.yul\":16669:16678   */\n      dup4\n        /* \"#utility.yul\":16665:16682   */\n      add\n        /* \"#utility.yul\":16656:16662   */\n      dup7\n        /* \"#utility.yul\":16612:16683   */\n      tag_270\n      jump\t// in\n    tag_453:\n        /* \"#utility.yul\":16693:16765   */\n      tag_454\n        /* \"#utility.yul\":16761:16763   */\n      0x20\n        /* \"#utility.yul\":16750:16759   */\n      dup4\n        /* \"#utility.yul\":16746:16764   */\n      add\n        /* \"#utility.yul\":16737:16743   */\n      dup6\n        /* \"#utility.yul\":16693:16765   */\n      tag_270\n      jump\t// in\n    tag_454:\n        /* \"#utility.yul\":16775:16847   */\n      tag_455\n        /* \"#utility.yul\":16843:16845   */\n      0x40\n        /* \"#utility.yul\":16832:16841   */\n      dup4\n        /* \"#utility.yul\":16828:16846   */\n      add\n        /* \"#utility.yul\":16819:16825   */\n      dup5\n        /* \"#utility.yul\":16775:16847   */\n      tag_255\n      jump\t// in\n    tag_455:\n        /* \"#utility.yul\":16412:16854   */\n      swap5\n      swap4\n      pop\n      pop\n      pop\n      pop\n      jump\t// out\n        /* \"#utility.yul\":16860:17031   */\n    tag_291:\n        /* \"#utility.yul\":17000:17023   */\n      0x4552433230207472616e73666572206661696c65640000000000000000000000\n        /* \"#utility.yul\":16996:16997   */\n      0x00\n        /* \"#utility.yul\":16988:16994   */\n      dup3\n        /* \"#utility.yul\":16984:16998   */\n      add\n        /* \"#utility.yul\":16977:17024   */\n      mstore\n        /* \"#utility.yul\":16860:17031   */\n      pop\n      jump\t// out\n        /* \"#utility.yul\":17037:17403   */\n    tag_292:\n        /* \"#utility.yul\":17179:17182   */\n      0x00\n        /* \"#utility.yul\":17200:17267   */\n      tag_458\n        /* \"#utility.yul\":17264:17266   */\n      0x15\n        /* \"#utility.yul\":17259:17262   */\n      dup4\n        /* \"#utility.yul\":17200:17267   */\n      tag_265\n      jump\t// in\n    tag_458:\n        /* \"#utility.yul\":17193:17267   */\n      swap2\n      pop\n        /* \"#utility.yul\":17276:17369   */\n      tag_459\n        /* \"#utility.yul\":17365:17368   */\n      dup3\n        /* \"#utility.yul\":17276:17369   */\n      tag_291\n      jump\t// in\n    tag_459:\n        /* \"#utility.yul\":17394:17396   */\n      0x20\n        /* \"#utility.yul\":17389:17392   */\n      dup3\n        /* \"#utility.yul\":17385:17397   */\n      add\n        /* \"#utility.yul\":17378:17397   */\n      swap1\n      pop\n        /* \"#utility.yul\":17037:17403   */\n      swap2\n      swap1\n      pop\n      jump\t// out\n        /* \"#utility.yul\":17409:17828   */\n    tag_193:\n        /* \"#utility.yul\":17575:17579   */\n      0x00\n        /* \"#utility.yul\":17613:17615   */\n      0x20\n        /* \"#utility.yul\":17602:17611   */\n      dup3\n        /* \"#utility.yul\":17598:17616   */\n      add\n        /* \"#utility.yul\":17590:17616   */\n      swap1\n      pop\n        /* \"#utility.yul\":17662:17671   */\n      dup2\n        /* \"#utility.yul\":17656:17660   */\n      dup2\n        /* \"#utility.yul\":17652:17672   */\n      sub\n        /* \"#utility.yul\":17648:17649   */\n      0x00\n        /* \"#utility.yul\":17637:17646   */\n      dup4\n        /* \"#utility.yul\":17633:17650   */\n      add\n        /* \"#utility.yul\":17626:17673   */\n      mstore\n        /* \"#utility.yul\":17690:17821   */\n      tag_461\n        /* \"#utility.yul\":17816:17820   */\n      dup2\n        /* \"#utility.yul\":17690:17821   */\n      tag_292\n      jump\t// in\n    tag_461:\n        /* \"#utility.yul\":17682:17821   */\n      swap1\n      pop\n        /* \"#utility.yul\":17409:17828   */\n      swap2\n      swap1\n      pop\n      jump\t// out\n        /* \"#utility.yul\":17834:18004   */\n    tag_293:\n        /* \"#utility.yul\":17974:17996   */\n      0x496e76616c696420737761702072657175657374000000000000000000000000\n        /* \"#utility.yul\":17970:17971   */\n      0x00\n        /* \"#utility.yul\":17962:17968   */\n      dup3\n        /* \"#utility.yul\":17958:17972   */\n      add\n        /* \"#utility.yul\":17951:17997   */\n      mstore\n        /* \"#utility.yul\":17834:18004   */\n      pop\n      jump\t// out\n        /* \"#utility.yul\":18010:18376   */\n    tag_294:\n        /* \"#utility.yul\":18152:18155   */\n      0x00\n        /* \"#utility.yul\":18173:18240   */\n      tag_464\n        /* \"#utility.yul\":18237:18239   */\n      0x14\n        /* \"#utility.yul\":18232:18235   */\n      dup4\n        /* \"#utility.yul\":18173:18240   */\n      tag_265\n      jump\t// in\n    tag_464:\n        /* \"#utility.yul\":18166:18240   */\n      swap2\n      pop\n        /* \"#utility.yul\":18249:18342   */\n      tag_465\n        /* \"#utility.yul\":18338:18341   */\n      dup3\n        /* \"#utility.yul\":18249:18342   */\n      tag_293\n      jump\t// in\n    tag_465:\n        /* \"#utility.yul\":18367:18369   */\n      0x20\n        /* \"#utility.yul\":18362:18365   */\n      dup3\n        /* \"#utility.yul\":18358:18370   */\n      add\n        /* \"#utility.yul\":18351:18370   */\n      swap1\n      pop\n        /* \"#utility.yul\":18010:18376   */\n      swap2\n      swap1\n      pop\n      jump\t// out\n        /* \"#utility.yul\":18382:18801   */\n    tag_200:\n        /* \"#utility.yul\":18548:18552   */\n      0x00\n        /* \"#utility.yul\":18586:18588   */\n      0x20\n        /* \"#utility.yul\":18575:18584   */\n      dup3\n        /* \"#utility.yul\":18571:18589   */\n      add\n        /* \"#utility.yul\":18563:18589   */\n      swap1\n      pop\n        /* \"#utility.yul\":18635:18644   */\n      dup2\n        /* \"#utility.yul\":18629:18633   */\n      dup2\n        /* \"#utility.yul\":18625:18645   */\n      sub\n        /* \"#utility.yul\":18621:18622   */\n      0x00\n        /* \"#utility.yul\":18610:18619   */\n      dup4\n        /* \"#utility.yul\":18606:18623   */\n      add\n        /* \"#utility.yul\":18599:18646   */\n      mstore\n        /* \"#utility.yul\":18663:18794   */\n      tag_467\n        /* \"#utility.yul\":18789:18793   */\n      dup2\n        /* \"#utility.yul\":18663:18794   */\n      tag_294\n      jump\t// in\n    tag_467:\n        /* \"#utility.yul\":18655:18794   */\n      swap1\n      pop\n        /* \"#utility.yul\":18382:18801   */\n      swap2\n      swap1\n      pop\n      jump\t// out\n        /* \"#utility.yul\":18807:18984   */\n    tag_295:\n        /* \"#utility.yul\":18947:18976   */\n      0x4d75737420696e707574206d6f7265207468616e2030204554482e0000000000\n        /* \"#utility.yul\":18943:18944   */\n      0x00\n        /* \"#utility.yul\":18935:18941   */\n      dup3\n        /* \"#utility.yul\":18931:18945   */\n      add\n        /* \"#utility.yul\":18924:18977   */\n      mstore\n        /* \"#utility.yul\":18807:18984   */\n      pop\n      jump\t// out\n        /* \"#utility.yul\":18990:19356   */\n    tag_296:\n        /* \"#utility.yul\":19132:19135   */\n      0x00\n        /* \"#utility.yul\":19153:19220   */\n      tag_470\n        /* \"#utility.yul\":19217:19219   */\n      0x1b\n        /* \"#utility.yul\":19212:19215   */\n      dup4\n        /* \"#utility.yul\":19153:19220   */\n      tag_265\n      jump\t// in\n    tag_470:\n        /* \"#utility.yul\":19146:19220   */\n      swap2\n      pop\n        /* \"#utility.yul\":19229:19322   */\n      tag_471\n        /* \"#utility.yul\":19318:19321   */\n      dup3\n        /* \"#utility.yul\":19229:19322   */\n      tag_295\n      jump\t// in\n    tag_471:\n        /* \"#utility.yul\":19347:19349   */\n      0x20\n        /* \"#utility.yul\":19342:19345   */\n      dup3\n        /* \"#utility.yul\":19338:19350   */\n      add\n        /* \"#utility.yul\":19331:19350   */\n      swap1\n      pop\n        /* \"#utility.yul\":18990:19356   */\n      swap2\n      swap1\n      pop\n      jump\t// out\n        /* \"#utility.yul\":19362:19781   */\n    tag_208:\n        /* \"#utility.yul\":19528:19532   */\n      0x00\n        /* \"#utility.yul\":19566:19568   */\n      0x20\n        /* \"#utility.yul\":19555:19564   */\n      dup3\n        /* \"#utility.yul\":19551:19569   */\n      add\n        /* \"#utility.yul\":19543:19569   */\n      swap1\n      pop\n        /* \"#utility.yul\":19615:19624   */\n      dup2\n        /* \"#utility.yul\":19609:19613   */\n      dup2\n        /* \"#utility.yul\":19605:19625   */\n      sub\n        /* \"#utility.yul\":19601:19602   */\n      0x00\n        /* \"#utility.yul\":19590:19599   */\n      dup4\n        /* \"#utility.yul\":19586:19603   */\n      add\n        /* \"#utility.yul\":19579:19626   */\n      mstore\n        /* \"#utility.yul\":19643:19774   */\n      tag_473\n        /* \"#utility.yul\":19769:19773   */\n      dup2\n        /* \"#utility.yul\":19643:19774   */\n      tag_296\n      jump\t// in\n    tag_473:\n        /* \"#utility.yul\":19635:19774   */\n      swap1\n      pop\n        /* \"#utility.yul\":19362:19781   */\n      swap2\n      swap1\n      pop\n      jump\t// out\n        /* \"#utility.yul\":19787:19966   */\n    tag_297:\n        /* \"#utility.yul\":19927:19958   */\n      0x4d757374206d61696e7461696e204554482f455243323020726174696f000000\n        /* \"#utility.yul\":19923:19924   */\n      0x00\n        /* \"#utility.yul\":19915:19921   */\n      dup3\n        /* \"#utility.yul\":19911:19925   */\n      add\n        /* \"#utility.yul\":19904:19959   */\n      mstore\n        /* \"#utility.yul\":19787:19966   */\n      pop\n      jump\t// out\n        /* \"#utility.yul\":19972:20338   */\n    tag_298:\n        /* \"#utility.yul\":20114:20117   */\n      0x00\n        /* \"#utility.yul\":20135:20202   */\n      tag_476\n        /* \"#utility.yul\":20199:20201   */\n      0x1d\n        /* \"#utility.yul\":20194:20197   */\n      dup4\n        /* \"#utility.yul\":20135:20202   */\n      tag_265\n      jump\t// in\n    tag_476:\n        /* \"#utility.yul\":20128:20202   */\n      swap2\n      pop\n        /* \"#utility.yul\":20211:20304   */\n      tag_477\n        /* \"#utility.yul\":20300:20303   */\n      dup3\n        /* \"#utility.yul\":20211:20304   */\n      tag_297\n      jump\t// in\n    tag_477:\n        /* \"#utility.yul\":20329:20331   */\n      0x20\n        /* \"#utility.yul\":20324:20327   */\n      dup3\n        /* \"#utility.yul\":20320:20332   */\n      add\n        /* \"#utility.yul\":20313:20332   */\n      swap1\n      pop\n        /* \"#utility.yul\":19972:20338   */\n      swap2\n      swap1\n      pop\n      jump\t// out\n        /* \"#utility.yul\":20344:20763   */\n    tag_228:\n        /* \"#utility.yul\":20510:20514   */\n      0x00\n        /* \"#utility.yul\":20548:20550   */\n      0x20\n        /* \"#utility.yul\":20537:20546   */\n      dup3\n        /* \"#utility.yul\":20533:20551   */\n      add\n        /* \"#utility.yul\":20525:20551   */\n      swap1\n      pop\n        /* \"#utility.yul\":20597:20606   */\n      dup2\n        /* \"#utility.yul\":20591:20595   */\n      dup2\n        /* \"#utility.yul\":20587:20607   */\n      sub\n        /* \"#utility.yul\":20583:20584   */\n      0x00\n        /* \"#utility.yul\":20572:20581   */\n      dup4\n        /* \"#utility.yul\":20568:20585   */\n      add\n        /* \"#utility.yul\":20561:20608   */\n      mstore\n        /* \"#utility.yul\":20625:20756   */\n      tag_479\n        /* \"#utility.yul\":20751:20755   */\n      dup2\n        /* \"#utility.yul\":20625:20756   */\n      tag_298\n      jump\t// in\n    tag_479:\n        /* \"#utility.yul\":20617:20756   */\n      swap1\n      pop\n        /* \"#utility.yul\":20344:20763   */\n      swap2\n      swap1\n      pop\n      jump\t// out\n        /* \"#utility.yul\":20769:21322   */\n    tag_237:\n        /* \"#utility.yul\":20946:20950   */\n      0x00\n        /* \"#utility.yul\":20984:20987   */\n      0x80\n        /* \"#utility.yul\":20973:20982   */\n      dup3\n        /* \"#utility.yul\":20969:20988   */\n      add\n        /* \"#utility.yul\":20961:20988   */\n      swap1\n      pop\n        /* \"#utility.yul\":20998:21069   */\n      tag_481\n        /* \"#utility.yul\":21066:21067   */\n      0x00\n        /* \"#utility.yul\":21055:21064   */\n      dup4\n        /* \"#utility.yul\":21051:21068   */\n      add\n        /* \"#utility.yul\":21042:21048   */\n      dup8\n        /* \"#utility.yul\":20998:21069   */\n      tag_270\n      jump\t// in\n    tag_481:\n        /* \"#utility.yul\":21079:21151   */\n      tag_482\n        /* \"#utility.yul\":21147:21149   */\n      0x20\n        /* \"#utility.yul\":21136:21145   */\n      dup4\n        /* \"#utility.yul\":21132:21150   */\n      add\n        /* \"#utility.yul\":21123:21129   */\n      dup7\n        /* \"#utility.yul\":21079:21151   */\n      tag_255\n      jump\t// in\n    tag_482:\n        /* \"#utility.yul\":21161:21233   */\n      tag_483\n        /* \"#utility.yul\":21229:21231   */\n      0x40\n        /* \"#utility.yul\":21218:21227   */\n      dup4\n        /* \"#utility.yul\":21214:21232   */\n      add\n        /* \"#utility.yul\":21205:21211   */\n      dup6\n        /* \"#utility.yul\":21161:21233   */\n      tag_255\n      jump\t// in\n    tag_483:\n        /* \"#utility.yul\":21243:21315   */\n      tag_484\n        /* \"#utility.yul\":21311:21313   */\n      0x60\n        /* \"#utility.yul\":21300:21309   */\n      dup4\n        /* \"#utility.yul\":21296:21314   */\n      add\n        /* \"#utility.yul\":21287:21293   */\n      dup5\n        /* \"#utility.yul\":21243:21315   */\n      tag_255\n      jump\t// in\n    tag_484:\n        /* \"#utility.yul\":20769:21322   */\n      swap6\n      swap5\n      pop\n      pop\n      pop\n      pop\n      pop\n      jump\t// out\n        /* \"#utility.yul\":21328:21505   */\n    tag_299:\n        /* \"#utility.yul\":21468:21497   */\n      0x455448206d7573742062652067726561746572207468616e20302e0000000000\n        /* \"#utility.yul\":21464:21465   */\n      0x00\n        /* \"#utility.yul\":21456:21462   */\n      dup3\n        /* \"#utility.yul\":21452:21466   */\n      add\n        /* \"#utility.yul\":21445:21498   */\n      mstore\n        /* \"#utility.yul\":21328:21505   */\n      pop\n      jump\t// out\n        /* \"#utility.yul\":21511:21877   */\n    tag_300:\n        /* \"#utility.yul\":21653:21656   */\n      0x00\n        /* \"#utility.yul\":21674:21741   */\n      tag_487\n        /* \"#utility.yul\":21738:21740   */\n      0x1b\n        /* \"#utility.yul\":21733:21736   */\n      dup4\n        /* \"#utility.yul\":21674:21741   */\n      tag_265\n      jump\t// in\n    tag_487:\n        /* \"#utility.yul\":21667:21741   */\n      swap2\n      pop\n        /* \"#utility.yul\":21750:21843   */\n      tag_488\n        /* \"#utility.yul\":21839:21842   */\n      dup3\n        /* \"#utility.yul\":21750:21843   */\n      tag_299\n      jump\t// in\n    tag_488:\n        /* \"#utility.yul\":21868:21870   */\n      0x20\n        /* \"#utility.yul\":21863:21866   */\n      dup3\n        /* \"#utility.yul\":21859:21871   */\n      add\n        /* \"#utility.yul\":21852:21871   */\n      swap1\n      pop\n        /* \"#utility.yul\":21511:21877   */\n      swap2\n      swap1\n      pop\n      jump\t// out\n        /* \"#utility.yul\":21883:22302   */\n    tag_241:\n        /* \"#utility.yul\":22049:22053   */\n      0x00\n        /* \"#utility.yul\":22087:22089   */\n      0x20\n        /* \"#utility.yul\":22076:22085   */\n      dup3\n        /* \"#utility.yul\":22072:22090   */\n      add\n        /* \"#utility.yul\":22064:22090   */\n      swap1\n      pop\n        /* \"#utility.yul\":22136:22145   */\n      dup2\n        /* \"#utility.yul\":22130:22134   */\n      dup2\n        /* \"#utility.yul\":22126:22146   */\n      sub\n        /* \"#utility.yul\":22122:22123   */\n      0x00\n        /* \"#utility.yul\":22111:22120   */\n      dup4\n        /* \"#utility.yul\":22107:22124   */\n      add\n        /* \"#utility.yul\":22100:22147   */\n      mstore\n        /* \"#utility.yul\":22164:22295   */\n      tag_490\n        /* \"#utility.yul\":22290:22294   */\n      dup2\n        /* \"#utility.yul\":22164:22295   */\n      tag_300\n      jump\t// in\n    tag_490:\n        /* \"#utility.yul\":22156:22295   */\n      swap1\n      pop\n        /* \"#utility.yul\":21883:22302   */\n      swap2\n      swap1\n      pop\n      jump\t// out\n\n    auxdata: 0xa26469706673582212207bd669e82bad2e117656b5dd4128b8040bc5e76af474fa0121685629cf403e1c64736f6c63430008130033\n}\n",
				"bytecode": {
					"linkReferences": {},
					"object": "60806040523480156200001157600080fd5b506040516200222c3803806200222c8339818101604052810190620000379190620000e8565b806000806101000a81548173ffffffffffffffffffffffffffffffffffffffff021916908373ffffffffffffffffffffffffffffffffffffffff160217905550506200011a565b600080fd5b600073ffffffffffffffffffffffffffffffffffffffff82169050919050565b6000620000b08262000083565b9050919050565b620000c281620000a3565b8114620000ce57600080fd5b50565b600081519050620000e281620000b7565b92915050565b6000602082840312156200010157620001006200007e565b5b60006200011184828501620000d1565b91505092915050565b612102806200012a6000396000f3fe6080604052600436106100c25760003560e01c80638a13eea71161007f578063c8ab832511610059578063c8ab832514610283578063e0ba2000146102c0578063eb521a4c146102eb578063ed7bf8681461031b576100c2565b80638a13eea7146101f0578063903875f71461021b578063a932492f14610258576100c2565b80630a861f2a146100c75780631cde6226146100f0578063240f3dea1461011b57806329cbab3e146101585780636fd0ea921461017657806379ed3562146101b3575b600080fd5b3480156100d357600080fd5b506100ee60048036038101906100e991906115aa565b610358565b005b3480156100fc57600080fd5b506101056106f8565b60405161011291906115e6565b60405180910390f35b34801561012757600080fd5b50610142600480360381019061013d91906115aa565b6106fe565b60405161014f91906115e6565b60405180910390f35b61016061081a565b60405161016d91906115e6565b60405180910390f35b34801561018257600080fd5b5061019d6004803603810190610198919061165f565b610a54565b6040516101aa91906115e6565b60405180910390f35b3480156101bf57600080fd5b506101da60048036038101906101d591906115aa565b610a6c565b6040516101e791906115e6565b60405180910390f35b3480156101fc57600080fd5b50610205610b87565b60405161021291906116eb565b60405180910390f35b34801561022757600080fd5b50610242600480360381019061023d91906115aa565b610bab565b60405161024f91906115e6565b60405180910390f35b34801561026457600080fd5b5061026d610d5e565b60405161027a91906115e6565b60405180910390f35b34801561028f57600080fd5b506102aa60048036038101906102a591906115aa565b610d64565b6040516102b791906115e6565b60405180910390f35b3480156102cc57600080fd5b506102d5611076565b6040516102e291906115e6565b60405180910390f35b610305600480360381019061030091906115aa565b6110bd565b60405161031291906115e6565b60405180910390f35b34801561032757600080fd5b50610342600480360381019061033d91906115aa565b611453565b60405161034f91906115e6565b60405180910390f35b6000811161039b576040517f08c379a000000000000000000000000000000000000000000000000000000000815260040161039290611789565b60405180910390fd5b80600360003373ffffffffffffffffffffffffffffffffffffffff1673ffffffffffffffffffffffffffffffffffffffff16815260200190815260200160002054101561041d576040517f08c379a00000000000000000000000000000000000000000000000000000000081526004016104149061181b565b60405180910390fd5b600047905060008060009054906101000a900473ffffffffffffffffffffffffffffffffffffffff1673ffffffffffffffffffffffffffffffffffffffff166370a08231306040518263ffffffff1660e01b815260040161047e919061184a565b602060405180830381865afa15801561049b573d6000803e3d6000fd5b505050506040513d601f19601f820116820180604052508101906104bf919061187a565b9050600060015483856104d291906118d6565b6104dc9190611947565b9050600060015483866104ef91906118d6565b6104f99190611947565b905084600360003373ffffffffffffffffffffffffffffffffffffffff1673ffffffffffffffffffffffffffffffffffffffff168152602001908152602001600020600082825461054a9190611978565b9250508190555084600160008282546105639190611978565b925050819055503373ffffffffffffffffffffffffffffffffffffffff166108fc839081150290604051600060405180830381858888f193505050501580156105b0573d6000803e3d6000fd5b5060008054906101000a900473ffffffffffffffffffffffffffffffffffffffff1673ffffffffffffffffffffffffffffffffffffffff1663a9059cbb33836040518363ffffffff1660e01b815260040161060c9291906119ac565b6020604051808303816000875af115801561062b573d6000803e3d6000fd5b505050506040513d601f19601f8201168201806040525081019061064f9190611a0d565b61068e576040517f08c379a000000000000000000000000000000000000000000000000000000000815260040161068590611a86565b60405180910390fd5b808361069a9190611978565b82856106a69190611978565b6106b091906118d6565b6002819055507fb14f451e613015c13a17c78777f1d87fcb448d7330d67299a09b8f2db38aab108183876040516106e993929190611aa6565b60405180910390a15050505050565b60015481565b6000808211610742576040517f08c379a000000000000000000000000000000000000000000000000000000000815260040161073990611b4f565b60405180910390fd5b600047905060008060009054906101000a900473ffffffffffffffffffffffffffffffffffffffff1673ffffffffffffffffffffffffffffffffffffffff166370a08231306040518263ffffffff1660e01b81526004016107a3919061184a565b602060405180830381865afa1580156107c0573d6000803e3d6000fd5b505050506040513d601f19601f820116820180604052508101906107e4919061187a565b9050600081036107f957600092505050610815565b80848361080691906118d6565b6108109190611947565b925050505b919050565b600080341161085e576040517f08c379a000000000000000000000000000000000000000000000000000000000815260040161085590611bbb565b60405180910390fd5b6000344761086c9190611978565b905060008060009054906101000a900473ffffffffffffffffffffffffffffffffffffffff1673ffffffffffffffffffffffffffffffffffffffff166370a08231306040518263ffffffff1660e01b81526004016108ca919061184a565b602060405180830381865afa1580156108e7573d6000803e3d6000fd5b505050506040513d601f19601f8201168201806040525081019061090b919061187a565b90506000348361091b9190611bdb565b6002546109289190611947565b905080826109369190611978565b935060008054906101000a900473ffffffffffffffffffffffffffffffffffffffff1673ffffffffffffffffffffffffffffffffffffffff1663a9059cbb33866040518363ffffffff1660e01b81526004016109939291906119ac565b6020604051808303816000875af11580156109b2573d6000803e3d6000fd5b505050506040513d601f19601f820116820180604052508101906109d69190611a0d565b610a15576040517f08c379a0000000000000000000000000000000000000000000000000000000008152600401610a0c90611a86565b60405180910390fd5b7fcdfc57b3d0cdc24b23cea1f480aabea287321f5bee23ad76c2b52fa7982f5ea58434604051610a46929190611c0f565b60405180910390a150505090565b60036020528060005260406000206000915090505481565b6000808211610ab0576040517f08c379a0000000000000000000000000000000000000000000000000000000008152600401610aa790611caa565b60405180910390fd5b600047905060008060009054906101000a900473ffffffffffffffffffffffffffffffffffffffff1673ffffffffffffffffffffffffffffffffffffffff166370a08231306040518263ffffffff1660e01b8152600401610b11919061184a565b602060405180830381865afa158015610b2e573d6000803e3d6000fd5b505050506040513d601f19601f82011682018060405250810190610b52919061187a565b905060008483610b629190611bdb565b600254610b6f9190611947565b90508082610b7d9190611978565b9350505050919050565b60008054906101000a900473ffffffffffffffffffffffffffffffffffffffff1681565b6000808211610bef576040517f08c379a0000000000000000000000000000000000000000000000000000000008152600401610be690611d3c565b60405180910390fd5b600047905060008060009054906101000a900473ffffffffffffffffffffffffffffffffffffffff1673ffffffffffffffffffffffffffffffffffffffff166370a08231306040518263ffffffff1660e01b8152600401610c50919061184a565b602060405180830381865afa158015610c6d573d6000803e3d6000fd5b505050506040513d601f19601f82011682018060405250810190610c91919061187a565b905060008111610cd6576040517f08c379a0000000000000000000000000000000000000000000000000000000008152600401610ccd90611da8565b60405180910390fd5b60008482610ce49190611bdb565b9050600081600254610cf69190611947565b90508084610d049190611978565b9450600085118015610d165750838511155b610d55576040517f08c379a0000000000000000000000000000000000000000000000000000000008152600401610d4c90611e14565b60405180910390fd5b50505050919050565b60025481565b60008047905060008060009054906101000a900473ffffffffffffffffffffffffffffffffffffffff1673ffffffffffffffffffffffffffffffffffffffff166370a08231306040518263ffffffff1660e01b8152600401610dc6919061184a565b602060405180830381865afa158015610de3573d6000803e3d6000fd5b505050506040513d601f19601f82011682018060405250810190610e07919061187a565b905060008411610e4c576040517f08c379a0000000000000000000000000000000000000000000000000000000008152600401610e4390611d3c565b60405180910390fd5b60008111610e8f576040517f08c379a0000000000000000000000000000000000000000000000000000000008152600401610e8690611da8565b60405180910390fd5b60008054906101000a900473ffffffffffffffffffffffffffffffffffffffff1673ffffffffffffffffffffffffffffffffffffffff166323b872dd3330876040518463ffffffff1660e01b8152600401610eec93929190611e34565b6020604051808303816000875af1158015610f0b573d6000803e3d6000fd5b505050506040513d601f19601f82011682018060405250810190610f2f9190611a0d565b610f6e576040517f08c379a0000000000000000000000000000000000000000000000000000000008152600401610f6590611eb7565b60405180910390fd5b60008482610f7c9190611bdb565b9050600081600254610f8e9190611947565b90508084610f9c9190611978565b9450600085118015610fae5750838511155b610fed576040517f08c379a0000000000000000000000000000000000000000000000000000000008152600401610fe490611f23565b60405180910390fd5b3373ffffffffffffffffffffffffffffffffffffffff166108fc869081150290604051600060405180830381858888f19350505050158015611033573d6000803e3d6000fd5b507f3297a389bb586920e62a196af529d5f42651b17a1013d6bfe77f22372a0b21128686604051611065929190611c0f565b60405180910390a150505050919050565b6000600360003373ffffffffffffffffffffffffffffffffffffffff1673ffffffffffffffffffffffffffffffffffffffff16815260200190815260200160002054905090565b6000803411611101576040517f08c379a00000000000000000000000000000000000000000000000000000000081526004016110f890611f8f565b60405180910390fd5b60008211611144576040517f08c379a000000000000000000000000000000000000000000000000000000000815260040161113b90611d3c565b60405180910390fd5b600034476111529190611978565b905060008060009054906101000a900473ffffffffffffffffffffffffffffffffffffffff1673ffffffffffffffffffffffffffffffffffffffff166370a08231306040518263ffffffff1660e01b81526004016111b0919061184a565b602060405180830381865afa1580156111cd573d6000803e3d6000fd5b505050506040513d601f19601f820116820180604052508101906111f1919061187a565b905060008060009054906101000a900473ffffffffffffffffffffffffffffffffffffffff1673ffffffffffffffffffffffffffffffffffffffff166323b872dd3330886040518463ffffffff1660e01b815260040161125393929190611e34565b6020604051808303816000875af1158015611272573d6000803e3d6000fd5b505050506040513d601f19601f820116820180604052508101906112969190611a0d565b9050806112d8576040517f08c379a00000000000000000000000000000000000000000000000000000000081526004016112cf90611eb7565b60405180910390fd5b6000600154036112eb5760649350611377565b6000839050600083905060003490506000889050828261130b91906118d6565b818561131791906118d6565b14611357576040517f08c379a000000000000000000000000000000000000000000000000000000000815260040161134e90611ffb565b60405180910390fd5b838260015461136691906118d6565b6113709190611947565b9750505050505b83600360003373ffffffffffffffffffffffffffffffffffffffff1673ffffffffffffffffffffffffffffffffffffffff16815260200190815260200160002060008282546113c69190611bdb565b9250508190555083600160008282546113df9190611bdb565b9250508190555084826113f29190611bdb565b34846113fe9190611bdb565b61140891906118d6565b6002819055507f3bca7014f4c0ccc8016338c79f4c00e82068dbadaf4f01ca5449040fdd39f50033863487604051611443949392919061201b565b60405180910390a1505050919050565b6000808211611497576040517f08c379a000000000000000000000000000000000000000000000000000000000815260040161148e906120ac565b60405180910390fd5b600047905060008060009054906101000a900473ffffffffffffffffffffffffffffffffffffffff1673ffffffffffffffffffffffffffffffffffffffff166370a08231306040518263ffffffff1660e01b81526004016114f8919061184a565b602060405180830381865afa158015611515573d6000803e3d6000fd5b505050506040513d601f19601f82011682018060405250810190611539919061187a565b90506000820361154e5760009250505061156a565b81848261155b91906118d6565b6115659190611947565b925050505b919050565b600080fd5b6000819050919050565b61158781611574565b811461159257600080fd5b50565b6000813590506115a48161157e565b92915050565b6000602082840312156115c0576115bf61156f565b5b60006115ce84828501611595565b91505092915050565b6115e081611574565b82525050565b60006020820190506115fb60008301846115d7565b92915050565b600073ffffffffffffffffffffffffffffffffffffffff82169050919050565b600061162c82611601565b9050919050565b61163c81611621565b811461164757600080fd5b50565b60008135905061165981611633565b92915050565b6000602082840312156116755761167461156f565b5b60006116838482850161164a565b91505092915050565b6000819050919050565b60006116b16116ac6116a784611601565b61168c565b611601565b9050919050565b60006116c382611696565b9050919050565b60006116d5826116b8565b9050919050565b6116e5816116ca565b82525050565b600060208201905061170060008301846116dc565b92915050565b600082825260208201905092915050565b7f43616e6e6f74206275726e207a65726f206c697175696469747920706f73697460008201527f696f6e7300000000000000000000000000000000000000000000000000000000602082015250565b6000611773602483611706565b915061177e82611717565b604082019050919050565b600060208201905081810360008301526117a281611766565b9050919050565b7f4e6f7420656e6f756768206c697175696469747920706f736974696f6e73207460008201527f6f206275726e0000000000000000000000000000000000000000000000000000602082015250565b6000611805602683611706565b9150611810826117a9565b604082019050919050565b60006020820190508181036000830152611834816117f8565b9050919050565b61184481611621565b82525050565b600060208201905061185f600083018461183b565b92915050565b6000815190506118748161157e565b92915050565b6000602082840312156118905761188f61156f565b5b600061189e84828501611865565b91505092915050565b7f4e487b7100000000000000000000000000000000000000000000000000000000600052601160045260246000fd5b60006118e182611574565b91506118ec83611574565b92508282026118fa81611574565b91508282048414831517611911576119106118a7565b5b5092915050565b7f4e487b7100000000000000000000000000000000000000000000000000000000600052601260045260246000fd5b600061195282611574565b915061195d83611574565b92508261196d5761196c611918565b5b828204905092915050565b600061198382611574565b915061198e83611574565b92508282039050818111156119a6576119a56118a7565b5b92915050565b60006040820190506119c1600083018561183b565b6119ce60208301846115d7565b9392505050565b60008115159050919050565b6119ea816119d5565b81146119f557600080fd5b50565b600081519050611a07816119e1565b92915050565b600060208284031215611a2357611a2261156f565b5b6000611a31848285016119f8565b91505092915050565b7f4661696c656420746f2073656e6420455243323020746f6b656e730000000000600082015250565b6000611a70601b83611706565b9150611a7b82611a3a565b602082019050919050565b60006020820190508181036000830152611a9f81611a63565b9050919050565b6000606082019050611abb60008301866115d7565b611ac860208301856115d7565b611ad560408301846115d7565b949350505050565b7f455243323020746f6b656e206d7573742062652067726561746572207468616e60008201527f20302e0000000000000000000000000000000000000000000000000000000000602082015250565b6000611b39602383611706565b9150611b4482611add565b604082019050919050565b60006020820190508181036000830152611b6881611b2c565b9050919050565b7f4d757374206465706f736974206d6f7265207468616e2030204554482e000000600082015250565b6000611ba5601d83611706565b9150611bb082611b6f565b602082019050919050565b60006020820190508181036000830152611bd481611b98565b9050919050565b6000611be682611574565b9150611bf183611574565b9250828201905080821115611c0957611c086118a7565b5b92915050565b6000604082019050611c2460008301856115d7565b611c3160208301846115d7565b9392505050565b7f45544820616d6f756e74206d7573742062652067726561746572207468616e2060008201527f302e000000000000000000000000000000000000000000000000000000000000602082015250565b6000611c94602283611706565b9150611c9f82611c38565b604082019050919050565b60006020820190508181036000830152611cc381611c87565b9050919050565b7f4d75737420696e707574206d6f7265207468616e203020455243323020546f6b60008201527f656e2e0000000000000000000000000000000000000000000000000000000000602082015250565b6000611d26602383611706565b9150611d3182611cca565b604082019050919050565b60006020820190508181036000830152611d5581611d19565b9050919050565b7f496e73756666696369656e74206c69717569646974792e000000000000000000600082015250565b6000611d92601783611706565b9150611d9d82611d5c565b602082019050919050565b60006020820190508181036000830152611dc181611d85565b9050919050565b7f496e76616c6964207377617020657374696d6174650000000000000000000000600082015250565b6000611dfe601583611706565b9150611e0982611dc8565b602082019050919050565b60006020820190508181036000830152611e2d81611df1565b9050919050565b6000606082019050611e49600083018661183b565b611e56602083018561183b565b611e6360408301846115d7565b949350505050565b7f4552433230207472616e73666572206661696c65640000000000000000000000600082015250565b6000611ea1601583611706565b9150611eac82611e6b565b602082019050919050565b60006020820190508181036000830152611ed081611e94565b9050919050565b7f496e76616c696420737761702072657175657374000000000000000000000000600082015250565b6000611f0d601483611706565b9150611f1882611ed7565b602082019050919050565b60006020820190508181036000830152611f3c81611f00565b9050919050565b7f4d75737420696e707574206d6f7265207468616e2030204554482e0000000000600082015250565b6000611f79601b83611706565b9150611f8482611f43565b602082019050919050565b60006020820190508181036000830152611fa881611f6c565b9050919050565b7f4d757374206d61696e7461696e204554482f455243323020726174696f000000600082015250565b6000611fe5601d83611706565b9150611ff082611faf565b602082019050919050565b6000602082019050818103600083015261201481611fd8565b9050919050565b6000608082019050612030600083018761183b565b61203d60208301866115d7565b61204a60408301856115d7565b61205760608301846115d7565b95945050505050565b7f455448206d7573742062652067726561746572207468616e20302e0000000000600082015250565b6000612096601b83611706565b91506120a182612060565b602082019050919050565b600060208201905081810360008301526120c581612089565b905091905056fea26469706673582212207bd669e82bad2e117656b5dd4128b8040bc5e76af474fa0121685629cf403e1c64736f6c63430008130033",
					"opcodes": "PUSH1 0x80 PUSH1 0x40 MSTORE CALLVALUE DUP1 ISZERO PUSH3 0x11 JUMPI PUSH1 0x0 DUP1 REVERT JUMPDEST POP PUSH1 0x40 MLOAD PUSH3 0x222C CODESIZE SUB DUP1 PUSH3 0x222C DUP4 CODECOPY DUP2 DUP2 ADD PUSH1 0x40 MSTORE DUP2 ADD SWAP1 PUSH3 0x37 SWAP2 SWAP1 PUSH3 0xE8 JUMP JUMPDEST DUP1 PUSH1 0x0 DUP1 PUSH2 0x100 EXP DUP2 SLOAD DUP2 PUSH20 0xFFFFFFFFFFFFFFFFFFFFFFFFFFFFFFFFFFFFFFFF MUL NOT AND SWAP1 DUP4 PUSH20 0xFFFFFFFFFFFFFFFFFFFFFFFFFFFFFFFFFFFFFFFF AND MUL OR SWAP1 SSTORE POP POP PUSH3 0x11A JUMP JUMPDEST PUSH1 0x0 DUP1 REVERT JUMPDEST PUSH1 0x0 PUSH20 0xFFFFFFFFFFFFFFFFFFFFFFFFFFFFFFFFFFFFFFFF DUP3 AND SWAP1 POP SWAP2 SWAP1 POP JUMP JUMPDEST PUSH1 0x0 PUSH3 0xB0 DUP3 PUSH3 0x83 JUMP JUMPDEST SWAP1 POP SWAP2 SWAP1 POP JUMP JUMPDEST PUSH3 0xC2 DUP2 PUSH3 0xA3 JUMP JUMPDEST DUP2 EQ PUSH3 0xCE JUMPI PUSH1 0x0 DUP1 REVERT JUMPDEST POP JUMP JUMPDEST PUSH1 0x0 DUP2 MLOAD SWAP1 POP PUSH3 0xE2 DUP2 PUSH3 0xB7 JUMP JUMPDEST SWAP3 SWAP2 POP POP JUMP JUMPDEST PUSH1 0x0 PUSH1 0x20 DUP3 DUP5 SUB SLT ISZERO PUSH3 0x101 JUMPI PUSH3 0x100 PUSH3 0x7E JUMP JUMPDEST JUMPDEST PUSH1 0x0 PUSH3 0x111 DUP5 DUP3 DUP6 ADD PUSH3 0xD1 JUMP JUMPDEST SWAP2 POP POP SWAP3 SWAP2 POP POP JUMP JUMPDEST PUSH2 0x2102 DUP1 PUSH3 0x12A PUSH1 0x0 CODECOPY PUSH1 0x0 RETURN INVALID PUSH1 0x80 PUSH1 0x40 MSTORE PUSH1 0x4 CALLDATASIZE LT PUSH2 0xC2 JUMPI PUSH1 0x0 CALLDATALOAD PUSH1 0xE0 SHR DUP1 PUSH4 0x8A13EEA7 GT PUSH2 0x7F JUMPI DUP1 PUSH4 0xC8AB8325 GT PUSH2 0x59 JUMPI DUP1 PUSH4 0xC8AB8325 EQ PUSH2 0x283 JUMPI DUP1 PUSH4 0xE0BA2000 EQ PUSH2 0x2C0 JUMPI DUP1 PUSH4 0xEB521A4C EQ PUSH2 0x2EB JUMPI DUP1 PUSH4 0xED7BF868 EQ PUSH2 0x31B JUMPI PUSH2 0xC2 JUMP JUMPDEST DUP1 PUSH4 0x8A13EEA7 EQ PUSH2 0x1F0 JUMPI DUP1 PUSH4 0x903875F7 EQ PUSH2 0x21B JUMPI DUP1 PUSH4 0xA932492F EQ PUSH2 0x258 JUMPI PUSH2 0xC2 JUMP JUMPDEST DUP1 PUSH4 0xA861F2A EQ PUSH2 0xC7 JUMPI DUP1 PUSH4 0x1CDE6226 EQ PUSH2 0xF0 JUMPI DUP1 PUSH4 0x240F3DEA EQ PUSH2 0x11B JUMPI DUP1 PUSH4 0x29CBAB3E EQ PUSH2 0x158 JUMPI DUP1 PUSH4 0x6FD0EA92 EQ PUSH2 0x176 JUMPI DUP1 PUSH4 0x79ED3562 EQ PUSH2 0x1B3 JUMPI JUMPDEST PUSH1 0x0 DUP1 REVERT JUMPDEST CALLVALUE DUP1 ISZERO PUSH2 0xD3 JUMPI PUSH1 0x0 DUP1 REVERT JUMPDEST POP PUSH2 0xEE PUSH1 0x4 DUP1 CALLDATASIZE SUB DUP2 ADD SWAP1 PUSH2 0xE9 SWAP2 SWAP1 PUSH2 0x15AA JUMP JUMPDEST PUSH2 0x358 JUMP JUMPDEST STOP JUMPDEST CALLVALUE DUP1 ISZERO PUSH2 0xFC JUMPI PUSH1 0x0 DUP1 REVERT JUMPDEST POP PUSH2 0x105 PUSH2 0x6F8 JUMP JUMPDEST PUSH1 0x40 MLOAD PUSH2 0x112 SWAP2 SWAP1 PUSH2 0x15E6 JUMP JUMPDEST PUSH1 0x40 MLOAD DUP1 SWAP2 SUB SWAP1 RETURN JUMPDEST CALLVALUE DUP1 ISZERO PUSH2 0x127 JUMPI PUSH1 0x0 DUP1 REVERT JUMPDEST POP PUSH2 0x142 PUSH1 0x4 DUP1 CALLDATASIZE SUB DUP2 ADD SWAP1 PUSH2 0x13D SWAP2 SWAP1 PUSH2 0x15AA JUMP JUMPDEST PUSH2 0x6FE JUMP JUMPDEST PUSH1 0x40 MLOAD PUSH2 0x14F SWAP2 SWAP1 PUSH2 0x15E6 JUMP JUMPDEST PUSH1 0x40 MLOAD DUP1 SWAP2 SUB SWAP1 RETURN JUMPDEST PUSH2 0x160 PUSH2 0x81A JUMP JUMPDEST PUSH1 0x40 MLOAD PUSH2 0x16D SWAP2 SWAP1 PUSH2 0x15E6 JUMP JUMPDEST PUSH1 0x40 MLOAD DUP1 SWAP2 SUB SWAP1 RETURN JUMPDEST CALLVALUE DUP1 ISZERO PUSH2 0x182 JUMPI PUSH1 0x0 DUP1 REVERT JUMPDEST POP PUSH2 0x19D PUSH1 0x4 DUP1 CALLDATASIZE SUB DUP2 ADD SWAP1 PUSH2 0x198 SWAP2 SWAP1 PUSH2 0x165F JUMP JUMPDEST PUSH2 0xA54 JUMP JUMPDEST PUSH1 0x40 MLOAD PUSH2 0x1AA SWAP2 SWAP1 PUSH2 0x15E6 JUMP JUMPDEST PUSH1 0x40 MLOAD DUP1 SWAP2 SUB SWAP1 RETURN JUMPDEST CALLVALUE DUP1 ISZERO PUSH2 0x1BF JUMPI PUSH1 0x0 DUP1 REVERT JUMPDEST POP PUSH2 0x1DA PUSH1 0x4 DUP1 CALLDATASIZE SUB DUP2 ADD SWAP1 PUSH2 0x1D5 SWAP2 SWAP1 PUSH2 0x15AA JUMP JUMPDEST PUSH2 0xA6C JUMP JUMPDEST PUSH1 0x40 MLOAD PUSH2 0x1E7 SWAP2 SWAP1 PUSH2 0x15E6 JUMP JUMPDEST PUSH1 0x40 MLOAD DUP1 SWAP2 SUB SWAP1 RETURN JUMPDEST CALLVALUE DUP1 ISZERO PUSH2 0x1FC JUMPI PUSH1 0x0 DUP1 REVERT JUMPDEST POP PUSH2 0x205 PUSH2 0xB87 JUMP JUMPDEST PUSH1 0x40 MLOAD PUSH2 0x212 SWAP2 SWAP1 PUSH2 0x16EB JUMP JUMPDEST PUSH1 0x40 MLOAD DUP1 SWAP2 SUB SWAP1 RETURN JUMPDEST CALLVALUE DUP1 ISZERO PUSH2 0x227 JUMPI PUSH1 0x0 DUP1 REVERT JUMPDEST POP PUSH2 0x242 PUSH1 0x4 DUP1 CALLDATASIZE SUB DUP2 ADD SWAP1 PUSH2 0x23D SWAP2 SWAP1 PUSH2 0x15AA JUMP JUMPDEST PUSH2 0xBAB JUMP JUMPDEST PUSH1 0x40 MLOAD PUSH2 0x24F SWAP2 SWAP1 PUSH2 0x15E6 JUMP JUMPDEST PUSH1 0x40 MLOAD DUP1 SWAP2 SUB SWAP1 RETURN JUMPDEST CALLVALUE DUP1 ISZERO PUSH2 0x264 JUMPI PUSH1 0x0 DUP1 REVERT JUMPDEST POP PUSH2 0x26D PUSH2 0xD5E JUMP JUMPDEST PUSH1 0x40 MLOAD PUSH2 0x27A SWAP2 SWAP1 PUSH2 0x15E6 JUMP JUMPDEST PUSH1 0x40 MLOAD DUP1 SWAP2 SUB SWAP1 RETURN JUMPDEST CALLVALUE DUP1 ISZERO PUSH2 0x28F JUMPI PUSH1 0x0 DUP1 REVERT JUMPDEST POP PUSH2 0x2AA PUSH1 0x4 DUP1 CALLDATASIZE SUB DUP2 ADD SWAP1 PUSH2 0x2A5 SWAP2 SWAP1 PUSH2 0x15AA JUMP JUMPDEST PUSH2 0xD64 JUMP JUMPDEST PUSH1 0x40 MLOAD PUSH2 0x2B7 SWAP2 SWAP1 PUSH2 0x15E6 JUMP JUMPDEST PUSH1 0x40 MLOAD DUP1 SWAP2 SUB SWAP1 RETURN JUMPDEST CALLVALUE DUP1 ISZERO PUSH2 0x2CC JUMPI PUSH1 0x0 DUP1 REVERT JUMPDEST POP PUSH2 0x2D5 PUSH2 0x1076 JUMP JUMPDEST PUSH1 0x40 MLOAD PUSH2 0x2E2 SWAP2 SWAP1 PUSH2 0x15E6 JUMP JUMPDEST PUSH1 0x40 MLOAD DUP1 SWAP2 SUB SWAP1 RETURN JUMPDEST PUSH2 0x305 PUSH1 0x4 DUP1 CALLDATASIZE SUB DUP2 ADD SWAP1 PUSH2 0x300 SWAP2 SWAP1 PUSH2 0x15AA JUMP JUMPDEST PUSH2 0x10BD JUMP JUMPDEST PUSH1 0x40 MLOAD PUSH2 0x312 SWAP2 SWAP1 PUSH2 0x15E6 JUMP JUMPDEST PUSH1 0x40 MLOAD DUP1 SWAP2 SUB SWAP1 RETURN JUMPDEST CALLVALUE DUP1 ISZERO PUSH2 0x327 JUMPI PUSH1 0x0 DUP1 REVERT JUMPDEST POP PUSH2 0x342 PUSH1 0x4 DUP1 CALLDATASIZE SUB DUP2 ADD SWAP1 PUSH2 0x33D SWAP2 SWAP1 PUSH2 0x15AA JUMP JUMPDEST PUSH2 0x1453 JUMP JUMPDEST PUSH1 0x40 MLOAD PUSH2 0x34F SWAP2 SWAP1 PUSH2 0x15E6 JUMP JUMPDEST PUSH1 0x40 MLOAD DUP1 SWAP2 SUB SWAP1 RETURN JUMPDEST PUSH1 0x0 DUP2 GT PUSH2 0x39B JUMPI PUSH1 0x40 MLOAD PUSH32 0x8C379A000000000000000000000000000000000000000000000000000000000 DUP2 MSTORE PUSH1 0x4 ADD PUSH2 0x392 SWAP1 PUSH2 0x1789 JUMP JUMPDEST PUSH1 0x40 MLOAD DUP1 SWAP2 SUB SWAP1 REVERT JUMPDEST DUP1 PUSH1 0x3 PUSH1 0x0 CALLER PUSH20 0xFFFFFFFFFFFFFFFFFFFFFFFFFFFFFFFFFFFFFFFF AND PUSH20 0xFFFFFFFFFFFFFFFFFFFFFFFFFFFFFFFFFFFFFFFF AND DUP2 MSTORE PUSH1 0x20 ADD SWAP1 DUP2 MSTORE PUSH1 0x20 ADD PUSH1 0x0 KECCAK256 SLOAD LT ISZERO PUSH2 0x41D JUMPI PUSH1 0x40 MLOAD PUSH32 0x8C379A000000000000000000000000000000000000000000000000000000000 DUP2 MSTORE PUSH1 0x4 ADD PUSH2 0x414 SWAP1 PUSH2 0x181B JUMP JUMPDEST PUSH1 0x40 MLOAD DUP1 SWAP2 SUB SWAP1 REVERT JUMPDEST PUSH1 0x0 SELFBALANCE SWAP1 POP PUSH1 0x0 DUP1 PUSH1 0x0 SWAP1 SLOAD SWAP1 PUSH2 0x100 EXP SWAP1 DIV PUSH20 0xFFFFFFFFFFFFFFFFFFFFFFFFFFFFFFFFFFFFFFFF AND PUSH20 0xFFFFFFFFFFFFFFFFFFFFFFFFFFFFFFFFFFFFFFFF AND PUSH4 0x70A08231 ADDRESS PUSH1 0x40 MLOAD DUP3 PUSH4 0xFFFFFFFF AND PUSH1 0xE0 SHL DUP2 MSTORE PUSH1 0x4 ADD PUSH2 0x47E SWAP2 SWAP1 PUSH2 0x184A JUMP JUMPDEST PUSH1 0x20 PUSH1 0x40 MLOAD DUP1 DUP4 SUB DUP2 DUP7 GAS STATICCALL ISZERO DUP1 ISZERO PUSH2 0x49B JUMPI RETURNDATASIZE PUSH1 0x0 DUP1 RETURNDATACOPY RETURNDATASIZE PUSH1 0x0 REVERT JUMPDEST POP POP POP POP PUSH1 0x40 MLOAD RETURNDATASIZE PUSH1 0x1F NOT PUSH1 0x1F DUP3 ADD AND DUP3 ADD DUP1 PUSH1 0x40 MSTORE POP DUP2 ADD SWAP1 PUSH2 0x4BF SWAP2 SWAP1 PUSH2 0x187A JUMP JUMPDEST SWAP1 POP PUSH1 0x0 PUSH1 0x1 SLOAD DUP4 DUP6 PUSH2 0x4D2 SWAP2 SWAP1 PUSH2 0x18D6 JUMP JUMPDEST PUSH2 0x4DC SWAP2 SWAP1 PUSH2 0x1947 JUMP JUMPDEST SWAP1 POP PUSH1 0x0 PUSH1 0x1 SLOAD DUP4 DUP7 PUSH2 0x4EF SWAP2 SWAP1 PUSH2 0x18D6 JUMP JUMPDEST PUSH2 0x4F9 SWAP2 SWAP1 PUSH2 0x1947 JUMP JUMPDEST SWAP1 POP DUP5 PUSH1 0x3 PUSH1 0x0 CALLER PUSH20 0xFFFFFFFFFFFFFFFFFFFFFFFFFFFFFFFFFFFFFFFF AND PUSH20 0xFFFFFFFFFFFFFFFFFFFFFFFFFFFFFFFFFFFFFFFF AND DUP2 MSTORE PUSH1 0x20 ADD SWAP1 DUP2 MSTORE PUSH1 0x20 ADD PUSH1 0x0 KECCAK256 PUSH1 0x0 DUP3 DUP3 SLOAD PUSH2 0x54A SWAP2 SWAP1 PUSH2 0x1978 JUMP JUMPDEST SWAP3 POP POP DUP2 SWAP1 SSTORE POP DUP5 PUSH1 0x1 PUSH1 0x0 DUP3 DUP3 SLOAD PUSH2 0x563 SWAP2 SWAP1 PUSH2 0x1978 JUMP JUMPDEST SWAP3 POP POP DUP2 SWAP1 SSTORE POP CALLER PUSH20 0xFFFFFFFFFFFFFFFFFFFFFFFFFFFFFFFFFFFFFFFF AND PUSH2 0x8FC DUP4 SWAP1 DUP2 ISZERO MUL SWAP1 PUSH1 0x40 MLOAD PUSH1 0x0 PUSH1 0x40 MLOAD DUP1 DUP4 SUB DUP2 DUP6 DUP9 DUP9 CALL SWAP4 POP POP POP POP ISZERO DUP1 ISZERO PUSH2 0x5B0 JUMPI RETURNDATASIZE PUSH1 0x0 DUP1 RETURNDATACOPY RETURNDATASIZE PUSH1 0x0 REVERT JUMPDEST POP PUSH1 0x0 DUP1 SLOAD SWAP1 PUSH2 0x100 EXP SWAP1 DIV PUSH20 0xFFFFFFFFFFFFFFFFFFFFFFFFFFFFFFFFFFFFFFFF AND PUSH20 0xFFFFFFFFFFFFFFFFFFFFFFFFFFFFFFFFFFFFFFFF AND PUSH4 0xA9059CBB CALLER DUP4 PUSH1 0x40 MLOAD DUP4 PUSH4 0xFFFFFFFF AND PUSH1 0xE0 SHL DUP2 MSTORE PUSH1 0x4 ADD PUSH2 0x60C SWAP3 SWAP2 SWAP1 PUSH2 0x19AC JUMP JUMPDEST PUSH1 0x20 PUSH1 0x40 MLOAD DUP1 DUP4 SUB DUP2 PUSH1 0x0 DUP8 GAS CALL ISZERO DUP1 ISZERO PUSH2 0x62B JUMPI RETURNDATASIZE PUSH1 0x0 DUP1 RETURNDATACOPY RETURNDATASIZE PUSH1 0x0 REVERT JUMPDEST POP POP POP POP PUSH1 0x40 MLOAD RETURNDATASIZE PUSH1 0x1F NOT PUSH1 0x1F DUP3 ADD AND DUP3 ADD DUP1 PUSH1 0x40 MSTORE POP DUP2 ADD SWAP1 PUSH2 0x64F SWAP2 SWAP1 PUSH2 0x1A0D JUMP JUMPDEST PUSH2 0x68E JUMPI PUSH1 0x40 MLOAD PUSH32 0x8C379A000000000000000000000000000000000000000000000000000000000 DUP2 MSTORE PUSH1 0x4 ADD PUSH2 0x685 SWAP1 PUSH2 0x1A86 JUMP JUMPDEST PUSH1 0x40 MLOAD DUP1 SWAP2 SUB SWAP1 REVERT JUMPDEST DUP1 DUP4 PUSH2 0x69A SWAP2 SWAP1 PUSH2 0x1978 JUMP JUMPDEST DUP3 DUP6 PUSH2 0x6A6 SWAP2 SWAP1 PUSH2 0x1978 JUMP JUMPDEST PUSH2 0x6B0 SWAP2 SWAP1 PUSH2 0x18D6 JUMP JUMPDEST PUSH1 0x2 DUP2 SWAP1 SSTORE POP PUSH32 0xB14F451E613015C13A17C78777F1D87FCB448D7330D67299A09B8F2DB38AAB10 DUP2 DUP4 DUP8 PUSH1 0x40 MLOAD PUSH2 0x6E9 SWAP4 SWAP3 SWAP2 SWAP1 PUSH2 0x1AA6 JUMP JUMPDEST PUSH1 0x40 MLOAD DUP1 SWAP2 SUB SWAP1 LOG1 POP POP POP POP POP JUMP JUMPDEST PUSH1 0x1 SLOAD DUP2 JUMP JUMPDEST PUSH1 0x0 DUP1 DUP3 GT PUSH2 0x742 JUMPI PUSH1 0x40 MLOAD PUSH32 0x8C379A000000000000000000000000000000000000000000000000000000000 DUP2 MSTORE PUSH1 0x4 ADD PUSH2 0x739 SWAP1 PUSH2 0x1B4F JUMP JUMPDEST PUSH1 0x40 MLOAD DUP1 SWAP2 SUB SWAP1 REVERT JUMPDEST PUSH1 0x0 SELFBALANCE SWAP1 POP PUSH1 0x0 DUP1 PUSH1 0x0 SWAP1 SLOAD SWAP1 PUSH2 0x100 EXP SWAP1 DIV PUSH20 0xFFFFFFFFFFFFFFFFFFFFFFFFFFFFFFFFFFFFFFFF AND PUSH20 0xFFFFFFFFFFFFFFFFFFFFFFFFFFFFFFFFFFFFFFFF AND PUSH4 0x70A08231 ADDRESS PUSH1 0x40 MLOAD DUP3 PUSH4 0xFFFFFFFF AND PUSH1 0xE0 SHL DUP2 MSTORE PUSH1 0x4 ADD PUSH2 0x7A3 SWAP2 SWAP1 PUSH2 0x184A JUMP JUMPDEST PUSH1 0x20 PUSH1 0x40 MLOAD DUP1 DUP4 SUB DUP2 DUP7 GAS STATICCALL ISZERO DUP1 ISZERO PUSH2 0x7C0 JUMPI RETURNDATASIZE PUSH1 0x0 DUP1 RETURNDATACOPY RETURNDATASIZE PUSH1 0x0 REVERT JUMPDEST POP POP POP POP PUSH1 0x40 MLOAD RETURNDATASIZE PUSH1 0x1F NOT PUSH1 0x1F DUP3 ADD AND DUP3 ADD DUP1 PUSH1 0x40 MSTORE POP DUP2 ADD SWAP1 PUSH2 0x7E4 SWAP2 SWAP1 PUSH2 0x187A JUMP JUMPDEST SWAP1 POP PUSH1 0x0 DUP2 SUB PUSH2 0x7F9 JUMPI PUSH1 0x0 SWAP3 POP POP POP PUSH2 0x815 JUMP JUMPDEST DUP1 DUP5 DUP4 PUSH2 0x806 SWAP2 SWAP1 PUSH2 0x18D6 JUMP JUMPDEST PUSH2 0x810 SWAP2 SWAP1 PUSH2 0x1947 JUMP JUMPDEST SWAP3 POP POP POP JUMPDEST SWAP2 SWAP1 POP JUMP JUMPDEST PUSH1 0x0 DUP1 CALLVALUE GT PUSH2 0x85E JUMPI PUSH1 0x40 MLOAD PUSH32 0x8C379A000000000000000000000000000000000000000000000000000000000 DUP2 MSTORE PUSH1 0x4 ADD PUSH2 0x855 SWAP1 PUSH2 0x1BBB JUMP JUMPDEST PUSH1 0x40 MLOAD DUP1 SWAP2 SUB SWAP1 REVERT JUMPDEST PUSH1 0x0 CALLVALUE SELFBALANCE PUSH2 0x86C SWAP2 SWAP1 PUSH2 0x1978 JUMP JUMPDEST SWAP1 POP PUSH1 0x0 DUP1 PUSH1 0x0 SWAP1 SLOAD SWAP1 PUSH2 0x100 EXP SWAP1 DIV PUSH20 0xFFFFFFFFFFFFFFFFFFFFFFFFFFFFFFFFFFFFFFFF AND PUSH20 0xFFFFFFFFFFFFFFFFFFFFFFFFFFFFFFFFFFFFFFFF AND PUSH4 0x70A08231 ADDRESS PUSH1 0x40 MLOAD DUP3 PUSH4 0xFFFFFFFF AND PUSH1 0xE0 SHL DUP2 MSTORE PUSH1 0x4 ADD PUSH2 0x8CA SWAP2 SWAP1 PUSH2 0x184A JUMP JUMPDEST PUSH1 0x20 PUSH1 0x40 MLOAD DUP1 DUP4 SUB DUP2 DUP7 GAS STATICCALL ISZERO DUP1 ISZERO PUSH2 0x8E7 JUMPI RETURNDATASIZE PUSH1 0x0 DUP1 RETURNDATACOPY RETURNDATASIZE PUSH1 0x0 REVERT JUMPDEST POP POP POP POP PUSH1 0x40 MLOAD RETURNDATASIZE PUSH1 0x1F NOT PUSH1 0x1F DUP3 ADD AND DUP3 ADD DUP1 PUSH1 0x40 MSTORE POP DUP2 ADD SWAP1 PUSH2 0x90B SWAP2 SWAP1 PUSH2 0x187A JUMP JUMPDEST SWAP1 POP PUSH1 0x0 CALLVALUE DUP4 PUSH2 0x91B SWAP2 SWAP1 PUSH2 0x1BDB JUMP JUMPDEST PUSH1 0x2 SLOAD PUSH2 0x928 SWAP2 SWAP1 PUSH2 0x1947 JUMP JUMPDEST SWAP1 POP DUP1 DUP3 PUSH2 0x936 SWAP2 SWAP1 PUSH2 0x1978 JUMP JUMPDEST SWAP4 POP PUSH1 0x0 DUP1 SLOAD SWAP1 PUSH2 0x100 EXP SWAP1 DIV PUSH20 0xFFFFFFFFFFFFFFFFFFFFFFFFFFFFFFFFFFFFFFFF AND PUSH20 0xFFFFFFFFFFFFFFFFFFFFFFFFFFFFFFFFFFFFFFFF AND PUSH4 0xA9059CBB CALLER DUP7 PUSH1 0x40 MLOAD DUP4 PUSH4 0xFFFFFFFF AND PUSH1 0xE0 SHL DUP2 MSTORE PUSH1 0x4 ADD PUSH2 0x993 SWAP3 SWAP2 SWAP1 PUSH2 0x19AC JUMP JUMPDEST PUSH1 0x20 PUSH1 0x40 MLOAD DUP1 DUP4 SUB DUP2 PUSH1 0x0 DUP8 GAS CALL ISZERO DUP1 ISZERO PUSH2 0x9B2 JUMPI RETURNDATASIZE PUSH1 0x0 DUP1 RETURNDATACOPY RETURNDATASIZE PUSH1 0x0 REVERT JUMPDEST POP POP POP POP PUSH1 0x40 MLOAD RETURNDATASIZE PUSH1 0x1F NOT PUSH1 0x1F DUP3 ADD AND DUP3 ADD DUP1 PUSH1 0x40 MSTORE POP DUP2 ADD SWAP1 PUSH2 0x9D6 SWAP2 SWAP1 PUSH2 0x1A0D JUMP JUMPDEST PUSH2 0xA15 JUMPI PUSH1 0x40 MLOAD PUSH32 0x8C379A000000000000000000000000000000000000000000000000000000000 DUP2 MSTORE PUSH1 0x4 ADD PUSH2 0xA0C SWAP1 PUSH2 0x1A86 JUMP JUMPDEST PUSH1 0x40 MLOAD DUP1 SWAP2 SUB SWAP1 REVERT JUMPDEST PUSH32 0xCDFC57B3D0CDC24B23CEA1F480AABEA287321F5BEE23AD76C2B52FA7982F5EA5 DUP5 CALLVALUE PUSH1 0x40 MLOAD PUSH2 0xA46 SWAP3 SWAP2 SWAP1 PUSH2 0x1C0F JUMP JUMPDEST PUSH1 0x40 MLOAD DUP1 SWAP2 SUB SWAP1 LOG1 POP POP POP SWAP1 JUMP JUMPDEST PUSH1 0x3 PUSH1 0x20 MSTORE DUP1 PUSH1 0x0 MSTORE PUSH1 0x40 PUSH1 0x0 KECCAK256 PUSH1 0x0 SWAP2 POP SWAP1 POP SLOAD DUP2 JUMP JUMPDEST PUSH1 0x0 DUP1 DUP3 GT PUSH2 0xAB0 JUMPI PUSH1 0x40 MLOAD PUSH32 0x8C379A000000000000000000000000000000000000000000000000000000000 DUP2 MSTORE PUSH1 0x4 ADD PUSH2 0xAA7 SWAP1 PUSH2 0x1CAA JUMP JUMPDEST PUSH1 0x40 MLOAD DUP1 SWAP2 SUB SWAP1 REVERT JUMPDEST PUSH1 0x0 SELFBALANCE SWAP1 POP PUSH1 0x0 DUP1 PUSH1 0x0 SWAP1 SLOAD SWAP1 PUSH2 0x100 EXP SWAP1 DIV PUSH20 0xFFFFFFFFFFFFFFFFFFFFFFFFFFFFFFFFFFFFFFFF AND PUSH20 0xFFFFFFFFFFFFFFFFFFFFFFFFFFFFFFFFFFFFFFFF AND PUSH4 0x70A08231 ADDRESS PUSH1 0x40 MLOAD DUP3 PUSH4 0xFFFFFFFF AND PUSH1 0xE0 SHL DUP2 MSTORE PUSH1 0x4 ADD PUSH2 0xB11 SWAP2 SWAP1 PUSH2 0x184A JUMP JUMPDEST PUSH1 0x20 PUSH1 0x40 MLOAD DUP1 DUP4 SUB DUP2 DUP7 GAS STATICCALL ISZERO DUP1 ISZERO PUSH2 0xB2E JUMPI RETURNDATASIZE PUSH1 0x0 DUP1 RETURNDATACOPY RETURNDATASIZE PUSH1 0x0 REVERT JUMPDEST POP POP POP POP PUSH1 0x40 MLOAD RETURNDATASIZE PUSH1 0x1F NOT PUSH1 0x1F DUP3 ADD AND DUP3 ADD DUP1 PUSH1 0x40 MSTORE POP DUP2 ADD SWAP1 PUSH2 0xB52 SWAP2 SWAP1 PUSH2 0x187A JUMP JUMPDEST SWAP1 POP PUSH1 0x0 DUP5 DUP4 PUSH2 0xB62 SWAP2 SWAP1 PUSH2 0x1BDB JUMP JUMPDEST PUSH1 0x2 SLOAD PUSH2 0xB6F SWAP2 SWAP1 PUSH2 0x1947 JUMP JUMPDEST SWAP1 POP DUP1 DUP3 PUSH2 0xB7D SWAP2 SWAP1 PUSH2 0x1978 JUMP JUMPDEST SWAP4 POP POP POP POP SWAP2 SWAP1 POP JUMP JUMPDEST PUSH1 0x0 DUP1 SLOAD SWAP1 PUSH2 0x100 EXP SWAP1 DIV PUSH20 0xFFFFFFFFFFFFFFFFFFFFFFFFFFFFFFFFFFFFFFFF AND DUP2 JUMP JUMPDEST PUSH1 0x0 DUP1 DUP3 GT PUSH2 0xBEF JUMPI PUSH1 0x40 MLOAD PUSH32 0x8C379A000000000000000000000000000000000000000000000000000000000 DUP2 MSTORE PUSH1 0x4 ADD PUSH2 0xBE6 SWAP1 PUSH2 0x1D3C JUMP JUMPDEST PUSH1 0x40 MLOAD DUP1 SWAP2 SUB SWAP1 REVERT JUMPDEST PUSH1 0x0 SELFBALANCE SWAP1 POP PUSH1 0x0 DUP1 PUSH1 0x0 SWAP1 SLOAD SWAP1 PUSH2 0x100 EXP SWAP1 DIV PUSH20 0xFFFFFFFFFFFFFFFFFFFFFFFFFFFFFFFFFFFFFFFF AND PUSH20 0xFFFFFFFFFFFFFFFFFFFFFFFFFFFFFFFFFFFFFFFF AND PUSH4 0x70A08231 ADDRESS PUSH1 0x40 MLOAD DUP3 PUSH4 0xFFFFFFFF AND PUSH1 0xE0 SHL DUP2 MSTORE PUSH1 0x4 ADD PUSH2 0xC50 SWAP2 SWAP1 PUSH2 0x184A JUMP JUMPDEST PUSH1 0x20 PUSH1 0x40 MLOAD DUP1 DUP4 SUB DUP2 DUP7 GAS STATICCALL ISZERO DUP1 ISZERO PUSH2 0xC6D JUMPI RETURNDATASIZE PUSH1 0x0 DUP1 RETURNDATACOPY RETURNDATASIZE PUSH1 0x0 REVERT JUMPDEST POP POP POP POP PUSH1 0x40 MLOAD RETURNDATASIZE PUSH1 0x1F NOT PUSH1 0x1F DUP3 ADD AND DUP3 ADD DUP1 PUSH1 0x40 MSTORE POP DUP2 ADD SWAP1 PUSH2 0xC91 SWAP2 SWAP1 PUSH2 0x187A JUMP JUMPDEST SWAP1 POP PUSH1 0x0 DUP2 GT PUSH2 0xCD6 JUMPI PUSH1 0x40 MLOAD PUSH32 0x8C379A000000000000000000000000000000000000000000000000000000000 DUP2 MSTORE PUSH1 0x4 ADD PUSH2 0xCCD SWAP1 PUSH2 0x1DA8 JUMP JUMPDEST PUSH1 0x40 MLOAD DUP1 SWAP2 SUB SWAP1 REVERT JUMPDEST PUSH1 0x0 DUP5 DUP3 PUSH2 0xCE4 SWAP2 SWAP1 PUSH2 0x1BDB JUMP JUMPDEST SWAP1 POP PUSH1 0x0 DUP2 PUSH1 0x2 SLOAD PUSH2 0xCF6 SWAP2 SWAP1 PUSH2 0x1947 JUMP JUMPDEST SWAP1 POP DUP1 DUP5 PUSH2 0xD04 SWAP2 SWAP1 PUSH2 0x1978 JUMP JUMPDEST SWAP5 POP PUSH1 0x0 DUP6 GT DUP1 ISZERO PUSH2 0xD16 JUMPI POP DUP4 DUP6 GT ISZERO JUMPDEST PUSH2 0xD55 JUMPI PUSH1 0x40 MLOAD PUSH32 0x8C379A000000000000000000000000000000000000000000000000000000000 DUP2 MSTORE PUSH1 0x4 ADD PUSH2 0xD4C SWAP1 PUSH2 0x1E14 JUMP JUMPDEST PUSH1 0x40 MLOAD DUP1 SWAP2 SUB SWAP1 REVERT JUMPDEST POP POP POP POP SWAP2 SWAP1 POP JUMP JUMPDEST PUSH1 0x2 SLOAD DUP2 JUMP JUMPDEST PUSH1 0x0 DUP1 SELFBALANCE SWAP1 POP PUSH1 0x0 DUP1 PUSH1 0x0 SWAP1 SLOAD SWAP1 PUSH2 0x100 EXP SWAP1 DIV PUSH20 0xFFFFFFFFFFFFFFFFFFFFFFFFFFFFFFFFFFFFFFFF AND PUSH20 0xFFFFFFFFFFFFFFFFFFFFFFFFFFFFFFFFFFFFFFFF AND PUSH4 0x70A08231 ADDRESS PUSH1 0x40 MLOAD DUP3 PUSH4 0xFFFFFFFF AND PUSH1 0xE0 SHL DUP2 MSTORE PUSH1 0x4 ADD PUSH2 0xDC6 SWAP2 SWAP1 PUSH2 0x184A JUMP JUMPDEST PUSH1 0x20 PUSH1 0x40 MLOAD DUP1 DUP4 SUB DUP2 DUP7 GAS STATICCALL ISZERO DUP1 ISZERO PUSH2 0xDE3 JUMPI RETURNDATASIZE PUSH1 0x0 DUP1 RETURNDATACOPY RETURNDATASIZE PUSH1 0x0 REVERT JUMPDEST POP POP POP POP PUSH1 0x40 MLOAD RETURNDATASIZE PUSH1 0x1F NOT PUSH1 0x1F DUP3 ADD AND DUP3 ADD DUP1 PUSH1 0x40 MSTORE POP DUP2 ADD SWAP1 PUSH2 0xE07 SWAP2 SWAP1 PUSH2 0x187A JUMP JUMPDEST SWAP1 POP PUSH1 0x0 DUP5 GT PUSH2 0xE4C JUMPI PUSH1 0x40 MLOAD PUSH32 0x8C379A000000000000000000000000000000000000000000000000000000000 DUP2 MSTORE PUSH1 0x4 ADD PUSH2 0xE43 SWAP1 PUSH2 0x1D3C JUMP JUMPDEST PUSH1 0x40 MLOAD DUP1 SWAP2 SUB SWAP1 REVERT JUMPDEST PUSH1 0x0 DUP2 GT PUSH2 0xE8F JUMPI PUSH1 0x40 MLOAD PUSH32 0x8C379A000000000000000000000000000000000000000000000000000000000 DUP2 MSTORE PUSH1 0x4 ADD PUSH2 0xE86 SWAP1 PUSH2 0x1DA8 JUMP JUMPDEST PUSH1 0x40 MLOAD DUP1 SWAP2 SUB SWAP1 REVERT JUMPDEST PUSH1 0x0 DUP1 SLOAD SWAP1 PUSH2 0x100 EXP SWAP1 DIV PUSH20 0xFFFFFFFFFFFFFFFFFFFFFFFFFFFFFFFFFFFFFFFF AND PUSH20 0xFFFFFFFFFFFFFFFFFFFFFFFFFFFFFFFFFFFFFFFF AND PUSH4 0x23B872DD CALLER ADDRESS DUP8 PUSH1 0x40 MLOAD DUP5 PUSH4 0xFFFFFFFF AND PUSH1 0xE0 SHL DUP2 MSTORE PUSH1 0x4 ADD PUSH2 0xEEC SWAP4 SWAP3 SWAP2 SWAP1 PUSH2 0x1E34 JUMP JUMPDEST PUSH1 0x20 PUSH1 0x40 MLOAD DUP1 DUP4 SUB DUP2 PUSH1 0x0 DUP8 GAS CALL ISZERO DUP1 ISZERO PUSH2 0xF0B JUMPI RETURNDATASIZE PUSH1 0x0 DUP1 RETURNDATACOPY RETURNDATASIZE PUSH1 0x0 REVERT JUMPDEST POP POP POP POP PUSH1 0x40 MLOAD RETURNDATASIZE PUSH1 0x1F NOT PUSH1 0x1F DUP3 ADD AND DUP3 ADD DUP1 PUSH1 0x40 MSTORE POP DUP2 ADD SWAP1 PUSH2 0xF2F SWAP2 SWAP1 PUSH2 0x1A0D JUMP JUMPDEST PUSH2 0xF6E JUMPI PUSH1 0x40 MLOAD PUSH32 0x8C379A000000000000000000000000000000000000000000000000000000000 DUP2 MSTORE PUSH1 0x4 ADD PUSH2 0xF65 SWAP1 PUSH2 0x1EB7 JUMP JUMPDEST PUSH1 0x40 MLOAD DUP1 SWAP2 SUB SWAP1 REVERT JUMPDEST PUSH1 0x0 DUP5 DUP3 PUSH2 0xF7C SWAP2 SWAP1 PUSH2 0x1BDB JUMP JUMPDEST SWAP1 POP PUSH1 0x0 DUP2 PUSH1 0x2 SLOAD PUSH2 0xF8E SWAP2 SWAP1 PUSH2 0x1947 JUMP JUMPDEST SWAP1 POP DUP1 DUP5 PUSH2 0xF9C SWAP2 SWAP1 PUSH2 0x1978 JUMP JUMPDEST SWAP5 POP PUSH1 0x0 DUP6 GT DUP1 ISZERO PUSH2 0xFAE JUMPI POP DUP4 DUP6 GT ISZERO JUMPDEST PUSH2 0xFED JUMPI PUSH1 0x40 MLOAD PUSH32 0x8C379A000000000000000000000000000000000000000000000000000000000 DUP2 MSTORE PUSH1 0x4 ADD PUSH2 0xFE4 SWAP1 PUSH2 0x1F23 JUMP JUMPDEST PUSH1 0x40 MLOAD DUP1 SWAP2 SUB SWAP1 REVERT JUMPDEST CALLER PUSH20 0xFFFFFFFFFFFFFFFFFFFFFFFFFFFFFFFFFFFFFFFF AND PUSH2 0x8FC DUP7 SWAP1 DUP2 ISZERO MUL SWAP1 PUSH1 0x40 MLOAD PUSH1 0x0 PUSH1 0x40 MLOAD DUP1 DUP4 SUB DUP2 DUP6 DUP9 DUP9 CALL SWAP4 POP POP POP POP ISZERO DUP1 ISZERO PUSH2 0x1033 JUMPI RETURNDATASIZE PUSH1 0x0 DUP1 RETURNDATACOPY RETURNDATASIZE PUSH1 0x0 REVERT JUMPDEST POP PUSH32 0x3297A389BB586920E62A196AF529D5F42651B17A1013D6BFE77F22372A0B2112 DUP7 DUP7 PUSH1 0x40 MLOAD PUSH2 0x1065 SWAP3 SWAP2 SWAP1 PUSH2 0x1C0F JUMP JUMPDEST PUSH1 0x40 MLOAD DUP1 SWAP2 SUB SWAP1 LOG1 POP POP POP POP SWAP2 SWAP1 POP JUMP JUMPDEST PUSH1 0x0 PUSH1 0x3 PUSH1 0x0 CALLER PUSH20 0xFFFFFFFFFFFFFFFFFFFFFFFFFFFFFFFFFFFFFFFF AND PUSH20 0xFFFFFFFFFFFFFFFFFFFFFFFFFFFFFFFFFFFFFFFF AND DUP2 MSTORE PUSH1 0x20 ADD SWAP1 DUP2 MSTORE PUSH1 0x20 ADD PUSH1 0x0 KECCAK256 SLOAD SWAP1 POP SWAP1 JUMP JUMPDEST PUSH1 0x0 DUP1 CALLVALUE GT PUSH2 0x1101 JUMPI PUSH1 0x40 MLOAD PUSH32 0x8C379A000000000000000000000000000000000000000000000000000000000 DUP2 MSTORE PUSH1 0x4 ADD PUSH2 0x10F8 SWAP1 PUSH2 0x1F8F JUMP JUMPDEST PUSH1 0x40 MLOAD DUP1 SWAP2 SUB SWAP1 REVERT JUMPDEST PUSH1 0x0 DUP3 GT PUSH2 0x1144 JUMPI PUSH1 0x40 MLOAD PUSH32 0x8C379A000000000000000000000000000000000000000000000000000000000 DUP2 MSTORE PUSH1 0x4 ADD PUSH2 0x113B SWAP1 PUSH2 0x1D3C JUMP JUMPDEST PUSH1 0x40 MLOAD DUP1 SWAP2 SUB SWAP1 REVERT JUMPDEST PUSH1 0x0 CALLVALUE SELFBALANCE PUSH2 0x1152 SWAP2 SWAP1 PUSH2 0x1978 JUMP JUMPDEST SWAP1 POP PUSH1 0x0 DUP1 PUSH1 0x0 SWAP1 SLOAD SWAP1 PUSH2 0x100 EXP SWAP1 DIV PUSH20 0xFFFFFFFFFFFFFFFFFFFFFFFFFFFFFFFFFFFFFFFF AND PUSH20 0xFFFFFFFFFFFFFFFFFFFFFFFFFFFFFFFFFFFFFFFF AND PUSH4 0x70A08231 ADDRESS PUSH1 0x40 MLOAD DUP3 PUSH4 0xFFFFFFFF AND PUSH1 0xE0 SHL DUP2 MSTORE PUSH1 0x4 ADD PUSH2 0x11B0 SWAP2 SWAP1 PUSH2 0x184A JUMP JUMPDEST PUSH1 0x20 PUSH1 0x40 MLOAD DUP1 DUP4 SUB DUP2 DUP7 GAS STATICCALL ISZERO DUP1 ISZERO PUSH2 0x11CD JUMPI RETURNDATASIZE PUSH1 0x0 DUP1 RETURNDATACOPY RETURNDATASIZE PUSH1 0x0 REVERT JUMPDEST POP POP POP POP PUSH1 0x40 MLOAD RETURNDATASIZE PUSH1 0x1F NOT PUSH1 0x1F DUP3 ADD AND DUP3 ADD DUP1 PUSH1 0x40 MSTORE POP DUP2 ADD SWAP1 PUSH2 0x11F1 SWAP2 SWAP1 PUSH2 0x187A JUMP JUMPDEST SWAP1 POP PUSH1 0x0 DUP1 PUSH1 0x0 SWAP1 SLOAD SWAP1 PUSH2 0x100 EXP SWAP1 DIV PUSH20 0xFFFFFFFFFFFFFFFFFFFFFFFFFFFFFFFFFFFFFFFF AND PUSH20 0xFFFFFFFFFFFFFFFFFFFFFFFFFFFFFFFFFFFFFFFF AND PUSH4 0x23B872DD CALLER ADDRESS DUP9 PUSH1 0x40 MLOAD DUP5 PUSH4 0xFFFFFFFF AND PUSH1 0xE0 SHL DUP2 MSTORE PUSH1 0x4 ADD PUSH2 0x1253 SWAP4 SWAP3 SWAP2 SWAP1 PUSH2 0x1E34 JUMP JUMPDEST PUSH1 0x20 PUSH1 0x40 MLOAD DUP1 DUP4 SUB DUP2 PUSH1 0x0 DUP8 GAS CALL ISZERO DUP1 ISZERO PUSH2 0x1272 JUMPI RETURNDATASIZE PUSH1 0x0 DUP1 RETURNDATACOPY RETURNDATASIZE PUSH1 0x0 REVERT JUMPDEST POP POP POP POP PUSH1 0x40 MLOAD RETURNDATASIZE PUSH1 0x1F NOT PUSH1 0x1F DUP3 ADD AND DUP3 ADD DUP1 PUSH1 0x40 MSTORE POP DUP2 ADD SWAP1 PUSH2 0x1296 SWAP2 SWAP1 PUSH2 0x1A0D JUMP JUMPDEST SWAP1 POP DUP1 PUSH2 0x12D8 JUMPI PUSH1 0x40 MLOAD PUSH32 0x8C379A000000000000000000000000000000000000000000000000000000000 DUP2 MSTORE PUSH1 0x4 ADD PUSH2 0x12CF SWAP1 PUSH2 0x1EB7 JUMP JUMPDEST PUSH1 0x40 MLOAD DUP1 SWAP2 SUB SWAP1 REVERT JUMPDEST PUSH1 0x0 PUSH1 0x1 SLOAD SUB PUSH2 0x12EB JUMPI PUSH1 0x64 SWAP4 POP PUSH2 0x1377 JUMP JUMPDEST PUSH1 0x0 DUP4 SWAP1 POP PUSH1 0x0 DUP4 SWAP1 POP PUSH1 0x0 CALLVALUE SWAP1 POP PUSH1 0x0 DUP9 SWAP1 POP DUP3 DUP3 PUSH2 0x130B SWAP2 SWAP1 PUSH2 0x18D6 JUMP JUMPDEST DUP2 DUP6 PUSH2 0x1317 SWAP2 SWAP1 PUSH2 0x18D6 JUMP JUMPDEST EQ PUSH2 0x1357 JUMPI PUSH1 0x40 MLOAD PUSH32 0x8C379A000000000000000000000000000000000000000000000000000000000 DUP2 MSTORE PUSH1 0x4 ADD PUSH2 0x134E SWAP1 PUSH2 0x1FFB JUMP JUMPDEST PUSH1 0x40 MLOAD DUP1 SWAP2 SUB SWAP1 REVERT JUMPDEST DUP4 DUP3 PUSH1 0x1 SLOAD PUSH2 0x1366 SWAP2 SWAP1 PUSH2 0x18D6 JUMP JUMPDEST PUSH2 0x1370 SWAP2 SWAP1 PUSH2 0x1947 JUMP JUMPDEST SWAP8 POP POP POP POP POP JUMPDEST DUP4 PUSH1 0x3 PUSH1 0x0 CALLER PUSH20 0xFFFFFFFFFFFFFFFFFFFFFFFFFFFFFFFFFFFFFFFF AND PUSH20 0xFFFFFFFFFFFFFFFFFFFFFFFFFFFFFFFFFFFFFFFF AND DUP2 MSTORE PUSH1 0x20 ADD SWAP1 DUP2 MSTORE PUSH1 0x20 ADD PUSH1 0x0 KECCAK256 PUSH1 0x0 DUP3 DUP3 SLOAD PUSH2 0x13C6 SWAP2 SWAP1 PUSH2 0x1BDB JUMP JUMPDEST SWAP3 POP POP DUP2 SWAP1 SSTORE POP DUP4 PUSH1 0x1 PUSH1 0x0 DUP3 DUP3 SLOAD PUSH2 0x13DF SWAP2 SWAP1 PUSH2 0x1BDB JUMP JUMPDEST SWAP3 POP POP DUP2 SWAP1 SSTORE POP DUP5 DUP3 PUSH2 0x13F2 SWAP2 SWAP1 PUSH2 0x1BDB JUMP JUMPDEST CALLVALUE DUP5 PUSH2 0x13FE SWAP2 SWAP1 PUSH2 0x1BDB JUMP JUMPDEST PUSH2 0x1408 SWAP2 SWAP1 PUSH2 0x18D6 JUMP JUMPDEST PUSH1 0x2 DUP2 SWAP1 SSTORE POP PUSH32 0x3BCA7014F4C0CCC8016338C79F4C00E82068DBADAF4F01CA5449040FDD39F500 CALLER DUP7 CALLVALUE DUP8 PUSH1 0x40 MLOAD PUSH2 0x1443 SWAP5 SWAP4 SWAP3 SWAP2 SWAP1 PUSH2 0x201B JUMP JUMPDEST PUSH1 0x40 MLOAD DUP1 SWAP2 SUB SWAP1 LOG1 POP POP POP SWAP2 SWAP1 POP JUMP JUMPDEST PUSH1 0x0 DUP1 DUP3 GT PUSH2 0x1497 JUMPI PUSH1 0x40 MLOAD PUSH32 0x8C379A000000000000000000000000000000000000000000000000000000000 DUP2 MSTORE PUSH1 0x4 ADD PUSH2 0x148E SWAP1 PUSH2 0x20AC JUMP JUMPDEST PUSH1 0x40 MLOAD DUP1 SWAP2 SUB SWAP1 REVERT JUMPDEST PUSH1 0x0 SELFBALANCE SWAP1 POP PUSH1 0x0 DUP1 PUSH1 0x0 SWAP1 SLOAD SWAP1 PUSH2 0x100 EXP SWAP1 DIV PUSH20 0xFFFFFFFFFFFFFFFFFFFFFFFFFFFFFFFFFFFFFFFF AND PUSH20 0xFFFFFFFFFFFFFFFFFFFFFFFFFFFFFFFFFFFFFFFF AND PUSH4 0x70A08231 ADDRESS PUSH1 0x40 MLOAD DUP3 PUSH4 0xFFFFFFFF AND PUSH1 0xE0 SHL DUP2 MSTORE PUSH1 0x4 ADD PUSH2 0x14F8 SWAP2 SWAP1 PUSH2 0x184A JUMP JUMPDEST PUSH1 0x20 PUSH1 0x40 MLOAD DUP1 DUP4 SUB DUP2 DUP7 GAS STATICCALL ISZERO DUP1 ISZERO PUSH2 0x1515 JUMPI RETURNDATASIZE PUSH1 0x0 DUP1 RETURNDATACOPY RETURNDATASIZE PUSH1 0x0 REVERT JUMPDEST POP POP POP POP PUSH1 0x40 MLOAD RETURNDATASIZE PUSH1 0x1F NOT PUSH1 0x1F DUP3 ADD AND DUP3 ADD DUP1 PUSH1 0x40 MSTORE POP DUP2 ADD SWAP1 PUSH2 0x1539 SWAP2 SWAP1 PUSH2 0x187A JUMP JUMPDEST SWAP1 POP PUSH1 0x0 DUP3 SUB PUSH2 0x154E JUMPI PUSH1 0x0 SWAP3 POP POP POP PUSH2 0x156A JUMP JUMPDEST DUP2 DUP5 DUP3 PUSH2 0x155B SWAP2 SWAP1 PUSH2 0x18D6 JUMP JUMPDEST PUSH2 0x1565 SWAP2 SWAP1 PUSH2 0x1947 JUMP JUMPDEST SWAP3 POP POP POP JUMPDEST SWAP2 SWAP1 POP JUMP JUMPDEST PUSH1 0x0 DUP1 REVERT JUMPDEST PUSH1 0x0 DUP2 SWAP1 POP SWAP2 SWAP1 POP JUMP JUMPDEST PUSH2 0x1587 DUP2 PUSH2 0x1574 JUMP JUMPDEST DUP2 EQ PUSH2 0x1592 JUMPI PUSH1 0x0 DUP1 REVERT JUMPDEST POP JUMP JUMPDEST PUSH1 0x0 DUP2 CALLDATALOAD SWAP1 POP PUSH2 0x15A4 DUP2 PUSH2 0x157E JUMP JUMPDEST SWAP3 SWAP2 POP POP JUMP JUMPDEST PUSH1 0x0 PUSH1 0x20 DUP3 DUP5 SUB SLT ISZERO PUSH2 0x15C0 JUMPI PUSH2 0x15BF PUSH2 0x156F JUMP JUMPDEST JUMPDEST PUSH1 0x0 PUSH2 0x15CE DUP5 DUP3 DUP6 ADD PUSH2 0x1595 JUMP JUMPDEST SWAP2 POP POP SWAP3 SWAP2 POP POP JUMP JUMPDEST PUSH2 0x15E0 DUP2 PUSH2 0x1574 JUMP JUMPDEST DUP3 MSTORE POP POP JUMP JUMPDEST PUSH1 0x0 PUSH1 0x20 DUP3 ADD SWAP1 POP PUSH2 0x15FB PUSH1 0x0 DUP4 ADD DUP5 PUSH2 0x15D7 JUMP JUMPDEST SWAP3 SWAP2 POP POP JUMP JUMPDEST PUSH1 0x0 PUSH20 0xFFFFFFFFFFFFFFFFFFFFFFFFFFFFFFFFFFFFFFFF DUP3 AND SWAP1 POP SWAP2 SWAP1 POP JUMP JUMPDEST PUSH1 0x0 PUSH2 0x162C DUP3 PUSH2 0x1601 JUMP JUMPDEST SWAP1 POP SWAP2 SWAP1 POP JUMP JUMPDEST PUSH2 0x163C DUP2 PUSH2 0x1621 JUMP JUMPDEST DUP2 EQ PUSH2 0x1647 JUMPI PUSH1 0x0 DUP1 REVERT JUMPDEST POP JUMP JUMPDEST PUSH1 0x0 DUP2 CALLDATALOAD SWAP1 POP PUSH2 0x1659 DUP2 PUSH2 0x1633 JUMP JUMPDEST SWAP3 SWAP2 POP POP JUMP JUMPDEST PUSH1 0x0 PUSH1 0x20 DUP3 DUP5 SUB SLT ISZERO PUSH2 0x1675 JUMPI PUSH2 0x1674 PUSH2 0x156F JUMP JUMPDEST JUMPDEST PUSH1 0x0 PUSH2 0x1683 DUP5 DUP3 DUP6 ADD PUSH2 0x164A JUMP JUMPDEST SWAP2 POP POP SWAP3 SWAP2 POP POP JUMP JUMPDEST PUSH1 0x0 DUP2 SWAP1 POP SWAP2 SWAP1 POP JUMP JUMPDEST PUSH1 0x0 PUSH2 0x16B1 PUSH2 0x16AC PUSH2 0x16A7 DUP5 PUSH2 0x1601 JUMP JUMPDEST PUSH2 0x168C JUMP JUMPDEST PUSH2 0x1601 JUMP JUMPDEST SWAP1 POP SWAP2 SWAP1 POP JUMP JUMPDEST PUSH1 0x0 PUSH2 0x16C3 DUP3 PUSH2 0x1696 JUMP JUMPDEST SWAP1 POP SWAP2 SWAP1 POP JUMP JUMPDEST PUSH1 0x0 PUSH2 0x16D5 DUP3 PUSH2 0x16B8 JUMP JUMPDEST SWAP1 POP SWAP2 SWAP1 POP JUMP JUMPDEST PUSH2 0x16E5 DUP2 PUSH2 0x16CA JUMP JUMPDEST DUP3 MSTORE POP POP JUMP JUMPDEST PUSH1 0x0 PUSH1 0x20 DUP3 ADD SWAP1 POP PUSH2 0x1700 PUSH1 0x0 DUP4 ADD DUP5 PUSH2 0x16DC JUMP JUMPDEST SWAP3 SWAP2 POP POP JUMP JUMPDEST PUSH1 0x0 DUP3 DUP3 MSTORE PUSH1 0x20 DUP3 ADD SWAP1 POP SWAP3 SWAP2 POP POP JUMP JUMPDEST PUSH32 0x43616E6E6F74206275726E207A65726F206C697175696469747920706F736974 PUSH1 0x0 DUP3 ADD MSTORE PUSH32 0x696F6E7300000000000000000000000000000000000000000000000000000000 PUSH1 0x20 DUP3 ADD MSTORE POP JUMP JUMPDEST PUSH1 0x0 PUSH2 0x1773 PUSH1 0x24 DUP4 PUSH2 0x1706 JUMP JUMPDEST SWAP2 POP PUSH2 0x177E DUP3 PUSH2 0x1717 JUMP JUMPDEST PUSH1 0x40 DUP3 ADD SWAP1 POP SWAP2 SWAP1 POP JUMP JUMPDEST PUSH1 0x0 PUSH1 0x20 DUP3 ADD SWAP1 POP DUP2 DUP2 SUB PUSH1 0x0 DUP4 ADD MSTORE PUSH2 0x17A2 DUP2 PUSH2 0x1766 JUMP JUMPDEST SWAP1 POP SWAP2 SWAP1 POP JUMP JUMPDEST PUSH32 0x4E6F7420656E6F756768206C697175696469747920706F736974696F6E732074 PUSH1 0x0 DUP3 ADD MSTORE PUSH32 0x6F206275726E0000000000000000000000000000000000000000000000000000 PUSH1 0x20 DUP3 ADD MSTORE POP JUMP JUMPDEST PUSH1 0x0 PUSH2 0x1805 PUSH1 0x26 DUP4 PUSH2 0x1706 JUMP JUMPDEST SWAP2 POP PUSH2 0x1810 DUP3 PUSH2 0x17A9 JUMP JUMPDEST PUSH1 0x40 DUP3 ADD SWAP1 POP SWAP2 SWAP1 POP JUMP JUMPDEST PUSH1 0x0 PUSH1 0x20 DUP3 ADD SWAP1 POP DUP2 DUP2 SUB PUSH1 0x0 DUP4 ADD MSTORE PUSH2 0x1834 DUP2 PUSH2 0x17F8 JUMP JUMPDEST SWAP1 POP SWAP2 SWAP1 POP JUMP JUMPDEST PUSH2 0x1844 DUP2 PUSH2 0x1621 JUMP JUMPDEST DUP3 MSTORE POP POP JUMP JUMPDEST PUSH1 0x0 PUSH1 0x20 DUP3 ADD SWAP1 POP PUSH2 0x185F PUSH1 0x0 DUP4 ADD DUP5 PUSH2 0x183B JUMP JUMPDEST SWAP3 SWAP2 POP POP JUMP JUMPDEST PUSH1 0x0 DUP2 MLOAD SWAP1 POP PUSH2 0x1874 DUP2 PUSH2 0x157E JUMP JUMPDEST SWAP3 SWAP2 POP POP JUMP JUMPDEST PUSH1 0x0 PUSH1 0x20 DUP3 DUP5 SUB SLT ISZERO PUSH2 0x1890 JUMPI PUSH2 0x188F PUSH2 0x156F JUMP JUMPDEST JUMPDEST PUSH1 0x0 PUSH2 0x189E DUP5 DUP3 DUP6 ADD PUSH2 0x1865 JUMP JUMPDEST SWAP2 POP POP SWAP3 SWAP2 POP POP JUMP JUMPDEST PUSH32 0x4E487B7100000000000000000000000000000000000000000000000000000000 PUSH1 0x0 MSTORE PUSH1 0x11 PUSH1 0x4 MSTORE PUSH1 0x24 PUSH1 0x0 REVERT JUMPDEST PUSH1 0x0 PUSH2 0x18E1 DUP3 PUSH2 0x1574 JUMP JUMPDEST SWAP2 POP PUSH2 0x18EC DUP4 PUSH2 0x1574 JUMP JUMPDEST SWAP3 POP DUP3 DUP3 MUL PUSH2 0x18FA DUP2 PUSH2 0x1574 JUMP JUMPDEST SWAP2 POP DUP3 DUP3 DIV DUP5 EQ DUP4 ISZERO OR PUSH2 0x1911 JUMPI PUSH2 0x1910 PUSH2 0x18A7 JUMP JUMPDEST JUMPDEST POP SWAP3 SWAP2 POP POP JUMP JUMPDEST PUSH32 0x4E487B7100000000000000000000000000000000000000000000000000000000 PUSH1 0x0 MSTORE PUSH1 0x12 PUSH1 0x4 MSTORE PUSH1 0x24 PUSH1 0x0 REVERT JUMPDEST PUSH1 0x0 PUSH2 0x1952 DUP3 PUSH2 0x1574 JUMP JUMPDEST SWAP2 POP PUSH2 0x195D DUP4 PUSH2 0x1574 JUMP JUMPDEST SWAP3 POP DUP3 PUSH2 0x196D JUMPI PUSH2 0x196C PUSH2 0x1918 JUMP JUMPDEST JUMPDEST DUP3 DUP3 DIV SWAP1 POP SWAP3 SWAP2 POP POP JUMP JUMPDEST PUSH1 0x0 PUSH2 0x1983 DUP3 PUSH2 0x1574 JUMP JUMPDEST SWAP2 POP PUSH2 0x198E DUP4 PUSH2 0x1574 JUMP JUMPDEST SWAP3 POP DUP3 DUP3 SUB SWAP1 POP DUP2 DUP2 GT ISZERO PUSH2 0x19A6 JUMPI PUSH2 0x19A5 PUSH2 0x18A7 JUMP JUMPDEST JUMPDEST SWAP3 SWAP2 POP POP JUMP JUMPDEST PUSH1 0x0 PUSH1 0x40 DUP3 ADD SWAP1 POP PUSH2 0x19C1 PUSH1 0x0 DUP4 ADD DUP6 PUSH2 0x183B JUMP JUMPDEST PUSH2 0x19CE PUSH1 0x20 DUP4 ADD DUP5 PUSH2 0x15D7 JUMP JUMPDEST SWAP4 SWAP3 POP POP POP JUMP JUMPDEST PUSH1 0x0 DUP2 ISZERO ISZERO SWAP1 POP SWAP2 SWAP1 POP JUMP JUMPDEST PUSH2 0x19EA DUP2 PUSH2 0x19D5 JUMP JUMPDEST DUP2 EQ PUSH2 0x19F5 JUMPI PUSH1 0x0 DUP1 REVERT JUMPDEST POP JUMP JUMPDEST PUSH1 0x0 DUP2 MLOAD SWAP1 POP PUSH2 0x1A07 DUP2 PUSH2 0x19E1 JUMP JUMPDEST SWAP3 SWAP2 POP POP JUMP JUMPDEST PUSH1 0x0 PUSH1 0x20 DUP3 DUP5 SUB SLT ISZERO PUSH2 0x1A23 JUMPI PUSH2 0x1A22 PUSH2 0x156F JUMP JUMPDEST JUMPDEST PUSH1 0x0 PUSH2 0x1A31 DUP5 DUP3 DUP6 ADD PUSH2 0x19F8 JUMP JUMPDEST SWAP2 POP POP SWAP3 SWAP2 POP POP JUMP JUMPDEST PUSH32 0x4661696C656420746F2073656E6420455243323020746F6B656E730000000000 PUSH1 0x0 DUP3 ADD MSTORE POP JUMP JUMPDEST PUSH1 0x0 PUSH2 0x1A70 PUSH1 0x1B DUP4 PUSH2 0x1706 JUMP JUMPDEST SWAP2 POP PUSH2 0x1A7B DUP3 PUSH2 0x1A3A JUMP JUMPDEST PUSH1 0x20 DUP3 ADD SWAP1 POP SWAP2 SWAP1 POP JUMP JUMPDEST PUSH1 0x0 PUSH1 0x20 DUP3 ADD SWAP1 POP DUP2 DUP2 SUB PUSH1 0x0 DUP4 ADD MSTORE PUSH2 0x1A9F DUP2 PUSH2 0x1A63 JUMP JUMPDEST SWAP1 POP SWAP2 SWAP1 POP JUMP JUMPDEST PUSH1 0x0 PUSH1 0x60 DUP3 ADD SWAP1 POP PUSH2 0x1ABB PUSH1 0x0 DUP4 ADD DUP7 PUSH2 0x15D7 JUMP JUMPDEST PUSH2 0x1AC8 PUSH1 0x20 DUP4 ADD DUP6 PUSH2 0x15D7 JUMP JUMPDEST PUSH2 0x1AD5 PUSH1 0x40 DUP4 ADD DUP5 PUSH2 0x15D7 JUMP JUMPDEST SWAP5 SWAP4 POP POP POP POP JUMP JUMPDEST PUSH32 0x455243323020746F6B656E206D7573742062652067726561746572207468616E PUSH1 0x0 DUP3 ADD MSTORE PUSH32 0x20302E0000000000000000000000000000000000000000000000000000000000 PUSH1 0x20 DUP3 ADD MSTORE POP JUMP JUMPDEST PUSH1 0x0 PUSH2 0x1B39 PUSH1 0x23 DUP4 PUSH2 0x1706 JUMP JUMPDEST SWAP2 POP PUSH2 0x1B44 DUP3 PUSH2 0x1ADD JUMP JUMPDEST PUSH1 0x40 DUP3 ADD SWAP1 POP SWAP2 SWAP1 POP JUMP JUMPDEST PUSH1 0x0 PUSH1 0x20 DUP3 ADD SWAP1 POP DUP2 DUP2 SUB PUSH1 0x0 DUP4 ADD MSTORE PUSH2 0x1B68 DUP2 PUSH2 0x1B2C JUMP JUMPDEST SWAP1 POP SWAP2 SWAP1 POP JUMP JUMPDEST PUSH32 0x4D757374206465706F736974206D6F7265207468616E2030204554482E000000 PUSH1 0x0 DUP3 ADD MSTORE POP JUMP JUMPDEST PUSH1 0x0 PUSH2 0x1BA5 PUSH1 0x1D DUP4 PUSH2 0x1706 JUMP JUMPDEST SWAP2 POP PUSH2 0x1BB0 DUP3 PUSH2 0x1B6F JUMP JUMPDEST PUSH1 0x20 DUP3 ADD SWAP1 POP SWAP2 SWAP1 POP JUMP JUMPDEST PUSH1 0x0 PUSH1 0x20 DUP3 ADD SWAP1 POP DUP2 DUP2 SUB PUSH1 0x0 DUP4 ADD MSTORE PUSH2 0x1BD4 DUP2 PUSH2 0x1B98 JUMP JUMPDEST SWAP1 POP SWAP2 SWAP1 POP JUMP JUMPDEST PUSH1 0x0 PUSH2 0x1BE6 DUP3 PUSH2 0x1574 JUMP JUMPDEST SWAP2 POP PUSH2 0x1BF1 DUP4 PUSH2 0x1574 JUMP JUMPDEST SWAP3 POP DUP3 DUP3 ADD SWAP1 POP DUP1 DUP3 GT ISZERO PUSH2 0x1C09 JUMPI PUSH2 0x1C08 PUSH2 0x18A7 JUMP JUMPDEST JUMPDEST SWAP3 SWAP2 POP POP JUMP JUMPDEST PUSH1 0x0 PUSH1 0x40 DUP3 ADD SWAP1 POP PUSH2 0x1C24 PUSH1 0x0 DUP4 ADD DUP6 PUSH2 0x15D7 JUMP JUMPDEST PUSH2 0x1C31 PUSH1 0x20 DUP4 ADD DUP5 PUSH2 0x15D7 JUMP JUMPDEST SWAP4 SWAP3 POP POP POP JUMP JUMPDEST PUSH32 0x45544820616D6F756E74206D7573742062652067726561746572207468616E20 PUSH1 0x0 DUP3 ADD MSTORE PUSH32 0x302E000000000000000000000000000000000000000000000000000000000000 PUSH1 0x20 DUP3 ADD MSTORE POP JUMP JUMPDEST PUSH1 0x0 PUSH2 0x1C94 PUSH1 0x22 DUP4 PUSH2 0x1706 JUMP JUMPDEST SWAP2 POP PUSH2 0x1C9F DUP3 PUSH2 0x1C38 JUMP JUMPDEST PUSH1 0x40 DUP3 ADD SWAP1 POP SWAP2 SWAP1 POP JUMP JUMPDEST PUSH1 0x0 PUSH1 0x20 DUP3 ADD SWAP1 POP DUP2 DUP2 SUB PUSH1 0x0 DUP4 ADD MSTORE PUSH2 0x1CC3 DUP2 PUSH2 0x1C87 JUMP JUMPDEST SWAP1 POP SWAP2 SWAP1 POP JUMP JUMPDEST PUSH32 0x4D75737420696E707574206D6F7265207468616E203020455243323020546F6B PUSH1 0x0 DUP3 ADD MSTORE PUSH32 0x656E2E0000000000000000000000000000000000000000000000000000000000 PUSH1 0x20 DUP3 ADD MSTORE POP JUMP JUMPDEST PUSH1 0x0 PUSH2 0x1D26 PUSH1 0x23 DUP4 PUSH2 0x1706 JUMP JUMPDEST SWAP2 POP PUSH2 0x1D31 DUP3 PUSH2 0x1CCA JUMP JUMPDEST PUSH1 0x40 DUP3 ADD SWAP1 POP SWAP2 SWAP1 POP JUMP JUMPDEST PUSH1 0x0 PUSH1 0x20 DUP3 ADD SWAP1 POP DUP2 DUP2 SUB PUSH1 0x0 DUP4 ADD MSTORE PUSH2 0x1D55 DUP2 PUSH2 0x1D19 JUMP JUMPDEST SWAP1 POP SWAP2 SWAP1 POP JUMP JUMPDEST PUSH32 0x496E73756666696369656E74206C69717569646974792E000000000000000000 PUSH1 0x0 DUP3 ADD MSTORE POP JUMP JUMPDEST PUSH1 0x0 PUSH2 0x1D92 PUSH1 0x17 DUP4 PUSH2 0x1706 JUMP JUMPDEST SWAP2 POP PUSH2 0x1D9D DUP3 PUSH2 0x1D5C JUMP JUMPDEST PUSH1 0x20 DUP3 ADD SWAP1 POP SWAP2 SWAP1 POP JUMP JUMPDEST PUSH1 0x0 PUSH1 0x20 DUP3 ADD SWAP1 POP DUP2 DUP2 SUB PUSH1 0x0 DUP4 ADD MSTORE PUSH2 0x1DC1 DUP2 PUSH2 0x1D85 JUMP JUMPDEST SWAP1 POP SWAP2 SWAP1 POP JUMP JUMPDEST PUSH32 0x496E76616C6964207377617020657374696D6174650000000000000000000000 PUSH1 0x0 DUP3 ADD MSTORE POP JUMP JUMPDEST PUSH1 0x0 PUSH2 0x1DFE PUSH1 0x15 DUP4 PUSH2 0x1706 JUMP JUMPDEST SWAP2 POP PUSH2 0x1E09 DUP3 PUSH2 0x1DC8 JUMP JUMPDEST PUSH1 0x20 DUP3 ADD SWAP1 POP SWAP2 SWAP1 POP JUMP JUMPDEST PUSH1 0x0 PUSH1 0x20 DUP3 ADD SWAP1 POP DUP2 DUP2 SUB PUSH1 0x0 DUP4 ADD MSTORE PUSH2 0x1E2D DUP2 PUSH2 0x1DF1 JUMP JUMPDEST SWAP1 POP SWAP2 SWAP1 POP JUMP JUMPDEST PUSH1 0x0 PUSH1 0x60 DUP3 ADD SWAP1 POP PUSH2 0x1E49 PUSH1 0x0 DUP4 ADD DUP7 PUSH2 0x183B JUMP JUMPDEST PUSH2 0x1E56 PUSH1 0x20 DUP4 ADD DUP6 PUSH2 0x183B JUMP JUMPDEST PUSH2 0x1E63 PUSH1 0x40 DUP4 ADD DUP5 PUSH2 0x15D7 JUMP JUMPDEST SWAP5 SWAP4 POP POP POP POP JUMP JUMPDEST PUSH32 0x4552433230207472616E73666572206661696C65640000000000000000000000 PUSH1 0x0 DUP3 ADD MSTORE POP JUMP JUMPDEST PUSH1 0x0 PUSH2 0x1EA1 PUSH1 0x15 DUP4 PUSH2 0x1706 JUMP JUMPDEST SWAP2 POP PUSH2 0x1EAC DUP3 PUSH2 0x1E6B JUMP JUMPDEST PUSH1 0x20 DUP3 ADD SWAP1 POP SWAP2 SWAP1 POP JUMP JUMPDEST PUSH1 0x0 PUSH1 0x20 DUP3 ADD SWAP1 POP DUP2 DUP2 SUB PUSH1 0x0 DUP4 ADD MSTORE PUSH2 0x1ED0 DUP2 PUSH2 0x1E94 JUMP JUMPDEST SWAP1 POP SWAP2 SWAP1 POP JUMP JUMPDEST PUSH32 0x496E76616C696420737761702072657175657374000000000000000000000000 PUSH1 0x0 DUP3 ADD MSTORE POP JUMP JUMPDEST PUSH1 0x0 PUSH2 0x1F0D PUSH1 0x14 DUP4 PUSH2 0x1706 JUMP JUMPDEST SWAP2 POP PUSH2 0x1F18 DUP3 PUSH2 0x1ED7 JUMP JUMPDEST PUSH1 0x20 DUP3 ADD SWAP1 POP SWAP2 SWAP1 POP JUMP JUMPDEST PUSH1 0x0 PUSH1 0x20 DUP3 ADD SWAP1 POP DUP2 DUP2 SUB PUSH1 0x0 DUP4 ADD MSTORE PUSH2 0x1F3C DUP2 PUSH2 0x1F00 JUMP JUMPDEST SWAP1 POP SWAP2 SWAP1 POP JUMP JUMPDEST PUSH32 0x4D75737420696E707574206D6F7265207468616E2030204554482E0000000000 PUSH1 0x0 DUP3 ADD MSTORE POP JUMP JUMPDEST PUSH1 0x0 PUSH2 0x1F79 PUSH1 0x1B DUP4 PUSH2 0x1706 JUMP JUMPDEST SWAP2 POP PUSH2 0x1F84 DUP3 PUSH2 0x1F43 JUMP JUMPDEST PUSH1 0x20 DUP3 ADD SWAP1 POP SWAP2 SWAP1 POP JUMP JUMPDEST PUSH1 0x0 PUSH1 0x20 DUP3 ADD SWAP1 POP DUP2 DUP2 SUB PUSH1 0x0 DUP4 ADD MSTORE PUSH2 0x1FA8 DUP2 PUSH2 0x1F6C JUMP JUMPDEST SWAP1 POP SWAP2 SWAP1 POP JUMP JUMPDEST PUSH32 0x4D757374206D61696E7461696E204554482F455243323020726174696F000000 PUSH1 0x0 DUP3 ADD MSTORE POP JUMP JUMPDEST PUSH1 0x0 PUSH2 0x1FE5 PUSH1 0x1D DUP4 PUSH2 0x1706 JUMP JUMPDEST SWAP2 POP PUSH2 0x1FF0 DUP3 PUSH2 0x1FAF JUMP JUMPDEST PUSH1 0x20 DUP3 ADD SWAP1 POP SWAP2 SWAP1 POP JUMP JUMPDEST PUSH1 0x0 PUSH1 0x20 DUP3 ADD SWAP1 POP DUP2 DUP2 SUB PUSH1 0x0 DUP4 ADD MSTORE PUSH2 0x2014 DUP2 PUSH2 0x1FD8 JUMP JUMPDEST SWAP1 POP SWAP2 SWAP1 POP JUMP JUMPDEST PUSH1 0x0 PUSH1 0x80 DUP3 ADD SWAP1 POP PUSH2 0x2030 PUSH1 0x0 DUP4 ADD DUP8 PUSH2 0x183B JUMP JUMPDEST PUSH2 0x203D PUSH1 0x20 DUP4 ADD DUP7 PUSH2 0x15D7 JUMP JUMPDEST PUSH2 0x204A PUSH1 0x40 DUP4 ADD DUP6 PUSH2 0x15D7 JUMP JUMPDEST PUSH2 0x2057 PUSH1 0x60 DUP4 ADD DUP5 PUSH2 0x15D7 JUMP JUMPDEST SWAP6 SWAP5 POP POP POP POP POP JUMP JUMPDEST PUSH32 0x455448206D7573742062652067726561746572207468616E20302E0000000000 PUSH1 0x0 DUP3 ADD MSTORE POP JUMP JUMPDEST PUSH1 0x0 PUSH2 0x2096 PUSH1 0x1B DUP4 PUSH2 0x1706 JUMP JUMPDEST SWAP2 POP PUSH2 0x20A1 DUP3 PUSH2 0x2060 JUMP JUMPDEST PUSH1 0x20 DUP3 ADD SWAP1 POP SWAP2 SWAP1 POP JUMP JUMPDEST PUSH1 0x0 PUSH1 0x20 DUP3 ADD SWAP1 POP DUP2 DUP2 SUB PUSH1 0x0 DUP4 ADD MSTORE PUSH2 0x20C5 DUP2 PUSH2 0x2089 JUMP JUMPDEST SWAP1 POP SWAP2 SWAP1 POP JUMP INVALID LOG2 PUSH5 0x6970667358 0x22 SLT KECCAK256 PUSH28 0xD669E82BAD2E117656B5DD4128B8040BC5E76AF474FA0121685629CF BLOCKHASH RETURNDATACOPY SHR PUSH5 0x736F6C6343 STOP ADDMOD SGT STOP CALLER "
				},
				"gasEstimates": {
					"creation": {
						"codeDepositCost": "1690000",
						"executionCost": "infinite",
						"totalCost": "infinite"
					},
					"external": {
						"K()": "2496",
						"erc20Token()": "infinite",
						"estimateERC20TokenToProvide(uint256)": "infinite",
						"estimateEthToProvide(uint256)": "infinite",
						"estimateSwapForERC20Token(uint256)": "infinite",
						"estimateSwapForEth(uint256)": "infinite",
						"getMyLiquidityPositions()": "2570",
						"liquidityPositions(address)": "2903",
						"provideLiquidity(uint256)": "infinite",
						"swapForERC20Token()": "infinite",
						"swapForEth(uint256)": "infinite",
						"totalLiquidityPositions()": "2452",
						"withdrawLiquidity(uint256)": "infinite"
					}
				},
				"methodIdentifiers": {
					"K()": "a932492f",
					"erc20Token()": "8a13eea7",
					"estimateERC20TokenToProvide(uint256)": "ed7bf868",
					"estimateEthToProvide(uint256)": "240f3dea",
					"estimateSwapForERC20Token(uint256)": "79ed3562",
					"estimateSwapForEth(uint256)": "903875f7",
					"getMyLiquidityPositions()": "e0ba2000",
					"liquidityPositions(address)": "6fd0ea92",
					"provideLiquidity(uint256)": "eb521a4c",
					"swapForERC20Token()": "29cbab3e",
					"swapForEth(uint256)": "c8ab8325",
					"totalLiquidityPositions()": "1cde6226",
					"withdrawLiquidity(uint256)": "0a861f2a"
				}
			},
			"storageLayout": {
				"storage": [
					{
						"astId": 783,
						"contract": "contracts/Exchange.sol:Exchange",
						"label": "erc20Token",
						"offset": 0,
						"slot": "0",
						"type": "t_contract(ERC20)651"
					},
					{
						"astId": 785,
						"contract": "contracts/Exchange.sol:Exchange",
						"label": "totalLiquidityPositions",
						"offset": 0,
						"slot": "1",
						"type": "t_uint256"
					},
					{
						"astId": 787,
						"contract": "contracts/Exchange.sol:Exchange",
						"label": "K",
						"offset": 0,
						"slot": "2",
						"type": "t_uint256"
					},
					{
						"astId": 791,
						"contract": "contracts/Exchange.sol:Exchange",
						"label": "liquidityPositions",
						"offset": 0,
						"slot": "3",
						"type": "t_mapping(t_address,t_uint256)"
					}
				],
				"types": {
					"t_address": {
						"encoding": "inplace",
						"label": "address",
						"numberOfBytes": "20"
					},
					"t_contract(ERC20)651": {
						"encoding": "inplace",
						"label": "contract ERC20",
						"numberOfBytes": "20"
					},
					"t_mapping(t_address,t_uint256)": {
						"encoding": "mapping",
						"key": "t_address",
						"label": "mapping(address => uint256)",
						"numberOfBytes": "32",
						"value": "t_uint256"
					},
					"t_uint256": {
						"encoding": "inplace",
						"label": "uint256",
						"numberOfBytes": "32"
					}
				}
			},
			"userdoc": {
				"kind": "user",
				"methods": {},
				"version": 1
			}
		}
	}
}